S01A00005844524956455F54494B5649435F56322E302E73726563CA
S11300001FC1000043C1000041C100003FC1000006
S11300103DC100003BC1000039C1000037C10000F0
S113002035C1000033C1000031C100002FC1000000
S11300302DC100002BC1000029C1000027C1000010
S113004025C1000023C1000021C100001FC1000020
S11300501DC100001BC1000019C1000017C1000030
S113006015C100000C94D71A0C94C4230FC10000CE
S11300700DC100000BC1000009C1000007C1000050
S113008005C1000003C100000C94F923FFC0000067
S1130090FDC00000FBC00000F9C00000F7C0000074
S11300A0F5C00000F3C00000F1C00000EFC0000084
S11300B0EDC00000EBC00000E9C00000E7C0000094
S11300C0E5C00000E3C00000E1C00000DFC00000A4
S11300D0DDC00000B9C30000D9C00000D7C00000D3
S11300E0D5C00000D3C0000096C400000C945A236D
S11300F0CDC000000C940E0E0C948F23C7C00000DA
S1130100C5C00000C3C00000C1C00000BFC00000E3
S1130110BDC00000BBC00000B9C00000B7C00000F3
S1130120B5C00000B3C00000B1C00000AFC0000003
S1130130ADC000000C940623A9C00000A7C00000B5
S1130140A5C00000A3C00000A1C000000C9430238F
S11301509DC000009BC0000099C0000097C0000033
S113016095C0000093C0000091C000008FC0000043
S11301708DC000008BC0000089C0000087C0000053
S113018085C0000083C0000081C000007FC0000063
S11301907DC000007BC0000079C0000077C0000073
S11301A075C0000073C0000071C000006FC0000083
S11301B00C9402336BC000000C94E33267C000005F
S11301C065C0000063C0000061C000005FC00000A3
S11301D05DC000005BC0000059C0000057C00000B3
S11301E055C0000053C0000051C000004FC00000C3
S11301F04DC00000084AD73B3BCE016E84BCBFFD16
S1130200C12F3D6C74319ABD56833DDA3D00C77FE2
S113021011BED9E4BB4C3E916BAAAABE000000807B
S11302203F05A84CCDB2D44EB93836A9020C50B90A
S1130230918688083CA6AAAA2ABE000000803F0036
S113024011241FBECFEFDFE3DEBFCDBF00E00CBF44
S113025018BE19BE1ABE1BBE10E2A0E0B0E2E8EA66
S1130260FFE600E00BBF02C007900D92A830B10773
S1130270D9F71BBE22E3A8E0B0E201C01D92A93861
S1130280B207E1F70E94B5330C94D237B9CE462FAA
S113029050E066230CF45F6F21E0FC01238324818A
S11302A03581241B350B822F932F089521E0FC0107
S11302B023838481861B0895FC01848191E09483C7
S11302C0AFEFB0E01197F1F700C000008483089508
S11302D0CF93DF93EC018981897E806189838C814E
S11302E0887F81608C838A818F7C8A8388A1807EC9
S11302F0826088A319A2888181608883CE01DCDFB3
S113030088A1806888A38BA180FFFDCF60E0CE0127
S11303108096CCDF98819E7F9883DF91CF9108955A
S11303208EBB1FBAEAECF1E082E080838EB31082C8
S11303300895CF93DF93EC01C11582E0D80741F40F
S113034080E2EEDF90E0E0E0F2E08487958705C08C
S113035084E2E6DF90E08C879D87DF91CF9108955A
S113036084ED9AE2A1E0B0E08093CF249093D0246E
S1130370A093D124B093D22485E696E3A0E0B0E024
S11303808093713290937232A0937332B09374322B
S11303906091CF247091D0248091D1249091D22463
S11303A028EE33E040E050E00E9465372093FC2DB6
S11303B03093FD2D8091713290917232A0917332FD
S11303C0B0917432B595A795979587958093CB286E
S11303D09093CC28A093CD28B093CE2880917132ED
S11303E090917232A0917332B0917432B595A79501
S11303F097958795B595A7959795879580937A2E28
S113040090937B2EA0937C2EB0937D2E809171329D
S113041090917232A0917332B0917432689412F850
S1130420B595A795979587951694D1F78093C4248D
S11304309093C524A093C624B093C72481E08093ED
S11304405A298CE291E080937B3290937C328091A4
S11304507B3290917C3299230CF401969595879583
S113046080935D2E90935E2E20E233E020930B2E3A
S113047030930C2E80917B3290917C328093B02407
S11304809093B1248091C4249091C524A091C62452
S1130490B091C72480932B2E90932C2E20935A2E08
S11304A030935B2E089580E090E0A0E6B0E4809362
S11304B0662990936729A0936829B093692980E0FD
S11304C090E0A0E8BFE38093753290937632A093D6
S11304D07732B093783240E050E060EC70E44093BF
S11304E0BB285093BC286093BD287093BE2840E07D
S11304F050E060EC7FE34093F82D5093F92D609326
S1130500FA2D7093FB2D40E050E060EE70E44093D0
S11305108532509386326093873270938832809309
S1130520A6249093A724A093A824B093A92480E0A0
S113053090E0A0E3B1E48093A0249093A124A0933D
S1130540A224B093A3248AE999E9A9E9BEE380939C
S1130550CF289093D028A093D128B093D22810927A
S1130560B6241092B7241092B8241092B924109291
S11305704C2E10924D2E10924E2E10924F2E82E041
S113058090E08093CC249093CD240895EF920F9320
S11305906894EE24E1F808E120E040E06FEF80E6A3
S11305A096E00E946032E0E6F6E08FEF828386896F
S11305B08064868BE0E8F1E08EE6808399E09087A2
S11305C0A0E4B9E081E08C9328E613962C9313976A
S11305D016962C9116972C7F216016962C932CE658
S11305E022839287E0E0F9E080838AE68383868130
S11305F08C7F816086830F91EF900895CF93DF9372
S113060080E092E096DE80E092E062DE8093562EF7
S1130610C0E0D2E08981897E846089838C81887F6F
S11306208C838A818F7C8A83A0E2B2E08C91807E65
S113063081608C93E8E2F2E08081807E8160808337
S113064011961C9288E081838B818F7380648B83E5
S113065088818160888380E092E02EDE89818860D1
S11306608983DF91CF910895E0EAF0E0828184608C
S1130670828382818260828382818160828382819B
S1130680806882837894089582E080935000E0E546
S1130690F0E0818181FFFDCF88ED84BFE0E4F0E0EC
S11306A093E0918384BF81E080830895FF920F9348
S11306B01F93CF93DF93C0E8D6E088818068888356
S11306C088818F7B888341E060EB7AE089E090E267
S11306D00E942133E0910920F0910A2013E0158350
S11306E083818F7C80618383A0EBBAE00F2EF5ECCD
S11306F0FF2EF02D1696FC9216970CEA17960C9383
S11307008481806184838481886084838881886013
S1130710888388818B7F888341E060EA7AE087E17F
S113072093E20E942133E0911723F091182315835B
S113073083818F7C80618383A0EABAE01696FC9261
S1130740169717960C9384818061848384818860D2
S11307508483E0E4F6E080818870808380818B6FFD
S1130760808341E060EA78E080E991E20E942133ED
S1130770E0919021F0919121158383818F7C806198
S11307808383A0EAB8E08BE616968C93169780EBE9
S113079017968C93848180618483848188608483A8
S11307A0DF91CF911F910F91FF9008958FE590E015
S11307B0E0E4FAE086A397A362E080E49AE00E9472
S11307C07F3266E080E49AE00C94793282E0809390
S11307D0900B80915A2E90915B2EE0E4FBE086A36F
S11307E097A385E3818381E0808380E3E0EAF6E0F8
S11307F081830895EF920F93CF93CFEFE0E2F6E079
S1130800C2836894EE24E1F808E120E040E06FEF51
S113081080E296E00E94603241E061E080E296E08E
S11308200E945932E0E4F6E0C183E0EEF6E0C183D1
S1130830C68386E68583E0EAF6E08FE081838683DB
S1130840CF910F91EF9008951F920F920FB60F92D0
S1130850112408B60F9218BE09B60F9219BE0BB632
S11308600F921BBE2F933F934F935F936F937F938E
S11308708F939F93AF93BF93EF93FF9380916029DE
S113088090916129019680936029909361298091C8
S1130890582E9091592E01968093582E9093592E4C
S11308A08091542E8F5F8093542E8091F52D8F5F0D
S11308B08093F52D80915B298F5F80935B290E9443
S11308C0422F809108208F5F80930820809104201C
S11308D08F5F80930420809105208F5F8093052093
S11308E08091312E9091322E892B49F08091312EB6
S11308F09091322E01978093312E9093322E8091D5
S1130900F72D882389F08091F72D8F5F8093F72D41
S11309108091F72D853640F01092572E1092592968
S113092010923B2E1092F72D9091542E80916E329E
S1130930891708F059C08091552E8F3708F054C09C
S113094080917E32823091F5E091552EF0E08091D5
S1130950F6299091F729A091F829B091F9290196E7
S1130960A11DB11DDC018D919D910D90BC91A02D17
S1130970EE0FFF1FEE5FF54D80839183E091552EBE
S1130980F0E08091F6299091F729A091F829B0918F
S1130990F929DC018D919D910D90BC91A02DEE0F54
S11309A0FF1FEE5FF54D8083918317C0E091552EB4
S11309B0F0E08091F6299091F729A091F829B0915F
S11309C0F929DC018D919D910D90BC91A02DEE0F24
S11309D0FF1FEE5FF54D808391838091552E8F5FCD
S11309E08093552E1092542EFF91EF91BF91AF91A9
S11309F09F918F917F916F915F914F913F912F9133
S1130A000F900BBE0F9009BE0F9008BE0F900FBE43
S1130A100F901F9018951F920F920FB60F921124EA
S1130A2008B60F9218BE09B60F9219BE0AB60F92F5
S1130A301ABE0BB60F921BBE4F925F926F927F92BB
S1130A408F929F92AF92BF92CF92DF92EF92FF92DA
S1130A500F931F932F933F934F935F936F937F93C2
S1130A608F939F93AF93BF93EF93FF93CF93DF93B2
S1130A70CDB7DEB72897CDBFDEBF87E193E20E94F2
S1130A8070338091572E082F10E087E193E20E9483
S1130A906233F801E659F64D80838091572E8F5FBB
S1130AA08093572E8091572E882319F081E08093EC
S1130AB0F72D80916A29813009F0B0C08091572EBA
S1130AC0813011F00C94E20D1092F72D80916A2977
S1130AD08093D92860911F2E7091202E8091212E11
S1130AE09091222E2091FC2D3091FD2D40E050E07C
S1130AF00E946537BB2757FDBA95A52F942F832FE6
S1130B008093DA2860911F2E7091202E8091212EDF
S1130B109091222E2091FC2D3091FD2D40E050E04B
S1130B200E9465372093DB286091FE297091FF298C
S1130B308091002A9091012A2091FC2D3091FD2D65
S1130B4040E050E00E946537BB2757FDBA95A52FBA
S1130B50942F832F8093DC286091FE297091FF29C4
S1130B608091002A9091012A2091FC2D3091FD2D35
S1130B7040E050E00E9465372093DD2820917F32C9
S1130B80309180324091813250918232C0907132E2
S1130B90D0907232E0907332F0907432A8E6B1E0F3
S1130BA00E948037A70196010E946537BB2757FD35
S1130BB0BA95A52F942F832F8093DE2820917F321E
S1130BC0309180324091813250918232C0907132A2
S1130BD0D0907232E0907332F0907432A8E6B1E0B3
S1130BE00E948037A70196010E9465372093DF2871
S1130BF000E010E0F801E752F74D608187E193E2ED
S1130C000E944333882311F00F5F1F4F0F301105EB
S1130C108CF31092572E1092572ED4C780916A29C4
S1130C20823009F0BFC08091572E853008F4CAC7BE
S1130C301092F72D1092F0291092EE2D10927D3221
S1130C401092AC241092AD241092AE241092AF24D2
S1130C5020916B294091AC245091AD246091AE2435
S1130C607091AF24922F80E0AA2797FDA095BA2F08
S1130C70842B952BA62BB72B8093AC249093AD2477
S1130C80A093AE24B093AF2420916C298091AC241E
S1130C909091AD24A091AE24B091AF24822B809387
S1130CA0AC249093AD24A093AE24B093AF24A09130
S1130CB0FC2DB091FD2D2091AC243091AD244091B8
S1130CC0AE245091AF240E9480376093AC2470937B
S1130CD0AD248093AE249093AF241092072E1092EB
S1130CE0082E1092092E10920A2E20916D294091FF
S1130CF0072E5091082E6091092E70910A2E922F82
S1130D0080E0AA2797FDA095BA2F842B952BA62BBC
S1130D10B72B8093072E9093082EA093092EB0939F
S1130D200A2E20916E298091072E9091082EA09171
S1130D30092EB0910A2E822B8093072E9093082EB1
S1130D40A093092EB0930A2EA091FC2DB091FD2DF5
S1130D502091072E3091082E4091092E50910A2E91
S1130D600E9480376093072E7093082E8093092E7B
S1130D7090930A2E80916A298093D92800E010E08C
S1130D80F801E752F74D608187E193E20E94433313
S1130D90882311F00F5F1F4F101611068CF7109265
S1130DA0572E10C780916A29833009F0E3C18091DE
S1130DB0572E8B3008F406C71092F72D80916B29BB
S1130DC08F3F29F480916C298F3F09F453C010920E
S1130DD0F0291092EE2D10927D321092AC241092D4
S1130DE0AD241092AE241092AF2420916B2940912F
S1130DF0AC245091AD246091AE247091AF24922F15
S1130E0080E0AA2797FDA095BA2F842B952BA62BBB
S1130E10B72B8093AC249093AD24A093AE24B093CD
S1130E20AF2420916C298091AC249091AD24A091A1
S1130E30AE24B091AF24822B8093AC249093AD2444
S1130E40A093AE24B093AF24A091FC2DB091FD2DBE
S1130E502091AC243091AD244091AE245091AF2424
S1130E600E9480376093AC247093AD248093AE24A9
S1130E709093AF2480916D298F3F29F480916E293E
S1130E808F3F09F453C01092F0291092EE2D109266
S1130E907D321092072E1092082E1092092E109275
S1130EA00A2E20916D294091072E5091082E6091B1
S1130EB0092E70910A2E922F80E0AA2797FDA09503
S1130EC0BA2F842B952BA62BB72B8093072E9093A8
S1130ED0082EA093092EB0930A2E20916E2980919A
S1130EE0072E9091082EA091092EB0910A2E822BE4
S1130EF08093072E9093082EA093092EB0930A2E68
S1130F00A091FC2DB091FD2D2091072E3091082E3B
S1130F104091092E50910A2E0E9480376093072E2B
S1130F207093082E8093092E90930A2E80916F2936
S1130F308F3F29F4809170298F3F09F458C0109293
S1130F400020109201201092022010920320209180
S1130F506F294091002050910120609102207091EE
S1130F600320922F80E0AA2797FDA095BA2F842B07
S1130F70952BA62BB72B8093002090930120A09350
S1130F800220B09303202091702980910020909139
S1130F900120A0910220B0910320822B8093002095
S1130FA090930120A0930220B0930320209100206D
S1130FB030910120409102205091032060917132C0
S1130FC07091723280917332909174320E944337DF
S1130FD028E631E040E050E00E946537209300208D
S1130FE030930120409302205093032078C08091D5
S1130FF071298F3F29F4809172298F3F09F464C0CD
S113100010920020109201201092022010920320CE
S1131010209171294091002050910120609102207B
S113102070910320922F80E0AA2797FDA095BA2FF4
S1131030842B952BA62BB72B809300209093012013
S1131040A0930220B0930320209172298091002064
S113105090910120A0910220B0910320822B8093D3
S1131060002090930120A0930220B09303202091AC
S11310700020309101204091022050910320609182
S11310807132709172328091733290917432C09047
S11310907F32D0908032E0908132F09082320E9490
S11310A0433728E631E040E050E00E946537C20E45
S11310B0D31EE41EF51EC0920020D0920120E092BF
S11310C00220F09203200BC08FEF9FEFDC0180938E
S11310D0002090930120A0930220B09303208091DC
S11310E073298F3FC9F08091732990E09C01220FEE
S11310F0331F820F931F80937B3290937C328091B5
S11311007B3290917C3299230CF4019695958795C6
S113111080935D2E90935E2E809174298F3F21F0F1
S11311208091742980935A291092542E1092552E2E
S11311301092F52D1092F62D10925B291092C22474
S113114080916A298093D92800E010E0F801E752E1
S1131150F74D608187E193E20E944333882311F0C5
S11311600F5F1F4F101611068CF71092572E109216
S1131170572E28C580916A29843009F095C1809141
S1131180572E853008F41EC51092F72D1092F029C1
S11311901092EE2D10927D321092C1281092C22826
S11311A01092C3281092C42820916B294091C12821
S11311B05091C2286091C3287091C428922F80E076
S11311C0AA2797FDA095BA2F842B952BA62BB72B76
S11311D08093C1289093C228A093C328B093C428B5
S11311E020916C298091C1289091C228A091C32894
S11311F0B091C428822B8093C1289093C228A093D5
S1131200C328B093C428A091FC2DB091FD2D20914A
S1131210C1283091C2284091C3285091C4280E940B
S113122080376093C1287093C2288093C328909319
S1131230C4281092122E1092132E1092142E109273
S1131240152E20916D294091122E5091132E6091EC
S1131250142E7091152E922F80E0AA2797FDA09549
S1131260BA2F842B952BA62BB72B8093122E9093F9
S1131270132EA093142EB093152E20916E298091D5
S1131280122E9091132EA091142EB091152E822B14
S11312908093122E9093132EA093142EB093152E98
S11312A02091122E3091132E4091142E5091152E10
S11312B06091713270917232809173329091743274
S11312C00E94433728E631E040E050E00E94653751
S11312D02093122E3093132E4093142E5093152ED8
S11312E040917F325091803260918132709182328C
S11312F08091122E9091132EA091142EB091152E40
S1131300C090CB28D090CC28E090CD28F090CE2867
S113131040907F325090803260908132709082325F
S11313200091122E1091132E2091142E3091152E0F
S113133009831A832B833C838090CB289090CC28FC
S1131340A090CD28B090CE288A019B01080F191FC8
S11313502A1F3B1FC901B8010E9456356D837E8345
S11313608F839887C701B6010E9456359B01AC0153
S11313706D817E818F8198850E94BB342BED3FE087
S113138049E450E40E946F360E94B8346B017C013A
S113139069817A818B819C81640D751D861D971DE1
S11313A00E9456352B013C01C501B4010E945635FB
S11313B09B01AC01C301B2010E94BB342BED3FE0A1
S11313C049E450E40E946F360E94D2364B015C011E
S11313D06091C1287091C2288091C3289091C4283B
S11313E04090C1285090C2286090C3287090C428AF
S11313F020911F2E3091202E4091212E5091222E8B
S113140029833A834B835C830E945635A701960156
S11314100E946F360E94233509811A812B813C81F9
S1131420060F171F281F391F0093AC241093AD24F7
S11314302093AE243093AF24C090FE29D090FF298E
S1131440E090002AF090012AC301B2010E945635AF
S1131450A50194010E946F360E942335C60ED71E43
S1131460E81EF91EC092072ED092082EE092092E93
S1131470F0920A2E80916A298093D92800E010E026
S1131480F801E752F74D608187E193E20E9443330C
S1131490882311F00F5F1F4F101611068CF710925E
S11314A0572E1092572E8EC380916A29853009F0E9
S11314B06EC08091572E833008F484C31092F72DA8
S11314C081E080937D3280916B2988238CF4809114
S11314D06B2990E09C01220F331F220F331F820FD0
S11314E0931F805892408093772E9093782E10C04B
S11314F080916B2990E09C01220F331F220F331F30
S1131500820F931F805892408093772E9093782E69
S113151080916C2988238CF480916C2990E09C0143
S1131520220F331F220F331F820F931F80589240C4
S11315308093752E9093762E10C080916C2990E044
S11315409C01220F331F220F331F820F931F8058D9
S113155092408093752E9093762E80916A29809381
S1131560D92800E010E0F801E752F74D608187E1E7
S113157093E20E944333882311F00F5F1F4F10162C
S113158011068CF71092572E1092572E1BC3809180
S11315906A29863009F056C08091572E873008F4A6
S11315A011C31092F72DE0E4F6E094814BE659E282
S11315B0DA018C916CE679E2DB012C918223892B90
S11315C084839481DA018C91DB012C9182278095AC
S11315D08923848380916D2990E088589F4FE0E0AF
S11315E0FBE080A791A780916E2990E088589F4FD7
S11315F082A793A780916F2990E088589F4F84A772
S113160095A78091702990E088589F4F86A797A747
S113161080916A298093D92800E010E0F801E7520C
S1131620F74D608187E193E20E944333882311F0F0
S11316300F5F1F4F101611068CF71092572E109241
S1131640572EC0C280916A29873009F07DC18091EC
S1131650572E873008F4B6C21092F72D80916B296B
S11316608F3F29F480916C298F3F09F46DC010924B
S11316701F2E1092202E1092212E1092222E209195
S11316806B2940911F2E5091202E6091212E709134
S1131690222E922F80E0AA2797FDA095BA2F842BA3
S11316A0952BA62BB72B80931F2E9093202EA093BF
S11316B0212EB093222E20916C2980911F2E90917F
S11316C0202EA091212EB091222E822B80931F2EAA
S11316D09093202EA093212EB093222EA091FC2D26
S11316E0B091FD2D20911F2E3091202E4091212E5E
S11316F05091222E0E94803760931F2E7093202ECB
S11317008093212E9093222E80911F2E9091202E33
S1131710A091212EB091222E8093AC249093AD24DD
S1131720A093AE24B093AF2480911F2E9091202ECD
S1131730A091212EB091222E80932D2E90932E2EA7
S1131740A0932F2EB093302E80916D298F3F29F4D2
S113175080916E298F3F09F46DC01092FE2910927A
S1131760FF291092002A1092012A20916D2940919C
S1131770FE295091FF296091002A7091012A922F2D
S113178080E0AA2797FDA095BA2F842B952BA62B32
S1131790B72B8093FE299093FF29A093002AB0933E
S11317A0012A20916E298091FE299091FF29A09110
S11317B0002AB091012A822B8093FE299093FF295D
S11317C0A093002AB093012AA091FC2DB091FD2D85
S11317D02091FE293091FF294091002A5091012A3D
S11317E00E9480376093FE297093FF298093002A1A
S11317F09093012A8091FE299091FF29A091002ABB
S1131800B091012A8093072E9093082EA093092E5D
S1131810B0930A2E8091FE299091FF29A091002A6D
S1131820B091012A80936C2E90936D2EA0936E2E0E
S1131830B0936F2E80916F298F3F29F48091702986
S11318408F3F09F467C010927F3210928032109259
S113185081321092823220916F2940917F325091CF
S113186080326091813270918232922F80E0AA2777
S113187097FDA095BA2F842B952BA62BB72B80937D
S11318807F3290938032A0938132B0938232209140
S1131890702980917F3290918032A0918132B091F1
S11318A08232822B80937F3290938032A093813254
S11318B0B093823220917F323091803240918132D4
S11318C05091823260917132709172328091733290
S11318D0909174320E94433728E631E040E050E0B2
S11318E00E94653720937F32309380324093813257
S11318F05093823280917F3290918032A0918132D4
S1131900B09182328093C8249093C924A093CA24AE
S1131910B093CB2480916A298093D92800E010E009
S1131920F801E752F74D608187E193E20E94433367
S1131930882311F00F5F1F4F101611068CF71092B9
S1131940572E1092572E3EC180916A298830D9F5BE
S11319508091572E833008F435C11092F72D809171
S11319606B29813039F48093EE2D1092772E1092EA
S1131970782E02C01092EE2D80916C29813039F4BA
S11319808093F0291092752E1092762E02C0109238
S1131990F02980916A298093D92800E010E0F801A9
S11319A0E752F74D608187E193E20E944333882335
S11319B011F00F5F1F4F101611068CF71092572E5F
S11319C01092572EFFC080916A29853609F04BC0CA
S11319D08091572E813009F0F5C01092F72D809137
S11319E06A298093D92860911F2E7091202E8091AE
S11319F0212E9091222E2091FC2D3091FD2D40E03E
S1131A0050E00E946537BB2757FDBA95A52F942F48
S1131A10832F8093DA2860911F2E7091202E80915D
S1131A20212E9091222E2091FC2D3091FD2D40E00D
S1131A3050E00E9465372093DB2800E010E0F801B5
S1131A40E752F74D608187E193E20E944333882394
S1131A5011F00F5F1F4F033011058CF31092572EB6
S1131A601092572EAFC080916A29863609F04BC078
S1131A708091572E813009F0A5C01092F72D8091E6
S1131A806A298093D9286091FE297091FF29809159
S1131A90002A9091012A2091FC2D3091FD2D40E0E7
S1131AA050E00E946537BB2757FDBA95A52F942FA8
S1131AB0832F8093DA286091FE297091FF29809109
S1131AC0002A9091012A2091FC2D3091FD2D40E0B7
S1131AD050E00E9465372093DB2800E010E0F80115
S1131AE0E752F74D608187E193E20E9443338823F4
S1131AF011F00F5F1F4F033011058CF31092572E16
S1131B001092572E5FC080916A29873609F05AC017
S1131B108091572E813009F055C01092F72D809195
S1131B206A298093D92820917F3230918032409164
S1131B30813250918232C0907132D0907232E090F2
S1131B407332F0907432A8E6B1E00E948037A701A6
S1131B5096010E946537BB2757FDBA95A52F942F90
S1131B60832F8093DA2820917F3230918032409104
S1131B70813250918232C0907132D0907232E090B2
S1131B807332F0907432A8E6B1E00E948037A70166
S1131B9096010E9465372093DB2800E010E0F801ED
S1131BA0E752F74D608187E193E20E944333882333
S1131BB011F00F5F1F4F033011058CF31092572E55
S1131BC01092572E2896CDBFDEBFDF91CF91FF91A3
S1131BD0EF91BF91AF919F918F917F916F915F91A1
S1131BE04F913F912F911F910F91FF90EF90DF90B4
S1131BF0CF90BF90AF909F908F907F906F905F90A9
S1131C004F900F900BBE0F900ABE0F9009BE0F901D
S1131C1008BE0F900FBE0F901F9018951F920F9241
S1131C200FB60F92112408B60F9218BE09B60F9280
S1131C3019BE0AB60F921ABE0BB60F921BBE4F9274
S1131C405F926F927F928F929F92AF92BF92CF9248
S1131C50DF92EF92FF920F931F932F933F934F9333
S1131C605F936F937F938F939F93AF93BF93EF9300
S1131C70FF93CF93DF93CDB7DEB72897CDBFDEBFF9
S1131C8089E090E20E94703380915929082F10E076
S1131C9089E090E20E946233F801E659F64D8083B0
S1131CA0809159298F5F80935929809159298823DC
S1131CB019F081E08093F72D80916A29813009F031
S1131CC000C180915929813011F00C94AB1A109203
S1131CD0F72D80916A298093D92860911F2E7091E5
S1131CE0202E8091212E9091222E2091FC2D309136
S1131CF0FD2D40E050E00E946537BB2757FDBA95A3
S1131D00A52F942F832F8093DA2860911F2E709132
S1131D10202E8091212E9091222E2091FC2D309105
S1131D20FD2D40E050E00E9465372093DB28609150
S1131D30FE297091FF298091002A9091012A209117
S1131D40FC2D3091FD2D40E050E00E946537BB270B
S1131D5057FDBA95A52F942F832F8093DC2860918B
S1131D60FE297091FF298091002A9091012A2091E7
S1131D70FC2D3091FD2D40E050E00E94653720930A
S1131D80DD2820917F323091803240918132509110
S1131D908232C0907132D0907232E0907332F090FF
S1131DA07432A8E6B1E00E948037A70196010E9430
S1131DB06537BB2757FDBA95A52F942F832F8093A2
S1131DC0DE2820917F3230918032409181325091CF
S1131DD08232C0907132D0907232E0907332F090BF
S1131DE07432A8E6B1E00E948037A70196010E94F0
S1131DF065372093DF2860910E2E70910F2E80910D
S1131E00102E9091112E2091FC2D3091FD2D40E04B
S1131E1050E00E946537BB2757FDBA95A52F942F34
S1131E20832F8093E02860910E2E70910F2E809165
S1131E30102E9091112E2091FC2D3091FD2D40E01B
S1131E4050E00E9465372093E1288091062080931A
S1131E50E22880919E2490919F248093E32880918E
S1131E60BE249091BF248093E4286091562E80E292
S1131E7092E00E9447018093E5286091562E88E203
S1131E8092E00E9447018093E628E0E2F6E0808534
S1131E908093E72800E010E0F801E752F74D6081F5
S1131EA089E090E20E944333882311F00F5F1F4FB3
S1131EB00F3011058CF310925929109259290C9462
S1131EC0AB1A80916A29823009F0C1C080915929E6
S1131ED0853010F40C94AB1A1092F72D1092F0295F
S1131EE01092EE2D10927D321092AC241092AD24FB
S1131EF01092AE241092AF2420916B294091AC240F
S1131F005091AD246091AE247091AF24922F80E063
S1131F10AA2797FDA095BA2F842B952BA62BB72B18
S1131F208093AC249093AD24A093AE24B093AF24BB
S1131F3020916C298091AC249091AD24A091AE2481
S1131F40B091AF24822B8093AC249093AD24A093C2
S1131F50AE24B093AF24A091FC2DB091FD2D20911F
S1131F60AC243091AD244091AE245091AF240E9412
S1131F7080376093AC247093AD248093AE24909307
S1131F80AF241092072E1092082E1092092E109250
S1131F900A2E20916D294091072E5091082E6091B0
S1131FA0092E70910A2E922F80E0AA2797FDA09502
S1131FB0BA2F842B952BA62BB72B8093072E9093A7
S1131FC0082EA093092EB0930A2E20916E29809199
S1131FD0072E9091082EA091092EB0910A2E822BE3
S1131FE08093072E9093082EA093092EB0930A2E67
S1131FF0A091FC2DB091FD2D2091072E3091082E3B
S11320004091092E50910A2E0E9480376093072E2A
S11320107093082E8093092E90930A2E80916A293A
S11320208093D92800E010E0F801E752F74D608171
S113203089E090E20E944333882311F00F5F1F4F21
S1132040101611068CF7109259290C94AB1A809132
S11320506A29833009F0E5C1809159298B3010F445
S11320600C94AB1A1092F72D80916B298F3F29F4B1
S113207080916C298F3F09F453C01092F02910927B
S1132080EE2D10927D321092AC241092AD24109259
S1132090AE241092AF2420916B294091AC2450912E
S11320A0AD246091AE247091AF24922F80E0AA27D2
S11320B097FDA095BA2F842B952BA62BB72B809335
S11320C0AC249093AD24A093AE24B093AF2420917C
S11320D06C298091AC249091AD24A091AE24B09150
S11320E0AF24822B8093AC249093AD24A093AE2490
S11320F0B093AF24A091FC2DB091FD2D2091AC2480
S11321003091AD244091AE245091AF240E94803789
S11321106093AC247093AD248093AE249093AF2449
S113212080916D298F3F29F480916E298F3F09F4A6
S113213053C01092F0291092EE2D10927D3210921D
S1132140072E1092082E1092092E10920A2E20911A
S11321506D294091072E5091082E6091092E70919F
S11321600A2E922F80E0AA2797FDA095BA2F842BE0
S1132170952BA62BB72B8093072E9093082EA09314
S1132180092EB0930A2E20916E298091072E9091EA
S1132190082EA091092EB0910A2E822B8093072E2F
S11321A09093082EA093092EB0930A2EA091FC2D93
S11321B0B091FD2D2091072E3091082E4091092ECB
S11321C050910A2E0E9480376093072E7093082E38
S11321D08093092E90930A2E80916F298F3F29F4C2
S11321E0809170298F3F09F458C0109200201092FA
S11321F00120109202201092032020916F29409117
S11322000020509101206091022070910320922FB0
S113221080E0AA2797FDA095BA2F842B952BA62B97
S1132220B72B8093002090930120A0930220B093B9
S11322300320209170298091002090910120A09189
S11322400220B0910320822B8093002090930120E0
S1132250A0930220B093032020910020309101200C
S1132260409102205091032060917132709172323A
S113227080917332909174320E94433728E631E0A2
S113228040E050E00E946537209300203093012005
S1132290409302205093032078C0809171298F3F8E
S11322A029F4809172298F3F09F464C010920020B0
S11322B01092012010920220109203202091712983
S11322C040910020509101206091022070910320E0
S11322D0922F80E0AA2797FDA095BA2F842B952BE7
S11322E0A62BB72B8093002090930120A09302206B
S11322F0B0930320209172298091002090910120B5
S1132300A0910220B0910320822B8093002090930F
S11323100120A0930220B09303202091002030914B
S113232001204091022050910320609171327091FC
S113233072328091733290917432C0907F32D09017
S11323408032E0908132F09082320E94433728E656
S113235031E040E050E00E946537C20ED31EE41E17
S1132360F51EC0920020D0920120E0920220F0924B
S113237003200BC08FEF9FEFDC018093002090932C
S11323800120A0930220B0930320809173298F3FF2
S1132390C9F08091732990E09C01220F331F820FB2
S11323A0931F80937B3290937C3280917B32909107
S11323B07C3299230CF401969595879580935D2E34
S11323C090935E2E809174298F3F21F0809174291F
S11323D080935A291092542E1092552E1092F52D56
S11323E01092F62D10925B291092C22480916A29D2
S11323F08093D92800E010E0F801E752F74D60819E
S113240089E090E20E944333882311F00F5F1F4F4D
S1132410101611068CF710925929109259290C9410
S1132420AB1A80916A29843009F096C180915929A8
S1132430853010F40C94AB1A1092F72D1092F029F9
S11324401092EE2D10927D321092C1281092C22863
S11324501092C3281092C42820916B294091C1285E
S11324605091C2286091C3287091C428922F80E0B3
S1132470AA2797FDA095BA2F842B952BA62BB72BB3
S11324808093C1289093C228A093C328B093C428F2
S113249020916C298091C1289091C228A091C328D1
S11324A0B091C428822B8093C1289093C228A09312
S11324B0C328B093C428A091FC2DB091FD2D209188
S11324C0C1283091C2284091C3285091C4280E9449
S11324D080376093C1287093C2288093C328909357
S11324E0C4281092122E1092132E1092142E1092B1
S11324F0152E20916D294091122E5091132E60912A
S1132500142E7091152E922F80E0AA2797FDA09586
S1132510BA2F842B952BA62BB72B8093122E909336
S1132520132EA093142EB093152E20916E29809112
S1132530122E9091132EA091142EB091152E822B51
S11325408093122E9093132EA093142EB093152ED5
S11325502091122E3091132E4091142E5091152E4D
S113256060917132709172328091733290917432B1
S11325700E94433728E631E040E050E00E9465378E
S11325802093122E3093132E4093142E5093152E15
S113259040917F32509180326091813270918232C9
S11325A08091122E9091132EA091142EB091152E7D
S11325B0C090CB28D090CC28E090CD28F090CE28A5
S11325C040907F325090803260908132709082329D
S11325D00091122E1091132E2091142E3091152E4D
S11325E009831A832B833C838090CB289090CC283A
S11325F0A090CD28B090CE288A019B01080F191F06
S11326002A1F3B1FC901B8010E9456356D837E8382
S11326108F839887C701B6010E9456359B01AC0190
S11326206D817E818F8198850E94BB342BED3FE0C4
S113263049E450E40E946F360E94B8346B017C0177
S113264069817A818B819C81640D751D861D971D1E
S11326500E9456352B013C01C501B4010E94563538
S11326609B01AC01C301B2010E94BB342BED3FE0DE
S113267049E450E40E946F360E94D2364B015C015B
S11326806091C1287091C2288091C3289091C42878
S11326904090C1285090C2286090C3287090C428EC
S11326A020911F2E3091202E4091212E5091222EC8
S11326B029833A834B835C830E945635A701960194
S11326C00E946F360E94233509811A812B813C8137
S11326D0060F171F281F391F0093AC241093AD2435
S11326E02093AE243093AF24C090FE29D090FF29CC
S11326F0E090002AF090012AC301B2010E945635ED
S1132700A50194010E946F360E942335C60ED71E80
S1132710E81EF91EC092072ED092082EE092092ED0
S1132720F0920A2E80916A298093D92800E010E063
S1132730F801E752F74D608189E090E20E9443334B
S1132740882311F00F5F1F4F101611068CF710929B
S1132750592910925929FFC680916A29853009F0B8
S11327606EC080915929833008F4F5C61092F72D74
S113277081E080937D3280916B2988238CF4809151
S11327806B2990E09C01220F331F220F331F820F0D
S1132790931F805892408093772E9093782E10C088
S11327A080916B2990E09C01220F331F220F331F6D
S11327B0820F931F805892408093772E9093782EA7
S11327C080916C2988238CF480916C2990E09C0181
S11327D0220F331F220F331F820F931F8058924002
S11327E08093752E9093762E10C080916C2990E082
S11327F09C01220F331F220F331F820F931F805817
S113280092408093752E9093762E80916A298093BE
S1132810D92800E010E0F801E752F74D608189E023
S113282090E20E944333882311F00F5F1F4F10166C
S113283011068CF710925929109259298CC680914F
S11328406A29863009F056C080915929873008F4E6
S113285082C61092F72DE0E4F6E094814BE659E24B
S1132860DA018C916CE679E2DB012C918223892BCD
S113287084839481DA018C91DB012C9182278095E9
S11328808923848380916D2990E088589F4FE0E0EC
S1132890FBE080A791A780916E2990E088589F4F14
S11328A082A793A780916F2990E088589F4F84A7AF
S11328B095A78091702990E088589F4F86A797A785
S11328C080916A298093D92800E010E0F801E7524A
S11328D0F74D608189E090E20E944333882311F030
S11328E00F5F1F4F101611068CF710925929109282
S11328F0592931C680916A29873009F07DC18091B8
S11329005929873008F427C61092F72D80916B2936
S11329108F3F29F480916C298F3F09F46DC0109288
S11329201F2E1092202E1092212E1092222E2091D2
S11329306B2940911F2E5091202E6091212E709171
S1132940222E922F80E0AA2797FDA095BA2F842BE0
S1132950952BA62BB72B80931F2E9093202EA093FC
S1132960212EB093222E20916C2980911F2E9091BC
S1132970202EA091212EB091222E822B80931F2EE7
S11329809093202EA093212EB093222EA091FC2D63
S1132990B091FD2D20911F2E3091202E4091212E9B
S11329A05091222E0E94803760931F2E7093202E08
S11329B08093212E9093222E80911F2E9091202E71
S11329C0A091212EB091222E8093AC249093AD241B
S11329D0A093AE24B093AF2480911F2E9091202E0B
S11329E0A091212EB091222E80932D2E90932E2EE5
S11329F0A0932F2EB093302E80916D298F3F29F410
S1132A0080916E298F3F09F46DC01092FE291092B7
S1132A10FF291092002A1092012A20916D294091D9
S1132A20FE295091FF296091002A7091012A922F6A
S1132A3080E0AA2797FDA095BA2F842B952BA62B6F
S1132A40B72B8093FE299093FF29A093002AB0937B
S1132A50012A20916E298091FE299091FF29A0914D
S1132A60002AB091012A822B8093FE299093FF299A
S1132A70A093002AB093012AA091FC2DB091FD2DC2
S1132A802091072E3091082E4091092E50910A2E44
S1132A900E9480376093FE297093FF298093002A57
S1132AA09093012A8091FE299091FF29A091002AF8
S1132AB0B091012A8093072E9093082EA093092E9B
S1132AC0B0930A2E8091FE299091FF29A091002AAB
S1132AD0B091012A80936C2E90936D2EA0936E2E4C
S1132AE0B0936F2E80916F298F3F29F480917029C4
S1132AF08F3F09F467C010927F3210928032109297
S1132B0081321092823220916F2940917F3250910C
S1132B1080326091813270918232922F80E0AA27B4
S1132B2097FDA095BA2F842B952BA62BB72B8093BA
S1132B307F3290938032A0938132B093823220917D
S1132B40702980917F3290918032A0918132B0912E
S1132B508232822B80937F3290938032A093813291
S1132B60B093823220917F32309180324091813211
S1132B7050918232609171327091723280917332CD
S1132B80909174320E94433728E631E040E050E0EF
S1132B900E94653720937F32309380324093813294
S1132BA05093823280917F3290918032A091813211
S1132BB0B09182328093C8249093C924A093CA24EC
S1132BC0B093CB2480916A298093D92800E010E047
S1132BD0F801E752F74D608189E090E20E944333A7
S1132BE0882311F00F5F1F4F101611068CF71092F7
S1132BF0592910925929AFC480916A298830D9F58E
S1132C0080915929833008F4A6C41092F72D80913D
S1132C106B29813039F48093EE2D1092772E109227
S1132C20782E02C01092EE2D80916C29813039F4F7
S1132C308093F0291092752E1092762E02C0109275
S1132C40F02980916A298093D92800E010E0F801E6
S1132C50E752F74D608189E090E20E944333882374
S1132C6011F00F5F1F4F101611068CF7109259299F
S1132C701092592970C480916A29893009F003C1DE
S1132C8080915929863008F466C41092F72D109269
S1132C906229109263291092642910926529209167
S1132CA06C298091622990916329A0916429B09143
S1132CB06529B22B8093622990936329A093642998
S1132CC0B093652920916D2980916229909163299F
S1132CD0A0916429B0916529A22B809362299093D5
S1132CE06329A0936429B093652920916E2980916A
S1132CF0622990916329A0916429B0916529922B4E
S1132D008093622990936329A0936429B0936529E1
S1132D1020916F298091622990916329A09164295F
S1132D20B0916529822B8093622990936329A093A3
S1132D306429B093652980916B298130B1F4809125
S1132D40622990916329A0916429B0916529FC01BD
S1132D5080819181A281B3818093DD281092DC2847
S1132D601092DB281092DA2874C080916B2982308B
S1132D7031F58091622990916329A0916429B091E1
S1132D806529FC0180819181A281B3818093DD2832
S1132D908091622990916329A0916429B091652959
S1132DA00196A11DB11DFC0180819181A281B38195
S1132DB08093DC281092DB281092DA284AC0809194
S1132DC06B29843009F045C0809162299091632970
S1132DD0A0916429B0916529FC0180819181A2812F
S1132DE0B3818093DD288091622990916329A09119
S1132DF06429B09165290196A11DB11DFC01808152
S1132E009181A281B3818093DC2880916229909181
S1132E106329A0916429B09165290296A11DB11D71
S1132E20FC0180819181A281B3818093DB28809110
S1132E30622990916329A0916429B0916529039630
S1132E40A11DB11DFC0180819181A281B381809378
S1132E50DA2880916A298093D92800E010E0F801EB
S1132E60E752F74D608189E090E20E944333882362
S1132E7011F00F5F1F4F053011058CF31092592983
S1132E801092592968C380916A298A3009F08EC149
S1132E90809159298A3008F45EC31092F72D10925C
S1132EA06229109263291092642910926529209155
S1132EB06C298091622990916329A0916429B09131
S1132EC06529B22B8093622990936329A093642986
S1132ED0B093652920916D2980916229909163298D
S1132EE0A0916429B0916529A22B809362299093C3
S1132EF06329A0936429B093652920916E29809158
S1132F00622990916329A0916429B0916529922B3B
S1132F108093622990936329A0936429B0936529CF
S1132F2020916F298091622990916329A09164294D
S1132F30B0916529822B8093622990936329A09391
S1132F406429B093652980916B29843009F097C076
S1132F508091622990916329A0916429B091652997
S1132F60FC018091732990E0A0E0B0E0808391831C
S1132F70A283B3838091622990916329A0916429EB
S1132F80B09165290196A11DB11DFC0180917229A2
S1132F9090E0A0E0B0E080839183A283B38380912A
S1132FA0622990916329A0916429B09165290296C0
S1132FB0A11DB11DFC018091712990E0A0E0B0E059
S1132FC080839183A283B383809162299091632942
S1132FD0A0916429B09165290396A11DB11DFC013E
S1132FE08091702990E0A0E0B0E080839183A28377
S1132FF0B3838091622990916329A0916429B0914F
S113300065290396A11DB11DFC0180819181A281D6
S1133010B3818093DA288091622990916329A091E9
S11330206429B09165290296A11DB11DFC0180811E
S11330309181A281B3818093DB2880916229909150
S11330406329A0916429B09165290196A11DB11D40
S1133050FC0180819181A281B3818093DC288091DD
S1133060622990916329A0916429B0916529FC019A
S113307080819181A281B3818093DD287DC080917C
S11330806B29823009F04DC08091622990916329A7
S1133090A0916429B0916529FC018091732990E085
S11330A0A0E0B0E080839183A283B38380916229FE
S11330B090916329A0916429B09165290196A11D7D
S11330C0B11DFC018091722990E0A0E0B0E0808302
S11330D09183A283B3831092DA281092DB28809123
S11330E0622990916329A0916429B0916529019680
S11330F0A11DB11DFC0180819181A281B3818093C6
S1133100DC288091622990916329A0916429B0916F
S11331106529FC0180819181A281B3818093DD289E
S11331202BC080916B29813039F58091622990916F
S11331306329A0916429B0916529FC0180917329C8
S113314090E0A0E0B0E080839183A283B3831092E7
S1133150DA281092DB281092DC2880916229909161
S11331606329A0916429B0916529FC018081918132
S1133170A281B3818093DD2880916A298093D92824
S113318000E010E0F801E752F74D608189E090E239
S11331900E944333882311F00F5F1F4F0530110540
S11331A08CF31092592910925929D5C180916A291A
S11331B08B3009F044C180915929873008F4CBC180
S11331C01092F72D80916B29813009F05CC08091B9
S11331D06C2980936E3280916D2980937E32109297
S11331E0F6291092F7291092F8291092F9292091C2
S11331F06E298091F6299091F729A091F829B09130
S1133200F929B22B8093F6299093F729A093F829F2
S1133210B093F92920916F298091F6299091F7298B
S1133220A091F829B091F929A22B8093F6299093C3
S1133230F729A093F829B093F92920917029809156
S1133240F6299091F729A091F829B091F929922BA8
S11332508093F6299093F729A093F829B093F9293C
S1133260209171298091F6299091F729A091F8294C
S1133270B091F929822B8093F6299093F729A09392
S1133280F829B093F92980916B29823009F05CC048
S113329080916C298093792E80916D2980935C2E86
S11332A01092BA241092BB241092BC241092BD2414
S11332B020916E298091BA249091BB24A091BC24C2
S11332C0B091BD24B22B8093BA249093BB24A093D5
S11332D0BC24B093BD2420916F298091BA2490918D
S11332E0BB24A091BC24B091BD24A22B8093BA240A
S11332F09093BB24A093BC24B093BD242091702947
S11333008091BA249091BB24A091BC24B091BD2497
S1133310922B8093BA249093BB24A093BC24B093A3
S1133320BD24209171298091BA249091BB24A0914D
S1133330BC24B091BD24822B8093BA249093BB24E7
S1133340A093BC24B093BD2480916B29833009F0F1
S11333505CC080916C2980930D2E80916D2980939F
S1133360CE2410923C2E10923D2E10923E2E10929E
S11333703F2E20916E2980913C2E90913D2EA0915C
S11333803E2EB0913F2EB22B80933C2E90933D2E37
S1133390A0933E2EB0933F2E20916F2980913C2E16
S11333A090913D2EA0913E2EB0913F2EA22B809362
S11333B03C2E90933D2EA0933E2EB0933F2E209111
S11333C0702980913C2E90913D2EA0913E2EB0917B
S11333D03F2E922B80933C2E90933D2EA0933E2E15
S11333E0B0933F2E2091712980913C2E90913D2ED7
S11333F0A0913E2EB0913F2E822B80933C2E909331
S11334003D2EA0933E2EB0933F2E80916A29809347
S1133410D92800E010E0F801E752F74D608189E017
S113342090E20E944333882311F00F5F1F4F101660
S113343011068CF710925929109259298CC0809149
S11334406A298C3009F087C080915929823008F4A8
S113345082C01092F72D80916B298130F9F420E01D
S113346030E080E090E0FC01EE0FFF1FEE5FF54DD1
S113347040815181452F550F550BD901A752B74DA6
S11334804C9340815181F901E652F74D40832E5F00
S11334903F4F01968F37910531F75AC080916B29C0
S11334A08230F9F420E030E080E090E0FC01EE0F9F
S11334B0FF1FEA57F14D40815181452F550F550BA0
S11334C0D901A752B74D4C9340815181F901E6527D
S11334D0F74D40832E5F3F4F01968F37910531F7AB
S11334E037C080916B29833099F520E030E080E08B
S11334F090E0FC01EE0FFF1FED52FB4D4081518126
S1133500452F550F550BD901A752B74D4C93408108
S11335105181F901E652F74D40832E5F3F4F0196EA
S11335208F37910531F714C0F801E752F74D6081E8
S113353089E090E20E944333882311F00F5F1F4F0C
S11335400E3F11058CF3109259291092592903C08A
S113355000E010E0E9CF2896CDBFDEBFDF91CF9128
S1133560FF91EF91BF91AF919F918F917F916F9157
S11335705F914F913F912F911F910F91FF90EF9089
S1133580DF90CF90BF90AF909F908F907F906F907F
S11335905F904F900F900BBE0F900ABE0F9009BE24
S11335A00F9008BE0F900FBE0F901F9018951F929A
S11335B00F920FB60F92112408B60F9218BE09B6D7
S11335C00F9219BE0AB60F921ABE0BB60F921BBE0B
S11335D04F925F926F927F928F929F92AF92BF921F
S11335E0CF92DF92EF92FF920F931F932F933F930B
S11335F04F935F936F937F938F939F93AF93BF93F7
S1133600EF93FF93CF93DF9300D01F92CDB7DEB734
S113361080E991E20E94703380913B2E082F10E0E4
S113362080E991E20E946233F801E659F64D808305
S113363080913B2E8F5F80933B2E80913B2E88237D
S113364019F081E08093F72D80916A29813009F087
S1133650FEC080913B2E813009F0ACC71092F72D4B
S113366080916A298093D92860911F2E7091202E11
S11336708091212E9091222E2091FC2D3091FD2DB0
S113368040E050E00E946537BB2757FDBA95A52F4F
S1133690942F832F8093DA2860911F2E7091202E0F
S11336A08091212E9091222E2091FC2D3091FD2D80
S11336B040E050E00E9465372093DB286091FE29AA
S11336C07091FF298091002A9091012A2091FC2D6C
S11336D03091FD2D40E050E00E946537BB2757FD37
S11336E0BA95A52F942F832F8093DC286091FE290F
S11336F07091FF298091002A9091012A2091FC2D3C
S11337003091FD2D40E050E00E9465372093DD2884
S113371020917F32309180324091813250918232B7
S1133720C0907132D0907232E0907332F090743263
S1133730A8E6B1E00E948037A70196010E94653790
S1133740BB2757FDBA95A52F942F832F8093DE288E
S113375020917F3230918032409181325091823277
S1133760C0907132D0907232E0907332F090743223
S1133770A8E6B1E00E948037A70196010E94653750
S11337802093DF2860910E2E70910F2E8091102EC1
S11337909091112E2091FC2D3091FD2D40E050E0B0
S11337A00E946537BB2757FDBA95A52F942F832F09
S11337B08093E02860910E2E70910F2E8091102E30
S11337C09091112E2091FC2D3091FD2D40E050E080
S11337D00E9465372093E128809106208093E22897
S11337E080919E2490919F248093E3288091BE240D
S11337F09091BF248093E4286091562E80E292E059
S11338000E9447018093E5286091562E88E292E059
S11338100E9447018093E628E0E2F6E080858093E9
S1133820E72800E010E0F801E752F74D608180E9F5
S113383091E20E944333882311F00F5F1F4F0F3032
S113384011058CF310923B2E10923B2EB3C680913F
S11338506A29823009F0BFC080913B2E853008F47C
S1133860A9C61092F72D1092F0291092EE2D109205
S11338707D321092AC241092AD241092AE2410929A
S1133880AF2420916B294091AC245091AD246091D8
S1133890AE247091AF24922F80E0AA2797FDA095C3
S11338A0BA2F842B952BA62BB72B8093AC24909303
S11338B0AD24A093AE24B093AF2420916C298091C1
S11338C0AC249091AD24A091AE24B091AF24822B6E
S11338D08093AC249093AD24A093AE24B093AF24F2
S11338E0A091FC2DB091FD2D2091AC243091AD24FC
S11338F04091AE245091AF240E9480376093AC2451
S11339007093AD248093AE249093AF241092072E2D
S11339101092082E1092092E10920A2E20916D29D1
S11339204091072E5091082E6091092E70910A2E15
S1133930922F80E0AA2797FDA095BA2F842B952B70
S1133940A62BB72B8093072E9093082EA093092EB5
S1133950B0930A2E20916E298091072E9091082E03
S1133960A091092EB0910A2E822B8093072E90935A
S1133970082EA093092EB0930A2EA091FC2DB0918D
S1133980FD2D2091072E3091082E4091092E509143
S11339900A2E0E9480376093072E7093082E80931E
S11339A0092E90930A2E80916A298093D92800E0E9
S11339B010E0F801E752F74D608180E991E20E943E
S11339C04333882311F00F5F1F4F101611068CF735
S11339D010923B2EEFC580916A29833009F0E3C130
S11339E080913B2E8B3008F4E5C51092F72D809121
S11339F06B298F3F29F480916C298F3F09F453C0C0
S1133A001092F0291092EE2D10927D321092AC2477
S1133A101092AD241092AE241092AF2420916B2901
S1133A204091AC245091AD246091AE247091AF24A8
S1133A30922F80E0AA2797FDA095BA2F842B952B6F
S1133A40A62BB72B8093AC249093AD24A093AE24E3
S1133A50B093AF2420916C298091AC249091AD2433
S1133A60A091AE24B091AF24822B8093AC24909388
S1133A70AD24A093AE24B093AF24A091FC2DB091BB
S1133A80FD2D2091AC243091AD244091AE24509171
S1133A90AF240E9480376093AC247093AD2480934C
S1133AA0AE249093AF2480916D298F3F29F48091A7
S1133AB06E298F3F09F453C01092F0291092EE2D15
S1133AC010927D321092072E1092082E1092092E19
S1133AD010920A2E20916D294091072E5091082EA4
S1133AE06091092E70910A2E922F80E0AA2797FDEB
S1133AF0A095BA2F842B952BA62BB72B8093072E3A
S1133B009093082EA093092EB0930A2E20916E292B
S1133B108091072E9091082EA091092EB0910A2E23
S1133B20822B8093072E9093082EA093092EB09396
S1133B300A2EA091FC2DB091FD2D2091072E3091DD
S1133B40082E4091092E50910A2E0E9480376093CE
S1133B50072E7093082E8093092E90930A2E80913D
S1133B606F298F3F29F4809170298F3F09F458C041
S1133B701092002010920120109202201092032033
S1133B8020916F29409100205091012060910220E2
S1133B9070910320922F80E0AA2797FDA095BA2F59
S1133BA0842B952BA62BB72B809300209093012078
S1133BB0A0930220B09303202091702980910020CB
S1133BC090910120A0910220B0910320822B809338
S1133BD0002090930120A0930220B0930320209111
S1133BE000203091012040910220509103206091E7
S1133BF071327091723280917332909174320E945A
S1133C00433728E631E040E050E00E9465372093D6
S1133C10002030930120409302205093032078C069
S1133C20809171298F3F29F4809172298F3F09F483
S1133C3064C0109200201092012010920220109271
S1133C40032020917129409100205091012060911E
S1133C50022070910320922F80E0AA2797FDA0955F
S1133C60BA2F842B952BA62BB72B809300209093EF
S1133C700120A0930220B093032020917229809107
S1133C80002090910120A0910220B0910320822B6A
S1133C908093002090930120A0930220B0930320EE
S1133CA02091002030910120409102205091032066
S1133CB0609171327091723280917332909174324A
S1133CC0C0907F32D0908032E0908132F090823286
S1133CD00E94433728E631E040E050E00E94653717
S1133CE0C20ED31EE41EF51EC0920020D092012005
S1133CF0E0920220F09203200BC08FEF9FEFDC01D3
S1133D008093002090930120A0930220B09303207D
S1133D10809173298F3FC9F08091732990E09C01B1
S1133D20220F331F820F931F80937B3290937C3238
S1133D3080917B3290917C3299230CF40196959575
S1133D40879580935D2E90935E2E809174298F3F8A
S1133D5021F08091742980935A291092542E109244
S1133D60552E1092F52D1092F62D10925B2910927B
S1133D70C22480916A298093D92800E010E0F801D8
S1133D80E752F74D608180E991E20E944333882332
S1133D9011F00F5F1F4F101611068CF710923B2E77
S1133DA010923B2E07C480916A29843009F075C1B2
S1133DB080913B2E853008F4FDC31092F72D1092AC
S1133DC0F0291092EE2D10927D321092C12810929B
S1133DD0C2281092C3281092C42820916B294091C4
S1133DE0C1285091C2286091C3287091C428922F91
S1133DF080E0AA2797FDA095BA2F842B952BA62B9C
S1133E00B72B8093C1289093C228A093C328B09362
S1133E10C42820916C298091C1289091C228A09136
S1133E20C328B091C428822B8093C1289093C228C0
S1133E30A093C328B093C428A091FC2DB091FD2D6C
S1133E402091C1283091C2284091C3285091C428A0
S1133E500E9480376093C1287093C2288093C3283E
S1133E609093C4281092122E1092132E1092142E96
S1133E701092152E20916D294091122E5091132EDF
S1133E806091142E7091152E922F80E0AA2797FD31
S1133E90A095BA2F842B952BA62BB72B8093122E8B
S1133EA09093132EA093142EB093152E20916E2967
S1133EB08091122E9091132EA091142EB091152E54
S1133EC0822B8093122E9093132EA093142EB093D2
S1133ED0152E2091122E3091132E4091142E5091B4
S1133EE0152E60917132709172328091733290917B
S1133EF074320E94433728E631E040E050E00E94EB
S1133F0065372093122E3093132E4093142E509322
S1133F10152EC0907F32D0908032E0908132F090A4
S1133F2082328091122E9091132EA091142EB09172
S1133F30152E2091CB283091CC284091CD2850913A
S1133F40CE28BC01CD016C0D7D1D8E1D9F1D0E94D0
S1133F506537CA01B9010E9456352BED3FE049E4AB
S1133F6050E40E946F360E94B83469837A838B834D
S1133F709C83C0907F32D0908032E0908132F09068
S1133F8082328091122E9091132EA091142EB09112
S1133F90152E2091CB283091CC284091CD285091DA
S1133FA0CE28BC01CD016C0D7D1D8E1D9F1D0E9470
S1133FB06537CA01B9010E9456352BED3FE049E44B
S1133FC050E40E946F360E94D2364B015C0160912E
S1133FD0C1287091C2288091C3289091C428409030
S1133FE0C1285090C2286090C3287090C428C09003
S1133FF01F2ED090202EE090212EF090222E0E9491
S1134000563529813A814B815C810E946F360E942A
S11340102335C60ED71EE81EF91EC092AC24D092DA
S1134020AD24E092AE24F092AF24C090FE29D0904B
S1134030FF29E090002AF090012AC301B2010E94F6
S11340405635A50194010E946F360E942335C60E91
S1134050D71EE81EF91EC092072ED092082EE092B9
S1134060092EF0920A2E80916A298093D92800E0C3
S113407010E0F801E752F74D608180E991E20E9477
S11340804333882311F00F5F1F4F101611068CF76E
S113409010923B2E10923B2E8DC280916A2985305E
S11340A009F06EC080913B2E833008F483C21092D5
S11340B0F72D81E080937D3280916B2988238CF4E5
S11340C080916B2990E09C01220F331F220F331F34
S11340D0820F931F805892408093772E9093782E6E
S11340E010C080916B2990E09C01220F331F220F96
S11340F0331F820F931F805892408093772E9093A2
S1134100782E80916C2988238CF480916C2990E01E
S11341109C01220F331F220F331F820F931F8058DD
S113412092408093752E9093762E10C080916C29C6
S113413090E09C01220F331F220F331F820F931F25
S1134140805892408093752E9093762E80916A29A0
S11341508093D92800E010E0F801E752F74D608120
S113416080E991E20E944333882311F00F5F1F4FCF
S1134170101611068CF710923B2E10923B2E1AC289
S113418080916A29863009F056C080913B2E873091
S113419008F410C21092F72DE0E4F6E094814BE6A7
S11341A059E2DA018C916CE679E2DB012C918223ED
S11341B0892B84839481DA018C91DB012C918227F1
S11341C080958923848380916D2990E088589F4F3E
S11341D0E0E0FBE080A791A780916E2990E08858E9
S11341E09F4F82A793A780916F2990E088589F4F93
S11341F084A795A78091702990E088589F4F86A73F
S113420097A780916A298093D92800E010E0F801EB
S1134210E752F74D608180E991E20E94433388239D
S113422011F00F5F1F4F101611068CF710923B2EE2
S113423010923B2EBFC180916A29873009F07DC15D
S113424080913B2E873008F4B5C11092F72D8091F0
S11342506B298F3F29F480916C298F3F09F46DC03D
S113426010921F2E1092202E1092212E1092222E88
S113427020916B2940911F2E5091202E6091212E68
S11342807091222E922F80E0AA2797FDA095BA2F35
S1134290842B952BA62BB72B80931F2E9093202E27
S11342A0A093212EB093222E20916C2980911F2E51
S11342B09091202EA091212EB091222E822B8093BA
S11342C01F2E9093202EA093212EB093222EA091E6
S11342D0FC2DB091FD2D20911F2E3091202E409168
S11342E0212E5091222E0E94803760931F2E7093AE
S11342F0202E8093212E9093222E80911F2E909118
S1134300202EA091212EB091222E8093AC24909344
S1134310AD24A093AE24B093AF2480911F2E90912E
S1134320202EA091212EB091222E80932D2E909399
S11343302E2EA0932F2EB093302E80916D298F3F77
S113434029F480916E298F3F09F46DC01092FE29E3
S11343501092FF291092002A1092012A20916D29AF
S11343604091FE295091FF296091002A7091012A01
S1134370922F80E0AA2797FDA095BA2F842B952B26
S1134380A62BB72B8093FE299093FF29A093002A94
S1134390B093012A20916E298091FE299091FF29E2
S11343A0A091002AB091012A822B8093FE29909338
S11343B0FF29A093002AB093012AA091FC2DB0916B
S11343C0FD2D2091072E3091082E4091092E5091F9
S11343D00A2E0E9480376093FE297093FF298093F0
S11343E0002A9093012A8091FE299091FF29A0919F
S11343F0002AB091012A8093072E9093082EA0934F
S1134400092EB0930A2E8091FE299091FF29A09144
S1134410002AB091012A80936C2E90936D2EA09364
S11344206E2EB0936F2E80916F298F3F29F4809167
S113443070298F3F09F467C010927F321092803246
S1134440109281321092823220916F2940917F32F2
S1134450509180326091813270918232922F80E04B
S1134460AA2797FDA095BA2F842B952BA62BB72BA3
S113447080937F3290938032A0938132B0938232C2
S11344802091702980917F3290918032A091813265
S1134490B0918232822B80937F3290938032A093AA
S11344A08132B093823220917F32309180324091B8
S11344B08132509182326091713270917232809166
S11344C07332909174320E94433728E631E040E021
S11344D050E00E94653720937F32309380324093BE
S11344E081325093823280917F3290918032A091B8
S11344F08132B09182328093C8249093C924A093CE
S1134500CA24B093CB2480916A298093D92800E0EF
S113451010E0F801E752F74D608180E991E20E94D2
S11345204333882311F00F5F1F4F101611068CF7C9
S113453010923B2E10923B2E3DC080916A29883008
S1134540C9F580913B2E8330A8F11092F72D80910C
S11345506B29813039F48093EE2D1092772E1092CE
S1134560782E02C01092EE2D80916C29813039F49E
S11345708093F0291092752E1092762E02C010921C
S1134580F02980916A298093D92800E010E0F8018D
S1134590E752F74D608180E991E20E94433388231A
S11345A011F00F5F1F4F101611068CF710923B2E5F
S11345B010923B2E2496CDBFDEBFDF91CF91FF91A9
S11345C0EF91BF91AF919F918F917F916F915F9187
S11345D04F913F912F911F910F91FF90EF90DF909A
S11345E0CF90BF90AF909F908F907F906F905F908F
S11345F04F900F900BBE0F900ABE0F9009BE0F9004
S113460008BE0F900FBE0F901F9018951F920F9227
S11346100FB60F92112408B60F9218BE0BB60F9264
S11346201BBE8F93EF93FF93E0E0F9E0818580FD5B
S113463003C081E08093F32DE0E0F9E0818580FF01
S113464003C082E08093F32DFF91EF918F910F903F
S11346500BBE0F9008BE0F900FBE0F901F901895C1
S11346601F920F920FB60F92112408B60F9218BE24
S11346700BB60F921BBE8F93EF93FF93E0E4F9E028
S1134680818580FD03C081E080931E2EE0E4F9E083
S1134690818580FF03C082E080931E2EFF91EF91FD
S11346A08F910F900BBE0F9008BE0F900FBE0F900E
S11346B01F9018951F920F920FB60F92112408B6EF
S11346C00F9218BE09B60F9219BE0BB60F921BBEFD
S11346D02F933F934F935F936F937F938F939F9306
S11346E0AF93BF93EF93FF9387E193E20E948E33DE
S11346F0FF91EF91BF91AF919F918F917F916F91B6
S11347005F914F913F912F910F900BBE0F9009BE77
S11347100F9008BE0F900FBE0F901F9018951F9218
S11347200F920FB60F92112408B60F9218BE09B655
S11347300F9219BE0BB60F921BBE2F933F934F934C
S11347405F936F937F938F939F93AF93BF93EF93F5
S1134750FF9389E090E20E948E33FF91EF91BF9125
S1134760AF919F918F917F916F915F914F913F9105
S11347702F910F900BBE0F9009BE0F9008BE0F90A3
S11347800FBE0F901F9018951F920F920FB60F92A5
S1134790112408B60F9218BE09B60F9219BE0BB6B3
S11347A00F921BBE2F933F934F935F936F937F930F
S11347B08F939F93AF93BF93EF93FF9380E991E21D
S11347C00E948E33FF91EF91BF91AF919F918F9192
S11347D07F916F915F914F913F912F910F900BBEFD
S11347E00F9009BE0F9008BE0F900FBE0F901F9040
S11347F018951F920F920FB60F92112408B60F92BC
S113480018BE09B60F9219BE0BB60F921BBE2F939A
S11348103F934F935F936F937F938F939F93AF9344
S1134820BF93EF93FF938FEFE0E4F6E087838091EB
S1134830462E9091472E8093042E9093052E8091BE
S1134840042E9091052E1816190634F46BE289E0B3
S113485090E20E94433311C08091042E9091052E62
S1134860992334F46DE289E090E20E94433305C059
S113487060E289E090E20E9443338091042E90919B
S1134880052E99235CF48091042E9091052E919528
S1134890819591098093042E9093052E8091042E86
S11348A09091052E2AE030E0B9010E9452378063CE
S11348B08093402E9093412E8091042E9091052E4A
S11348C0B9010E9452376093042E7093052E809193
S11348D0042E9091052EB9010E9452378063809373
S11348E06F32909370328091042E9091052EB9010D
S11348F00E9452376093042E7093052E8091042EEB
S11349009091052EB9010E94523780638093332E13
S11349109093342E8091042E9091052EB9010E941B
S113492052376093042E7093052E8091042E90913B
S1134930052EB9010E94523780638093D328909347
S1134940D4288091042E9091052EB9010E945237EB
S11349506093042E7093052E8091042E9091052E61
S1134960B9010E94523780638093BF289093C02876
S11349706091BF287091C02889E090E20E9443337F
S11349806091D3287091D42889E090E20E94433347
S11349906091332E7091342E89E090E20E9443336B
S11349A060916F327091703289E090E20E944333DB
S11349B06091402E7091412E89E090E20E94433331
S11349C060E289E090E20E9443336AE389E090E286
S11349D00E94433360E289E090E20E944333809175
S11349E05F2E9091602E8093042E9093052E8091DB
S11349F0042E9091052E1816190634F46BE289E002
S1134A0090E20E94433311C08091042E9091052EB0
S1134A10992334F46DE289E090E20E94433305C0A7
S1134A2060E289E090E20E9443338091042E9091E9
S1134A30052E99235CF48091042E9091052E919576
S1134A40819591098093042E9093052E8091042ED4
S1134A509091052E2AE030E0B9010E94523780631C
S1134A608093402E9093412E8091042E9091052E98
S1134A70B9010E9452376093042E7093052E8091E1
S1134A80042E9091052EB9010E94523780638093C1
S1134A906F32909370328091042E9091052EB9015B
S1134AA00E9452376093042E7093052E8091042E39
S1134AB09091052EB9010E94523780638093332E62
S1134AC09093342E8091042E9091052EB9010E946A
S1134AD052376093042E7093052E8091042E90918A
S1134AE0052EB9010E94523780638093D328909396
S1134AF0D4288091042E9091052EB9010E9452373A
S1134B006093042E7093052E8091042E9091052EAF
S1134B10B9010E94523780638093BF289093C028C4
S1134B206091BF287091C02889E090E20E944333CD
S1134B306091D3287091D42889E090E20E94433395
S1134B406091332E7091342E89E090E20E944333B9
S1134B5060916F327091703289E090E20E94433329
S1134B606091402E7091412E89E090E20E9443337F
S1134B706DE089E090E20E944333FF91EF91BF9191
S1134B80AF919F918F917F916F915F914F913F91E1
S1134B902F910F900BBE0F9009BE0F9008BE0F907F
S1134BA00FBE0F901F9018958F929F92AF92BF9255
S1134BB0CF92DF92EF92FF92CF93DF93CDB7DEB720
S1134BC02897CDBFDEBFE0E4F9E080A191A18093F6
S1134BD0793290937A32E0E0F9E080A191A1A0E0EB
S1134BE0B0E080931A2E90931B2EA0931C2EB093AA
S1134BF01D2E8091F32D811117C040911A2E5091D2
S1134C001B2E60911C2E70911D2E8091EA2990918B
S1134C10EB29A091EC29B091ED29481B590B409345
S1134C20BE245093BF243BC08091F32D8130C9F43E
S1134C304091EA295091EB296091EC297091ED297A
S1134C4080911A2E90911B2EA0911C2EB0911D2E96
S1134C5040955095840F951F8093BE249093BF2454
S1134C601CC08091F32D8230C1F440911A2E5091D2
S1134C701B2E60911C2E70911D2E8091EA2990911B
S1134C80EB29A091EC29B091ED294F5F5F4F481BB0
S1134C90590B4093BE245093BF241092F32D80915E
S1134CA01E2E81110FC08091793290917A32209119
S1134CB0292E30912A2E821B930B80939E2490934D
S1134CC09F242AC080911E2E813089F48091292E40
S1134CD090912A2E2091793230917A328095909554
S1134CE0820F931F80939E2490939F2413C08091DE
S1134CF01E2E823079F48091793290917A3220910B
S1134D00292E30912A2E0196821B930B80939E2488
S1134D1090939F2410921E2E80911A2E90911B2EF8
S1134D20A0911C2EB0911D2E8093EA299093EB291B
S1134D30A093EC29B093ED298091793290917A3245
S1134D408093292E90932A2E2091BE243091BF2443
S1134D5080919E2490919F24820F931F9195819519
S1134D6091098093EE299093EF298091BE2490912C
S1134D70BF2420919E2430919F24821B930B809307
S1134D808332909384328091833290918432409123
S1134D907F32509180326091813270918232AA27A1
S1134DA097FDA095BA2F840F951FA61FB71F809358
S1134DB07F3290938032A0938132B093823280917B
S1134DC0EE299091EF294091B2245091B32460913F
S1134DD0B4247091B524AA2797FDA095BA2F840F07
S1134DE0951FA61FB71F8093B2249093B324A0935A
S1134DF0B424B093B52440917F32509180326091B5
S1134E008132709182328091713290917232A0918C
S1134E107332B0917432481759076A077B07E4F07C
S1134E2080917F3290918032A0918132B091823210
S1134E304091713250917232609173327091743238
S1134E40841B950BA60BB70B80937F329093803213
S1134E50A0938132B093823280917F3290918032DC
S1134E60A0918132B0918232BB23E4F440917F322D
S1134E70509180326091813270918232809171328E
S1134E8090917232A0917332B0917432840F951F55
S1134E90A61FB71F80937F3290938032A0938132F4
S1134EA0B093823260917F327091803280918132EE
S1134EB090918232C090CB28D090CC28E090CD281D
S1134EC0F090CE280E9456354B015C01C701B60113
S1134ED00E9456359B01AC01C501B4010E94BB344C
S1134EE02BED3FE049E450E40E946F360E94B83451
S1134EF069837A838B839C8360917F327091803243
S1134F008091813290918232C090CB28D090CC286D
S1134F10E090CD28F090CE280E9456354B015C01DC
S1134F20C701B6010E9456359B01AC01C501B4010D
S1134F300E94BB342BED3FE049E450E40E946F36FD
S1134F400E94D2366D837E838F8398876091EE2989
S1134F507091EF29C980DA80EB80FC8080901F2E4D
S1134F609090202EA090212EB090222E882777FD9D
S1134F708095982F0E945635A70196010E946F369E
S1134F800E942335CB01AA2797FDA095BA2F880E3E
S1134F90991EAA1EBB1E80921F2E9092202EA092B4
S1134FA0212EB092222E6091EE297091EF29CD80AE
S1134FB0DE80EF80F8848090FE299090FF29A090F5
S1134FC0002AB090012A882777FD8095982F0E94A7
S1134FD05635A70196010E946F360E942335CB01F6
S1134FE0AA2797FDA095BA2F880E991EAA1EBB1E4C
S1134FF08092FE299092FF29A092002AB092012A61
S11350002896CDBFDEBFDF91CF91FF90EF90DF9068
S1135010CF90BF90AF909F908F9008954F925F92E2
S11350206F927F928F929F92AF92BF92CF92DF92B4
S1135030EF92FF920F931F93CF93DF9340912D2E06
S113504050912E2E60912F2E7091302E8091AC2491
S11350509091AD24A091AE24B091AF244817590784
S11350606A077B07A9F440916C2E50916D2E6091D4
S11350706E2E70916F2E8091072E9091082EA09124
S1135080092EB0910A2E481759076A077B0771F059
S11350908091C4249091C524A091C624B091C724C2
S11350A080932B2E90932C2E109206208091AC246A
S11350B09091AD24A091AE24B091AF2480932D2E75
S11350C090932E2EA0932F2EB093302E8091072EE6
S11350D09091082EA091092EB0910A2E80936C2EE7
S11350E090936D2EA0936E2EB0936F2E4091AC24AE
S11350F05091AD246091AE247091AF2480911F2E05
S11351009091202EA091212EB091222E8A019B01F4
S1135110081B190B2A0B3B0BC901B8010E94563519
S1135120C62ED72EE82EF92E4091072E5091082E28
S11351306091092E70910A2E8091FE299091FF2989
S1135140A091002AB091012A8A019B01081B190B26
S11351502A0B3B0BC901B8010E945635062F172FA5
S1135160D82FC92F2C2D3D2D4E2D5F2D6C2D7D2D2F
S11351708E2D9F2D0E946F366B017C01202F312FC5
S11351804D2F5C2F602F712F8D2F9C2F0E946F3617
S11351909B01AC01C701B6010E94EE330E94DC36CC
S11351A00E94233560930E2E70930F2E8093102E41
S11351B09093112E6091CF247091D0248091D124AA
S11351C09091D224C0900E2ED0900F2EE090102EED
S11351D0F090112E2AE030E040E050E00E94653764
S11351E02C153D054E055F050CF040C180910E2E37
S11351F090910F2EA091102EB091112E8093652EB8
S11352009093662EA093672EB093682E1092B224CA
S11352101092B3241092B4241092B5241092582EF4
S11352201092592E109206204091AC245091AD2436
S11352306091AE247091AF2480911F2E9091202E06
S1135240A091212EB091222E4090072E5090082E2E
S11352506090092E70900A2E8090FE299090FF296C
S1135260A090002AB090012A8A019B01081B190B07
S11352702A0B3B0BC901B8010E9456356B017C0116
S1135280C301B201681979098A099B090E9456353C
S1135290A70196010E9461346B017C016091CB28C7
S11352A07091CC288091CD289091CE280E945635BB
S11352B0A70196010E946F362BED3FE049E450E4CC
S11352C00E94BB340E9423356093C8247093C92480
S11352D08093CA249093CB2480915A29811173C05E
S11352E040917F325091803260918132709182324C
S11352F08091C8249091C924A091CA24B091CB2450
S11353008A019B01081B190B2A0B3B0BC901B8012D
S11353100E945635062F172FD82FC92F60917A2E49
S113532070917B2E80917C2E90917D2E0E9456351B
S11353309B01AC01602F712F8D2F9C2F0E9464362E
S11353401816ECF080917A2E90917B2EA0917C2EF1
S1135350B0917D2E9C01AD0166277727CB01621B9E
S1135360730B840B950B0E9456359B01AC01602F87
S1135370712F8D2F9C2F0E94B434882304F58FEF56
S11353808093742E8091C8249091C924A091CA243A
S1135390B091CB244091CB285091CC286091CD285A
S11353A07091CE28841B950BA60BB70B8093C82451
S11353B09093C924A093CA24B093CB242FC081E036
S11353C08093742E2BC080915A29813021F48FEF61
S11353D08093742E23C080915A298230F9F481E09D
S11353E08093742E8091C8249091C924A091CA24DA
S11353F0B091CB244091CB285091CC286091CD28FA
S11354007091CE28841B950BA60BB70B8093C824F0
S11354109093C924A093CA24B093CB248091C82428
S11354209091C924A091CA24B091CB24BB230CF041
S113543053C04091C8245091C9246091CA247091EA
S1135440CB248091713290917232A0917332B091D9
S11354507432840F951FA61FB71F8093C82490939E
S1135460C924A093CA24B093CB2436C08091582E6B
S11354709091592E8C32914078F1809106208111BF
S113548003C081E080930620809100209091012048
S1135490A0910220B09103208F3F9F4FAF4FBF4F89
S11354A0D9F08091002090910120A0910220B09128
S11354B003208093C8249093C924A093CA24B09352
S11354C0CB248FEF9FEFDC01809300209093012089
S11354D0A0930220B0930320DF91CF911F910F91ED
S11354E0FF90EF90DF90CF90BF90AF909F908F9000
S11354F07F906F905F904F9008954F925F926F925C
S11355007F928F929F92AF92BF92CF92DF92EF924F
S1135510FF920F931F93CF93DF93CDB7DEB72C97F2
S1135520CDBFDEBFA091742E2091652E3091662EE2
S11355304091672E5091682EC090B224D090B3242D
S1135540E090B424F090B524BB27A7FDB0950E9449
S11355508A37DC01CB018C199D09AE09BF09809300
S1135560482E9093492EA0934A2EB0934B2E8091AF
S1135570FA299091FB29A091FC29B091FD29409131
S1135580C7285091C8286091C9287091CA28841BE3
S1135590950BA60BB70B8093EF2D9093F02DA09352
S11355A0F12DB093F22D4091FE2D5091FF2D60917D
S11355B0002E7091012E8091482E9091492EA09139
S11355C04A2EB0914B2E840F951FA61FB71F8093B0
S11355D0FE2D9093FF2DA093002EB093012E809169
S11355E0FE2D9091FF2DA091002EB091012E893CAB
S11355F09105A105B1056CF088EC90E0A0E0B0E065
S11356008093FE2D9093FF2DA093002EB093012E36
S113561019C08091FE2D9091FF2DA091002EB09184
S1135620012E88339F4FAF4FBF4F64F488E39FEF41
S1135630AFEFBFEF8093FE2D9093FF2DA093002E2C
S1135640B093012E6091482E7091492E80914A2E7C
S113565090914B2E8090662990906729A09068299C
S1135660B09069292091EF2D3091F02D4091F12DCA
S11356705091F22D29833A834B835C834090BB285D
S11356805090BC286090BD287090BE28C090FE2D1C
S1135690D090FF2DE090002EF090012E20917532D5
S11356A03091763240917732509178322D833E8317
S11356B04F8358872091CF243091D0244091D12416
S11356C05091D22429873A874B875C8700917B329B
S11356D010917C320E945635A50194010E946F36C8
S11356E04B015C0169817A818B819C810E945635D2
S11356F0A30192010E946F369B01AC01C501B40164
S11357000E94EE334B015C01C701B6010E9456357D
S11357102D813E814F8158850E946F369B01AC01DB
S1135720C501B4010E94EE336B017C0169857A8561
S11357308B859C85959587957795679598014427E2
S113574037FD4095542F0E946537CA01B9010E9464
S113575056359B01AC01C701B6010E94BB340E94BF
S113576023356093FA297093FB298093FC29909345
S1135770FD294091B0245091B1248091FA2990914F
S1135780FB29A091FC29B091FD295195419551091E
S1135790662757FD6095762F84179507A607B707E8
S11357A09CF48091B0249091B124919581959109B4
S11357B0AA2797FDA095BA2F8093FA299093FB29E5
S11357C0A093FC29B093FD294091B0245091B124B9
S11357D08091FA299091FB29A091FC29B091FD298F
S11357E0662757FD6095762F481759076A077B0788
S11357F084F48091B0249091B124AA2797FDA095B8
S1135800BA2F8093FA299093FB29A093FC29B09393
S1135810FD298091FA299091FB29A091FC29B0914E
S1135820FD29BB230CF053C04091C7285091C828D0
S11358306091C9287091CA288091FA299091FB2916
S1135840A091FC29B091FD2984179507A607B707F5
S11358500CF08DC04091FA295091FB296091FC29EC
S11358607091FD298091C7289091C828A091C928DA
S1135870B091CA282091CC243091CD2455231CF416
S113588051954195510999231CF49195819591095C
S1135890481B590B2417350708F069C08091C728A5
S11358A09091C828A091C928B091CA282091CC24ED
S11358B03091CD24821B930BA109B1098093FA295D
S11358C09093FB29A093FC29B093FD2950C04091EB
S11358D0C7285091C8286091C9287091CA2880911E
S11358E0FA299091FB29A091FC29B091FD29481730
S11358F059076A077B07DCF54091FA295091FB2987
S11359006091FC297091FD298091C7289091C82845
S1135910A091C928B091CA282091CC243091CD24DB
S113592055231CF451954195510999231CF49195E3
S113593081959109481B590B24173507C0F4209110
S1135940CC243091CD248091C7289091C828A0916F
S1135950C928B091CA28820F931FA11DB11D80933D
S1135960FA299093FB29A093FC29B093FD298091F7
S1135970FA299091FB29A091FC29B091FD298093EB
S1135980C7289093C828A093C928B093CA282C96F6
S1135990CDBFDEBFDF91CF911F910F91FF90EF90AC
S11359A0DF90CF90BF90AF909F908F907F906F903B
S11359B05F904F9008954F925F926F927F928F9273
S11359C09F92AF92BF92CF92DF92EF92FF920F938A
S11359D01F93CF93DF93CDB7DEB72C97CDBFDEBF38
S11359E08091C8249091C924A091CA24B091CB2459
S11359F040917F3250918032609181327091823235
S1135A00841B950BA60BB70B8093702E9093712E6D
S1135A10A093722EB093732E8091702E9091712E5C
S1135A20A091722EB091732E4091EA2D5091EB2DDE
S1135A306091EC2D7091ED2D841B950BA60BB70B8B
S1135A408093372E9093382EA093392EB0933A2E0C
S1135A508091702E9091712EA091722EB091732E20
S1135A608093EA2D9093EB2DA093EC2DB093ED2D24
S1135A704091CB285091CC286091CD287091CE28AC
S1135A808091702E9091712EA091722EB091732EF0
S1135A9070956095509541955F4F6F4F7F4F841778
S1135AA09507A607B707ECF44091702E5091712E1C
S1135AB06091722E7091732E809171329091723236
S1135AC0A0917332B0917432840F951FA61FB71F33
S1135AD08093702E9093712EA093722EB093732E98
S1135AE031C04091702E5091712E6091722E709140
S1135AF0732E8091CB289091CC28A091CD28B09181
S1135B00CE2884179507A607B707E4F48091702E72
S1135B109091712EA091722EB091732E409171329A
S1135B20509172326091733270917432841B950B70
S1135B30A60BB70B8093702E9093712EA093722EA8
S1135B40B093732E4091232E5091242E6091252ED4
S1135B507091262E8091702E9091712EA091722EAC
S1135B60B091732E840F951FA61FB71F8093232E09
S1135B709093242EA093252EB093262E8091232E2D
S1135B809091242EA091252EB091262E893C91052A
S1135B90A105B1056CF088EC90E0A0E0B0E0809342
S1135BA0232E9093242EA093252EB093262E19C035
S1135BB08091232E9091242EA091252EB091262EF3
S1135BC088339F4FAF4FBF4F64F488E39FEFAFEF2D
S1135BD0BFEF8093232E9093242EA093252EB09371
S1135BE0262E6091CF247091D0248091D12490915D
S1135BF0D224C0900E2ED0900F2EE090102EF09054
S1135C00112E2AE030E040E050E00E9465372C1568
S1135C103D054E055F050CF049C04091702E509132
S1135C20712E6091722E7091732E20912B2E3091D3
S1135C302C2EDB01CA0177233CF488279927DC0149
S1135C40841B950BA60BB70BA901662757FD60951E
S1135C50762F481759076A077B07ACF41092B024D3
S1135C601092B1248091C4249091C524A091C6249B
S1135C70B091C72480932B2E90932C2E10926029E0
S1135C801092612913C080916029909161298C320E
S1135C90914060F0109260291092612980917B32CA
S1135CA090917C328093B0249093B1246091702EB3
S1135CB07091712E8091722E9091732E8090853206
S1135CC090908632A0908732B09088322091372EFF
S1135CD03091382E4091392E50913A2E29833A83AF
S1135CE04B835C834090A0245090A1246090A22414
