:100000001FC1000043C1000041C100003FC100000A
:100010003DC100003BC1000039C1000037C10000F4
:1000200035C1000033C1000031C100002FC1000004
:100030002DC100002BC1000029C1000027C1000014
:1000400025C1000023C1000021C100001FC1000024
:100050001DC100001BC1000019C1000017C1000034
:1000600015C100000C94D71A0C94C4230FC10000D2
:100070000DC100000BC1000009C1000007C1000054
:1000800005C1000003C100000C94F923FFC000006B
:10009000FDC00000FBC00000F9C00000F7C0000078
:1000A000F5C00000F3C00000F1C00000EFC0000088
:1000B000EDC00000EBC00000E9C00000E7C0000098
:1000C000E5C00000E3C00000E1C00000DFC00000A8
:1000D000DDC00000B9C30000D9C00000D7C00000D7
:1000E000D5C00000D3C0000096C400000C945A2371
:1000F000CDC000000C940E0E0C948F23C7C00000DE
:10010000C5C00000C3C00000C1C00000BFC00000E7
:10011000BDC00000BBC00000B9C00000B7C00000F7
:10012000B5C00000B3C00000B1C00000AFC0000007
:10013000ADC000000C940623A9C00000A7C00000B9
:10014000A5C00000A3C00000A1C000000C94302393
:100150009DC000009BC0000099C0000097C0000037
:1001600095C0000093C0000091C000008FC0000047
:100170008DC000008BC0000089C0000087C0000057
:1001800085C0000083C0000081C000007FC0000067
:100190007DC000007BC0000079C0000077C0000077
:1001A00075C0000073C0000071C000006FC0000087
:1001B0000C9461336BC000000C94423367C00000A4
:1001C00065C0000063C0000061C000005FC00000A7
:1001D0005DC000005BC0000059C0000057C00000B7
:1001E00055C0000053C0000051C000004FC00000C7
:1001F0004DC00000084AD73B3BCE016E84BCBFFD1A
:10020000C12F3D6C74319ABD56833DDA3D00C77FE6
:1002100011BED9E4BB4C3E916BAAAABE000000807F
:100220003F05A84CCDB2D44EB93836A9020C50B90E
:10023000918688083CA6AAAA2ABE000000803F003A
:1002400011241FBECFEFDFE3DEBFCDBF00E00CBF48
:1002500018BE19BE1ABE1BBE10E2A0E0B0E2E2EB6F
:10026000F1E700E00BBF02C007900D92A830B10784
:10027000D9F71BBE22E3A8E0B0E201C01D92AB3863
:10028000B207E1F70E94B7340C94D738B9CE462FA5
:1002900050E066230CF45F6F21E0FC01238324818E
:1002A0003581241B350B822F932F089521E0FC010B
:1002B00023838481861B0895FC01848191E09483CB
:1002C000AFEFB0E01197F1F700C00000848308950C
:1002D000CF93DF93EC018981897E806189838C8152
:1002E000887F81608C838A818F7C8A8388A1807ECD
:1002F000826088A319A2888181608883CE01DCDFB7
:1003000088A1806888A38BA180FFFDCF60E0CE012B
:100310008096CCDF98819E7F9883DF91CF9108955E
:100320008EBB1FBAEAECF1E082E080838EB31082CC
:100330000895CF93DF93EC01C11582E0D80741F413
:1003400080E2EEDF90E0E0E0F2E08487958705C090
:1003500084E2E6DF90E08C879D87DF91CF9108955E
:1003600084ED9AE2A1E0B0E08093D1249093D2246E
:10037000A093D324B093D42485E696E3A0E0B0E024
:100380008093733290937432A0937532B093763227
:100390006091D1247091D2248091D3249091D4245F
:1003A00028EE33E040E050E00E946A382093FE2DB2
:1003B0003093FF2D8091733290917432A0917532F9
:1003C000B0917632B595A795979587958093CD286E
:1003D0009093CE28A093CF28B093D02880917332E9
:1003E00090917432A0917532B0917632B595A795FF
:1003F00097958795B595A7959795879580937C2E2A
:1004000090937D2EA0937E2EB0937F2E8091733299
:1004100090917432A0917532B0917632689412F84E
:10042000B595A795979587951694D1F78093C6248F
:100430009093C724A093C824B093C92481E08093EB
:100440005C298CE291E080937D3290937E328091A2
:100450007D3290917E3299230CF401969595879583
:1004600080935F2E9093602E20E233E020930D2E38
:1004700030930E2E80917D3290917E328093B22403
:100480009093B3248091C6249091C724A091C8244E
:10049000B091C92480932D2E90932E2E20935C2E04
:1004A00030935D2E089580E090E0A0E6B0E4809364
:1004B000682990936929A0936A29B0936B2980E0F9
:1004C00090E0A0E8BFE38093773290937832A093D6
:1004D0007932B0937A3240E050E060EC70E44093BF
:1004E000BD285093BE286093BF287093C02840E079
:1004F00050E060EC7FE34093FA2D5093FB2D609326
:10050000FC2D7093FD2D40E050E060EE70E44093D0
:100510008732509388326093893270938A32809305
:10052000A8249093A924A093AA24B093AB2480E09C
:1005300090E0A0E3B1E48093A2249093A324A0933D
:10054000A424B093A5248AE999E9A9E9BEE380939C
:10055000D1289093D228A093D328B093D428109276
:10056000B8241092B9241092BA241092BB2410928D
:100570004E2E10924F2E1092502E1092512E82E03D
:1005800090E08093CE249093CF240895EF920F9320
:100590006894EE24E1F808E120E040E06FEF80E6A7
:1005A00096E00E944F32E0E6F6E08FEF8283868984
:1005B0008064868BE0E8F1E08EE6808399E09087A6
:1005C000A0E4B9E081E08C9328E613962C9313976E
:1005D00016962C9116972C7F216016962C932CE65C
:1005E00022839287E0E0F9E080838AE68383868134
:1005F0008C7F816086830F91EF900895CF93DF9376
:1006000080E092E096DE80E092E062DE8093582EF9
:10061000C0E0D2E08981897E846089838C81887F73
:100620008C838A818F7C8A83A0E2B2E08C91807E69
:1006300081608C93E8E2F2E08081807E816080833B
:1006400011961C9288E081838B818F7380648B83E9
:1006500088818160888380E092E02EDE89818860D5
:100660008983DF91CF910895E0EAF0E08281846090
:10067000828382818260828382818160828382819F
:10068000806882837894089582E080935000E0E54A
:10069000F0E0818181FFFDCF88ED84BFE0E4F0E0F0
:1006A00093E0918384BF81E080830895FF920F934C
:1006B0001F93CF93DF93C0E8D6E08881806888835A
:1006C00088818F7B888341E060EB7AE08BE090E269
:1006D0000E942334E0910B20F0910C2013E015834D
:1006E00083818F7C80618383A0EBBAE00F2EF5ECD1
:1006F000FF2EF02D1696FC9216970CEA17960C9387
:100700008481806184838481886084838881886017
:10071000888388818B7F888341E060EA7AE089E181
:1007200093E20E942334E0911923F0911A23158358
:1007300083818F7C80618383A0EABAE01696FC9265
:10074000169717960C9384818061848384818860D6
:100750008483E0E4F6E080818870808380818B6F01
:10076000808341E060EA78E082E991E20E942334EC
:10077000E0919221F0919321158383818F7C806198
:100780008383A0EAB8E08BE616968C93169780EBED
:1007900017968C93848180618483848188608483AC
:1007A000DF91CF911F910F91FF9008958FE590E019
:1007B000E0E4FAE086A397A362E080E49AE00E9476
:1007C0006E3266E080E49AE00C94683282E08093B6
:1007D000900B80915C2E90915D2EE0E4FBE086A36F
:1007E00097A385E3818381E0808380E3E0EAF6E0FC
:1007F00081830895EF920F93CF93CFEFE0E2F6E07D
:10080000C2836894EE24E1F808E120E040E06FEF55
:1008100080E296E00E944F3241E061E080E296E0A3
:100820000E944832E0E4F6E0C183E0EEF6E0C183E6
:10083000C68386E68583E0EAF6E08FE081838683DF
:10084000CF910F91EF9008951F920F920FB60F92D4
:10085000112408B60F9218BE09B60F9219BE0BB636
:100860000F921BBE2F933F934F935F936F937F9392
:100870008F939F93AF93BF93EF93FF9380916229E0
:1008800090916329019680936229909363298091C6
:100890005A2E90915B2E019680935A2E90935B2E48
:1008A0008091562E8F5F8093562E8091F72D8F5F0B
:1008B0008093F72D80915D298F5F80935D290E9441
:1008C000312F809108208F5F809308208091042031
:1008D0008F5F80930420809105208F5F8093052097
:1008E0008091332E9091342E892B49F08091332EB4
:1008F0009091342E01978093332E9093342E8091D3
:10090000F92D882389F08091F92D8F5F8093F92D3F
:100910008091F92D853640F01092592E10925B2966
:1009200010923D2E1092F92D9091562E809170329A
:10093000891708F059C08091572E8F3708F054C09E
:1009400080918032823091F5E091572EF0E08091D5
:10095000F8299091F929A091FA29B091FB290196E3
:10096000A11DB11DDC018D919D910D90BC91A02D1B
:10097000EE0FFF1FEC5FF54D80839183E091572EC2
:10098000F0E08091F8299091F929A091FA29B0918D
:10099000FB29DC018D919D910D90BC91A02DEE0F56
:1009A000FF1FEC5FF54D8083918317C0E091572EB8
:1009B000F0E08091F8299091F929A091FA29B0915D
:1009C000FB29DC018D919D910D90BC91A02DEE0F26
:1009D000FF1FEC5FF54D808391838091572E8F5FD1
:1009E0008093572E1092562EFF91EF91BF91AF91A9
:1009F0009F918F917F916F915F914F913F912F9137
:100A00000F900BBE0F9009BE0F9008BE0F900FBE47
:100A10000F901F9018951F920F920FB60F921124EE
:100A200008B60F9218BE09B60F9219BE0AB60F92F9
:100A30001ABE0BB60F921BBE4F925F926F927F92BF
:100A40008F929F92AF92BF92CF92DF92EF92FF92DE
:100A50000F931F932F933F934F935F936F937F93C6
:100A60008F939F93AF93BF93EF93FF93CF93DF93B6
:100A7000CDB7DEB72897CDBFDEBF89E193E20E94F4
:100A800072348091592E082F10E089E193E20E9480
:100A90006434F801E459F64D80838091592E8F5FBC
:100AA0008093592E8091592E882319F081E08093EC
:100AB000F92D80916C29813009F0B0C08091592EB8
:100AC000813011F00C94E20D1092F92D80916C2977
:100AD0008093DB286091212E7091222E8091232E0D
:100AE0009091242E2091FE2D3091FF2D40E050E07A
:100AF0000E946A38BB2757FDBA95A52F942F832FE4
:100B00008093DC286091212E7091222E8091232EDB
:100B10009091242E2091FE2D3091FF2D40E050E049
:100B20000E946A382093DD286091002A7091012A82
:100B30008091022A9091032A2091FE2D3091FF2D61
:100B400040E050E00E946A38BB2757FDBA95A52FB8
:100B5000942F832F8093DE286091002A7091012AC0
:100B60008091022A9091032A2091FE2D3091FF2D31
:100B700040E050E00E946A382093DF2820918132C3
:100B8000309182324091833250918432C0907332DE
:100B9000D0907432E0907532F0907632A8E6B1E0F1
:100BA0000E948538A70196010E946A38BB2757FD2D
:100BB000BA95A52F942F832F8093E028209181321E
:100BC000309182324091833250918432C09073329E
:100BD000D0907432E0907532F0907632A8E6B1E0B1
:100BE0000E948538A70196010E946A382093E12867
:100BF00000E010E0F801E552F74D608189E193E2F1
:100C00000E944534882311F00F5F1F4F0F301105EC
:100C10008CF31092592E1092592ED4C780916C29C2
:100C2000823009F0BFC08091592E853008F4CAC7C0
:100C30001092F92D1092F2291092F02D10927F321D
:100C40001092AE241092AF241092B0241092B124CE
:100C500020916D294091AE245091AF246091B02431
:100C60007091B124922F80E0AA2797FDA095BA2F0A
:100C7000842B952BA62BB72B8093AE249093AF2477
:100C8000A093B024B093B12420916E298091AE241A
:100C90009091AF24A091B024B091B124822B809385
:100CA000AE249093AF24A093B024B093B124A0912C
:100CB000FE2DB091FF2D2091AE243091AF244091B4
:100CC000B0245091B1240E9485386093AE24709373
:100CD000AF248093B0249093B1241092092E1092E7
:100CE0000A2E10920B2E10920C2E20916F294091FB
:100CF000092E50910A2E60910B2E70910C2E922F7E
:100D000080E0AA2797FDA095BA2F842B952BA62BC0
:100D1000B72B8093092E90930A2EA0930B2EB0939D
:100D20000C2E209170298091092E90910A2EA0916D
:100D30000B2EB0910C2E822B8093092E90930A2EAD
:100D4000A0930B2EB0930C2EA091FE2DB091FF2DF1
:100D50002091092E30910A2E40910B2E50910C2E8D
:100D60000E9485386093092E70930A2E80930B2E73
:100D700090930C2E80916C298093DB2800E010E08A
:100D8000F801E552F74D608189E193E20E94453414
:100D9000882311F00F5F1F4F101611068CF7109269
:100DA000592E10C780916C29833009F0E3C18091DE
:100DB000592E8B3008F406C71092F92D80916D29B9
:100DC0008F3F29F480916E298F3F09F453C0109210
:100DD000F2291092F02D10927F321092AE241092D0
:100DE000AF241092B0241092B12420916D2940912B
:100DF000AE245091AF246091B0247091B124922F11
:100E000080E0AA2797FDA095BA2F842B952BA62BBF
:100E1000B72B8093AE249093AF24A093B024B093CB
:100E2000B12420916E298091AE249091AF24A0919D
:100E3000B024B091B124822B8093AE249093AF2440
:100E4000A093B024B093B124A091FE2DB091FF2DBA
:100E50002091AE243091AF244091B0245091B12420
:100E60000E9485386093AE247093AF248093B024A1
:100E70009093B12480916F298F3F29F4809170293C
:100E80008F3F09F453C01092F2291092F02D109266
:100E90007F321092092E10920A2E10920B2E109271
:100EA0000C2E20916F294091092E50910A2E6091AD
:100EB0000B2E70910C2E922F80E0AA2797FDA09503
:100EC000BA2F842B952BA62BB72B8093092E9093AA
:100ED0000A2EA0930B2EB0930C2E20917029809196
:100EE000092E90910A2EA0910B2EB0910C2E822BE0
:100EF0008093092E90930A2EA0930B2EB0930C2E64
:100F0000A091FE2DB091FF2D2091092E30910A2E37
:100F100040910B2E50910C2E0E9485386093092E23
:100F200070930A2E80930B2E90930C2E8091712932
:100F30008F3F29F4809172298F3F09F458C0109295
:100F40000020109201201092022010920320209184
:100F500071294091002050910120609102207091F0
:100F60000320922F80E0AA2797FDA095BA2F842B0B
:100F7000952BA62BB72B8093002090930120A09354
:100F80000220B0930320209172298091002090913B
:100F90000120A0910220B0910320822B8093002099
:100FA00090930120A0930220B09303202091002071
:100FB00030910120409102205091032060917332C2
:100FC0007091743280917532909176320E944838D7
:100FD00028E631E040E050E00E946A38209300208B
:100FE00030930120409302205093032078C08091D9
:100FF00073298F3F29F4809174298F3F09F464C0CD
:1010000010920020109201201092022010920320D2
:10101000209173294091002050910120609102207D
:1010200070910320922F80E0AA2797FDA095BA2FF8
:10103000842B952BA62BB72B809300209093012017
:10104000A0930220B0930320209174298091002066
:1010500090910120A0910220B0910320822B8093D7
:10106000002090930120A0930220B09303202091B0
:101070000020309101204091022050910320609186
:101080007332709174328091753290917632C09043
:101090008132D0908232E0908332F09084320E948C
:1010A000483828E631E040E050E00E946A38C20E3D
:1010B000D31EE41EF51EC0920020D0920120E092C3
:1010C0000220F09203200BC08FEF9FEFDC01809392
:1010D000002090930120A0930220B09303208091E0
:1010E00075298F3FC9F08091752990E09C01220FEE
:1010F000331F820F931F80937D3290937E328091B5
:101100007D3290917E3299230CF4019695958795C6
:1011100080935F2E9093602E809176298F3F21F0EF
:101120008091762980935C291092562E1092572E2A
:101130001092F72D1092F82D10925D291092C42470
:1011400080916C298093DB2800E010E0F801E552E3
:10115000F74D608189E193E20E944534882311F0C4
:101160000F5F1F4F101611068CF71092592E109218
:10117000592E28C580916C29843009F095C1809141
:10118000592E853008F41EC51092F92D1092F229BF
:101190001092F02D10927F321092C3281092C42822
:1011A0001092C5281092C62820916D294091C3281D
:1011B0005091C4286091C5287091C628922F80E074
:1011C000AA2797FDA095BA2F842B952BA62BB72B7A
:1011D0008093C3289093C428A093C528B093C628B1
:1011E00020916E298091C3289091C428A091C52890
:1011F000B091C628822B8093C3289093C428A093D3
:10120000C528B093C628A091FE2DB091FF2D209146
:10121000C3283091C4284091C5285091C6280E9407
:1012200085386093C3287093C4288093C528909311
:10123000C6281092142E1092152E1092162E10926F
:10124000172E20916F294091142E5091152E6091E8
:10125000162E7091172E922F80E0AA2797FDA09549
:10126000BA2F842B952BA62BB72B8093142E9093FB
:10127000152EA093162EB093172E209170298091D1
:10128000142E9091152EA091162EB091172E822B10
:101290008093142E9093152EA093162EB093172E94
:1012A0002091142E3091152E4091162E5091172E0C
:1012B0006091733270917432809175329091763270
:1012C0000E94483828E631E040E050E00E946A3849
:1012D0002093142E3093152E4093162E5093172ED4
:1012E0004091813250918232609183327091843288
:1012F0008091142E9091152EA091162EB091172E3C
:10130000C090CD28D090CE28E090CF28F090D02863
:10131000409081325090823260908332709084325B
:101320000091142E1091152E2091162E3091172E0B
:1013300009831A832B833C838090CD289090CE28FC
:10134000A090CF28B090D0288A019B01080F191FC8
:101350002A1F3B1FC901B8010E945B366D837E8343
:101360008F839887C701B6010E945B369B01AC0151
:101370006D817E818F8198850E94C0352BED3FE085
:1013800049E450E40E9474370E94BD356B017C0132
:1013900069817A818B819C81640D751D861D971DE5
:1013A0000E945B362B013C01C501B4010E945B36F3
:1013B0009B01AC01C301B2010E94C0352BED3FE09F
:1013C00049E450E40E9474370E94D7374B015C0116
:1013D0006091C3287091C4288091C5289091C62837
:1013E0004090C3285090C4286090C5287090C628AB
:1013F0002091212E3091222E4091232E5091242E87
:1014000029833A834B835C830E945B36A701960154
:101410000E9474370E94283609811A812B813C81F1
:10142000060F171F281F391F0093AE241093AF24F7
:101430002093B0243093B124C090002AD090012A88
:10144000E090022AF090032AC301B2010E945B36A9
:10145000A50194010E9474370E942836C60ED71E3B
:10146000E81EF91EC092092ED0920A2EE0920B2E91
:10147000F0920C2E80916C298093DB2800E010E024
:10148000F801E552F74D608189E193E20E9445340D
:10149000882311F00F5F1F4F101611068CF7109262
:1014A000592E1092592E8EC380916C29853009F0E7
:1014B0006EC08091592E833008F484C31092F92DA8
:1014C00081E080937F3280916D2988238CF4809114
:1014D0006D2990E09C01220F331F220F331F820FD2
:1014E000931F805892408093792E90937A2E10C04B
:1014F00080916D2990E09C01220F331F220F331F32
:10150000820F931F805892408093792E90937A2E69
:1015100080916E2988238CF480916E2990E09C0143
:10152000220F331F220F331F820F931F80589240C8
:101530008093772E9093782E10C080916E2990E042
:101540009C01220F331F220F331F820F931F8058DD
:1015500092408093772E9093782E80916C2980937F
:10156000DB2800E010E0F801E552F74D608189E1E9
:1015700093E20E944534882311F00F5F1F4F10162D
:1015800011068CF71092592E1092592E1BC3809180
:101590006C29863009F056C08091592E873008F4A6
:1015A00011C31092F92DE0E4F6E094814DE659E282
:1015B000DA018C916EE679E2DB012C918223892B92
:1015C00084839481DA018C91DB012C9182278095B0
:1015D0008923848380916F2990E088589F4FE0E0B1
:1015E000FBE080A791A78091702990E088589F4FD9
:1015F00082A793A78091712990E088589F4F84A774
:1016000095A78091722990E088589F4F86A797A749
:1016100080916C298093DB2800E010E0F801E5520E
:10162000F74D608189E193E20E944534882311F0EF
:101630000F5F1F4F101611068CF71092592E109243
:10164000592EC0C280916C29873009F07DC18091EC
:10165000592E873008F4B6C21092F92D80916D2969
:101660008F3F29F480916E298F3F09F46DC010924D
:10167000212E1092222E1092232E1092242E209191
:101680006D294091212E5091222E6091232E709130
:10169000242E922F80E0AA2797FDA095BA2F842BA5
:1016A000952BA62BB72B8093212E9093222EA093BF
:1016B000232EB093242E20916E298091212E90917B
:1016C000222EA091232EB091242E822B8093212EA6
:1016D0009093222EA093232EB093242EA091FE2D22
:1016E000B091FF2D2091212E3091222E4091232E5A
:1016F0005091242E0E9485386093212E7093222EC3
:101700008093232E9093242E8091212E9091222E2F
:10171000A091232EB091242E8093AE249093AF24D9
:10172000A093B024B093B1248091212E9091222EC9
:10173000A091232EB091242E80932F2E9093302EA3
:10174000A093312EB093322E80916F298F3F29F4D0
:10175000809170298F3F09F46DC01092002A109279
:10176000012A1092022A1092032A20916F29409197
:10177000002A5091012A6091022A7091032A922F27
:1017800080E0AA2797FDA095BA2F842B952BA62B36
:10179000B72B8093002A9093012AA093022AB0933A
:1017A000032A209170298091002A9091012AA0910A
:1017B000022AB091032A822B8093002A9093012A57
:1017C000A093022AB093032AA091FE2DB091FF2D81
:1017D0002091002A3091012A4091022A5091032A37
:1017E0000E9485386093002A7093012A8093022A10
:1017F0009093032A8091002A9091012AA091022AB5
:10180000B091032A8093092E90930A2EA0930B2E59
:10181000B0930C2E8091002A9091012AA091022A67
:10182000B091032A80936E2E90936F2EA093702E0A
:10183000B093712E809171298F3F29F48091722984
:101840008F3F09F467C01092813210928232109259
:1018500083321092843220917129409181325091CB
:1018600082326091833270918432922F80E0AA2775
:1018700097FDA095BA2F842B952BA62BB72B809381
:10188000813290938232A0938332B093843220913C
:1018900072298091813290918232A0918332B091ED
:1018A0008432822B8093813290938232A093833250
:1018B000B0938432209181323091823240918332D0
:1018C000509184326091733270917432809175328C
:1018D000909176320E94483828E631E040E050E0AE
:1018E0000E946A382093813230938232409383324F
:1018F000509384328091813290918232A0918332D0
:10190000B09184328093CA249093CB24A093CC24AA
:10191000B093CD2480916C298093DB2800E010E007
:10192000F801E552F74D608189E193E20E94453468
:10193000882311F00F5F1F4F101611068CF71092BD
:10194000592E1092592E3EC180916C298830D9F5BC
:101950008091592E833008F435C11092F92D809171
:101960006D29813039F48093F02D1092792E1092E8
:101970007A2E02C01092F02D80916E29813039F4B8
:101980008093F2291092772E1092782E02C0109236
:10199000F22980916C298093DB2800E010E0F801A7
:1019A000E552F74D608189E193E20E944534882336
:1019B00011F00F5F1F4F101611068CF71092592E61
:1019C0001092592EFFC080916C29853609F04BC0CA
:1019D0008091592E813009F0F5C01092F92D809137
:1019E0006C298093DB286091212E7091222E8091AA
:1019F000232E9091242E2091FE2D3091FF2D40E03A
:101A000050E00E946A38BB2757FDBA95A52F942F46
:101A1000832F8093DC286091212E7091222E80915B
:101A2000232E9091242E2091FE2D3091FF2D40E009
:101A300050E00E946A382093DD2800E010E0F801B1
:101A4000E552F74D608189E193E20E944534882395
:101A500011F00F5F1F4F033011058CF31092592EB8
:101A60001092592EAFC080916C29863609F04BC078
:101A70008091592E813009F0A5C01092F92D8091E6
:101A80006C298093DB286091002A7091012A809153
:101A9000022A9091032A2091FE2D3091FF2D40E0E3
:101AA00050E00E946A38BB2757FDBA95A52F942FA6
:101AB000832F8093DC286091002A7091012A809105
:101AC000022A9091032A2091FE2D3091FF2D40E0B3
:101AD00050E00E946A382093DD2800E010E0F80111
:101AE000E552F74D608189E193E20E9445348823F5
:101AF00011F00F5F1F4F033011058CF31092592E18
:101B00001092592E5FC080916C29873609F05AC017
:101B10008091592E813009F055C01092F92D809195
:101B20006C298093DB282091813230918232409160
:101B3000833250918432C0907332D0907432E090EE
:101B40007532F0907632A8E6B1E00E948538A701A0
:101B500096010E946A38BB2757FDBA95A52F942F8E
:101B6000832F8093DC282091813230918232409102
:101B7000833250918432C0907332D0907432E090AE
:101B80007532F0907632A8E6B1E00E948538A70160
:101B900096010E946A382093DD2800E010E0F801E9
:101BA000E552F74D608189E193E20E944534882334
:101BB00011F00F5F1F4F033011058CF31092592E57
:101BC0001092592E2896CDBFDEBFDF91CF91FF91A5
:101BD000EF91BF91AF919F918F917F916F915F91A5
:101BE0004F913F912F911F910F91FF90EF90DF90B8
:101BF000CF90BF90AF909F908F907F906F905F90AD
:101C00004F900F900BBE0F900ABE0F9009BE0F9021
:101C100008BE0F900FBE0F901F9018951F920F9245
:101C20000FB60F92112408B60F9218BE09B60F9284
:101C300019BE0AB60F921ABE0BB60F921BBE4F9278
:101C40005F926F927F928F929F92AF92BF92CF924C
:101C5000DF92EF92FF920F931F932F933F934F9337
:101C60005F936F937F938F939F93AF93BF93EF9304
:101C7000FF93CF93DF93CDB7DEB72897CDBFDEBFFD
:101C80008BE090E20E94723480915B29082F10E073
:101C90008BE090E20E946434F801E459F64D8083B1
:101CA00080915B298F5F80935B2980915B298823DA
:101CB00019F081E08093F92D80916C29813009F031
:101CC00000C180915B29813011F00C94AB1A109205
:101CD000F92D80916C298093DB286091212E7091E1
:101CE000222E8091232E9091242E2091FE2D309132
:101CF000FF2D40E050E00E946A38BB2757FDBA959F
:101D0000A52F942F832F8093DC286091212E709132
:101D1000222E8091232E9091242E2091FE2D309101
:101D2000FF2D40E050E00E946A382093DD2860914A
:101D3000002A7091012A8091022A9091032A209111
:101D4000FE2D3091FF2D40E050E00E946A38BB2705
:101D500057FDBA95A52F942F832F8093DE2860918D
:101D6000002A7091012A8091022A9091032A2091E1
:101D7000FE2D3091FF2D40E050E00E946A38209304
:101D8000DF2820918132309182324091833250910C
:101D90008432C0907332D0907432E0907532F090FB
:101DA0007632A8E6B1E00E948538A70196010E942C
:101DB0006A38BB2757FDBA95A52F942F832F8093A0
:101DC000E0282091813230918232409183325091CB
:101DD0008432C0907332D0907432E0907532F090BB
:101DE0007632A8E6B1E00E948538A70196010E94EC
:101DF0006A382093E1286091102E7091112E809105
:101E0000122E9091132E2091FE2D3091FF2D40E047
:101E100050E00E946A38BB2757FDBA95A52F942F32
:101E2000832F8093E2286091102E7091112E809163
:101E3000122E9091132E2091FE2D3091FF2D40E017
:101E400050E00E946A382093E32880910620809316
:101E5000E4288091A0249091A1248093E52880918A
:101E6000C0249091C1248093E6286091582E80E28E
:101E700092E00E9447018093E7286091582E88E203
:101E800092E00E9447018093E828E0E2F6E0808536
:101E90008093E92800E010E0F801E552F74D6081F9
:101EA0008BE090E20E944534882311F00F5F1F4FB2
:101EB0000F3011058CF310925B2910925B290C9462
:101EC000AB1A80916C29823009F0C1C080915B29E6
:101ED000853010F40C94AB1A1092F92D1092F2295F
:101EE0001092F02D10927F321092AE241092AF24F7
:101EF0001092B0241092B12420916D294091AE240B
:101F00005091AF246091B0247091B124922F80E061
:101F1000AA2797FDA095BA2F842B952BA62BB72B1C
:101F20008093AE249093AF24A093B024B093B124B7
:101F300020916E298091AE249091AF24A091B0247D
:101F4000B091B124822B8093AE249093AF24A093C0
:101F5000B024B093B124A091FE2DB091FF2D20911B
:101F6000AE243091AF244091B0245091B1240E940E
:101F700085386093AE247093AF248093B0249093FF
:101F8000B1241092092E10920A2E10920B2E10924C
:101F90000C2E20916F294091092E50910A2E6091AC
:101FA0000B2E70910C2E922F80E0AA2797FDA09502
:101FB000BA2F842B952BA62BB72B8093092E9093A9
:101FC0000A2EA0930B2EB0930C2E20917029809195
:101FD000092E90910A2EA0910B2EB0910C2E822BDF
:101FE0008093092E90930A2EA0930B2EB0930C2E63
:101FF000A091FE2DB091FF2D2091092E30910A2E37
:1020000040910B2E50910C2E0E9485386093092E22
:1020100070930A2E80930B2E90930C2E80916C2936
:102020008093DB2800E010E0F801E552F74D608175
:102030008BE090E20E944534882311F00F5F1F4F20
:10204000101611068CF710925B290C94AB1A809134
:102050006C29833009F0E5C180915B298B3010F445
:102060000C94AB1A1092F92D80916D298F3F29F4B1
:1020700080916E298F3F09F453C01092F22910927B
:10208000F02D10927F321092AE241092AF24109255
:10209000B0241092B12420916D294091AE2450912A
:1020A000AF246091B0247091B124922F80E0AA27D0
:1020B00097FDA095BA2F842B952BA62BB72B809339
:1020C000AE249093AF24A093B024B093B124209178
:1020D0006E298091AE249091AF24A091B024B0914C
:1020E000B124822B8093AE249093AF24A093B0248C
:1020F000B093B124A091FE2DB091FF2D2091AE247C
:102100003091AF244091B0245091B1240E94853881
:102110006093AE247093AF248093B0249093B12445
:1021200080916F298F3F29F4809170298F3F09F4A6
:1021300053C01092F2291092F02D10927F3210921B
:10214000092E10920A2E10920B2E10920C2E209116
:102150006F294091092E50910A2E60910B2E70919B
:102160000C2E922F80E0AA2797FDA095BA2F842BE2
:10217000952BA62BB72B8093092E90930A2EA09314
:102180000B2EB0930C2E209170298091092E9091E6
:102190000A2EA0910B2EB0910C2E822B8093092E2B
:1021A00090930A2EA0930B2EB0930C2EA091FE2D8F
:1021B000B091FF2D2091092E30910A2E40910B2EC7
:1021C00050910C2E0E9485386093092E70930A2E30
:1021D00080930B2E90930C2E809171298F3F29F4C0
:1021E000809172298F3F09F458C0109200201092FC
:1021F0000120109202201092032020917129409119
:102200000020509101206091022070910320922FB4
:1022100080E0AA2797FDA095BA2F842B952BA62B9B
:10222000B72B8093002090930120A0930220B093BD
:102230000320209172298091002090910120A0918B
:102240000220B0910320822B8093002090930120E4
:10225000A0930220B0930320209100203091012010
:10226000409102205091032060917332709174323A
:1022700080917532909176320E94483828E631E09C
:1022800040E050E00E946A38209300203093012003
:10229000409302205093032078C0809173298F3F90
:1022A00029F4809174298F3F09F464C010920020B2
:1022B0001092012010920220109203202091732985
:1022C00040910020509101206091022070910320E4
:1022D000922F80E0AA2797FDA095BA2F842B952BEB
:1022E000A62BB72B8093002090930120A09302206F
:1022F000B0930320209174298091002090910120B7
:10230000A0910220B0910320822B80930020909313
:102310000120A0930220B09303202091002030914F
:1023200001204091022050910320609173327091FE
:1023300074328091753290917632C0908132D09013
:102340008232E0908332F09084320E94483828E64E
:1023500031E040E050E00E946A38C20ED31EE41E15
:10236000F51EC0920020D0920120E0920220F0924F
:1023700003200BC08FEF9FEFDC0180930020909330
:102380000120A0930220B0930320809175298F3FF4
:10239000C9F08091752990E09C01220F331F820FB4
:1023A000931F80937D3290937E3280917D32909105
:1023B0007E3299230CF401969595879580935F2E34
:1023C0009093602E809176298F3F21F0809176291D
:1023D00080935C291092562E1092572E1092F72D52
:1023E0001092F82D10925D291092C42480916C29CE
:1023F0008093DB2800E010E0F801E552F74D6081A2
:102400008BE090E20E944534882311F00F5F1F4F4C
:10241000101611068CF710925B2910925B290C9410
:10242000AB1A80916C29843009F096C180915B29A8
:10243000853010F40C94AB1A1092F92D1092F229F9
:102440001092F02D10927F321092C3281092C4285F
:102450001092C5281092C62820916D294091C3285A
:102460005091C4286091C5287091C628922F80E0B1
:10247000AA2797FDA095BA2F842B952BA62BB72BB7
:102480008093C3289093C428A093C528B093C628EE
:1024900020916E298091C3289091C428A091C528CD
:1024A000B091C628822B8093C3289093C428A09310
:1024B000C528B093C628A091FE2DB091FF2D209184
:1024C000C3283091C4284091C5285091C6280E9445
:1024D00085386093C3287093C4288093C52890934F
:1024E000C6281092142E1092152E1092162E1092AD
:1024F000172E20916F294091142E5091152E609126
:10250000162E7091172E922F80E0AA2797FDA09586
:10251000BA2F842B952BA62BB72B8093142E909338
:10252000152EA093162EB093172E2091702980910E
:10253000142E9091152EA091162EB091172E822B4D
:102540008093142E9093152EA093162EB093172ED1
:102550002091142E3091152E4091162E5091172E49
:1025600060917332709174328091753290917632AD
:102570000E94483828E631E040E050E00E946A3886
:102580002093142E3093152E4093162E5093172E11
:1025900040918132509182326091833270918432C5
:1025A0008091142E9091152EA091162EB091172E79
:1025B000C090CD28D090CE28E090CF28F090D028A1
:1025C0004090813250908232609083327090843299
:1025D0000091142E1091152E2091162E3091172E49
:1025E00009831A832B833C838090CD289090CE283A
:1025F000A090CF28B090D0288A019B01080F191F06
:102600002A1F3B1FC901B8010E945B366D837E8380
:102610008F839887C701B6010E945B369B01AC018E
:102620006D817E818F8198850E94C0352BED3FE0C2
:1026300049E450E40E9474370E94BD356B017C016F
:1026400069817A818B819C81640D751D861D971D22
:102650000E945B362B013C01C501B4010E945B3630
:102660009B01AC01C301B2010E94C0352BED3FE0DC
:1026700049E450E40E9474370E94D7374B015C0153
:102680006091C3287091C4288091C5289091C62874
:102690004090C3285090C4286090C5287090C628E8
:1026A0002091212E3091222E4091232E5091242EC4
:1026B00029833A834B835C830E945B36A701960192
:1026C0000E9474370E94283609811A812B813C812F
:1026D000060F171F281F391F0093AE241093AF2435
:1026E0002093B0243093B124C090002AD090012AC6
:1026F000E090022AF090032AC301B2010E945B36E7
:10270000A50194010E9474370E942836C60ED71E78
:10271000E81EF91EC092092ED0920A2EE0920B2ECE
:10272000F0920C2E80916C298093DB2800E010E061
:10273000F801E552F74D60818BE090E20E9445344C
:10274000882311F00F5F1F4F101611068CF710929F
:102750005B2910925B29FFC680916C29853009F0B6
:102760006EC080915B29833008F4F5C61092F92D74
:1027700081E080937F3280916D2988238CF4809151
:102780006D2990E09C01220F331F220F331F820F0F
:10279000931F805892408093792E90937A2E10C088
:1027A00080916D2990E09C01220F331F220F331F6F
:1027B000820F931F805892408093792E90937A2EA7
:1027C00080916E2988238CF480916E2990E09C0181
:1027D000220F331F220F331F820F931F8058924006
:1027E0008093772E9093782E10C080916E2990E080
:1027F0009C01220F331F220F331F820F931F80581B
:1028000092408093772E9093782E80916C298093BC
:10281000DB2800E010E0F801E552F74D60818BE025
:1028200090E20E944534882311F00F5F1F4F10166D
:1028300011068CF710925B2910925B298CC680914F
:102840006C29863009F056C080915B29873008F4E6
:1028500082C61092F92DE0E4F6E094814DE659E24B
:10286000DA018C916EE679E2DB012C918223892BCF
:1028700084839481DA018C91DB012C9182278095ED
:102880008923848380916F2990E088589F4FE0E0EE
:10289000FBE080A791A78091702990E088589F4F16
:1028A00082A793A78091712990E088589F4F84A7B1
:1028B00095A78091722990E088589F4F86A797A787
:1028C00080916C298093DB2800E010E0F801E5524C
:1028D000F74D60818BE090E20E944534882311F02F
:1028E0000F5F1F4F101611068CF710925B29109284
:1028F0005B2931C680916C29873009F07DC18091B8
:102900005B29873008F427C61092F92D80916D2934
:102910008F3F29F480916E298F3F09F46DC010928A
:10292000212E1092222E1092232E1092242E2091CE
:102930006D294091212E5091222E6091232E70916D
:10294000242E922F80E0AA2797FDA095BA2F842BE2
:10295000952BA62BB72B8093212E9093222EA093FC
:10296000232EB093242E20916E298091212E9091B8
:10297000222EA091232EB091242E822B8093212EE3
:102980009093222EA093232EB093242EA091FE2D5F
:10299000B091FF2D2091212E3091222E4091232E97
:1029A0005091242E0E9485386093212E7093222E00
:1029B0008093232E9093242E8091212E9091222E6D
:1029C000A091232EB091242E8093AE249093AF2417
:1029D000A093B024B093B1248091212E9091222E07
:1029E000A091232EB091242E80932F2E9093302EE1
:1029F000A093312EB093322E80916F298F3F29F40E
:102A0000809170298F3F09F46DC01092002A1092B6
:102A1000012A1092022A1092032A20916F294091D4
:102A2000002A5091012A6091022A7091032A922F64
:102A300080E0AA2797FDA095BA2F842B952BA62B73
:102A4000B72B8093002A9093012AA093022AB09377
:102A5000032A209170298091002A9091012AA09147
:102A6000022AB091032A822B8093002A9093012A94
:102A7000A093022AB093032AA091FE2DB091FF2DBE
:102A80002091092E30910A2E40910B2E50910C2E40
:102A90000E9485386093002A7093012A8093022A4D
:102AA0009093032A8091002A9091012AA091022AF2
:102AB000B091032A8093092E90930A2EA0930B2E97
:102AC000B0930C2E8091002A9091012AA091022AA5
:102AD000B091032A80936E2E90936F2EA093702E48
:102AE000B093712E809171298F3F29F480917229C2
:102AF0008F3F09F467C01092813210928232109297
:102B00008332109284322091712940918132509108
:102B100082326091833270918432922F80E0AA27B2
:102B200097FDA095BA2F842B952BA62BB72B8093BE
:102B3000813290938232A0938332B0938432209179
:102B400072298091813290918232A0918332B0912A
:102B50008432822B8093813290938232A09383328D
:102B6000B09384322091813230918232409183320D
:102B700050918432609173327091743280917532C9
:102B8000909176320E94483828E631E040E050E0EB
:102B90000E946A382093813230938232409383328C
:102BA000509384328091813290918232A09183320D
:102BB000B09184328093CA249093CB24A093CC24E8
:102BC000B093CD2480916C298093DB2800E010E045
:102BD000F801E552F74D60818BE090E20E944534A8
:102BE000882311F00F5F1F4F101611068CF71092FB
:102BF0005B2910925B29AFC480916C298830D9F58C
:102C000080915B29833008F4A6C41092F92D80913D
:102C10006D29813039F48093F02D1092792E109225
:102C20007A2E02C01092F02D80916E29813039F4F5
:102C30008093F2291092772E1092782E02C0109273
:102C4000F22980916C298093DB2800E010E0F801E4
:102C5000E552F74D60818BE090E20E944534882375
:102C600011F00F5F1F4F101611068CF710925B29A1
:102C700010925B2970C480916C29893009F003C1DE
:102C800080915B29863008F466C41092F92D109269
:102C90006429109265291092662910926729209163
:102CA0006E298091642990916529A0916629B0913F
:102CB0006729B22B8093642990936529A093662994
:102CC000B093672920916F2980916429909165299B
:102CD000A0916629B0916729A22B809364299093D3
:102CE0006529A0936629B093672920917029809166
:102CF000642990916529A0916629B0916729922B4A
:102D00008093642990936529A0936629B0936729DD
:102D1000209171298091642990916529A09166295B
:102D2000B0916729822B8093642990936529A093A1
:102D30006629B093672980916D298130B1F4809123
:102D4000642990916529A0916629B0916729FC01B9
:102D500080819181A281B3818093DF281092DE2847
:102D60001092DD281092DC2874C080916D29823089
:102D700031F58091642990916529A0916629B091DF
:102D80006729FC0180819181A281B3818093DF2832
:102D90008091642990916529A0916629B091672955
:102DA0000196A11DB11DFC0180819181A281B38199
:102DB0008093DE281092DD281092DC284AC0809192
:102DC0006D29843009F045C080916429909165296E
:102DD000A0916629B0916729FC0180819181A2812F
:102DE000B3818093DF288091642990916529A09117
:102DF0006629B09167290196A11DB11DFC01808152
:102E00009181A281B3818093DE2880916429909181
:102E10006529A0916629B09167290296A11DB11D6F
:102E2000FC0180819181A281B3818093DD28809112
:102E3000642990916529A0916629B091672903962C
:102E4000A11DB11DFC0180819181A281B38180937C
:102E5000DC2880916C298093DB2800E010E0F801E9
:102E6000E552F74D60818BE090E20E944534882363
:102E700011F00F5F1F4F053011058CF310925B2985
:102E800010925B2968C380916C298A3009F08EC149
:102E900080915B298A3008F45EC31092F92D10925C
:102EA0006429109265291092662910926729209151
:102EB0006E298091642990916529A0916629B0912D
:102EC0006729B22B8093642990936529A093662982
:102ED000B093672920916F29809164299091652989
:102EE000A0916629B0916729A22B809364299093C1
:102EF0006529A0936629B093672920917029809154
:102F0000642990916529A0916629B0916729922B37
:102F10008093642990936529A0936629B0936729CB
:102F2000209171298091642990916529A091662949
:102F3000B0916729822B8093642990936529A0938F
:102F40006629B093672980916D29843009F097C074
:102F50008091642990916529A0916629B091672993
:102F6000FC018091752990E0A0E0B0E0808391831E
:102F7000A283B3838091642990916529A0916629E9
:102F8000B09167290196A11DB11DFC0180917429A2
:102F900090E0A0E0B0E080839183A283B38380912E
:102FA000642990916529A0916629B09167290296BC
:102FB000A11DB11DFC018091732990E0A0E0B0E05B
:102FC00080839183A283B383809164299091652942
:102FD000A0916629B09167290396A11DB11DFC013E
:102FE0008091722990E0A0E0B0E080839183A28379
:102FF000B3838091642990916529A0916629B0914D
:1030000067290396A11DB11DFC0180819181A281D8
:10301000B3818093DC288091642990916529A091E7
:103020006629B09167290296A11DB11DFC0180811E
:103030009181A281B3818093DD2880916429909150
:103040006529A0916629B09167290196A11DB11D3E
:10305000FC0180819181A281B3818093DE288091DF
:10306000642990916529A0916629B0916729FC0196
:1030700080819181A281B3818093DF287DC080917E
:103080006D29823009F04DC08091642990916529A5
:10309000A0916629B0916729FC018091752990E083
:1030A000A0E0B0E080839183A283B3838091642900
:1030B00090916529A0916629B09167290196A11D7B
:1030C000B11DFC018091742990E0A0E0B0E0808304
:1030D0009183A283B3831092DC281092DD28809123
:1030E000642990916529A0916629B091672901967C
:1030F000A11DB11DFC0180819181A281B3818093CA
:10310000DE288091642990916529A0916629B0916B
:103110006729FC0180819181A281B3818093DF289E
:103120002BC080916D29813039F58091642990916F
:103130006529A0916629B0916729FC0180917529C4
:1031400090E0A0E0B0E080839183A283B3831092EB
:10315000DC281092DD281092DE288091642990915D
:103160006529A0916629B0916729FC018081918130
:10317000A281B3818093DF2880916C298093DB2822
:1031800000E010E0F801E552F74D60818BE090E23D
:103190000E944534882311F00F5F1F4F0530110541
:1031A0008CF310925B2910925B29D5C180916C2918
:1031B0008B3009F044C180915B29873008F4CBC182
:1031C0001092F92D80916D29813009F05CC08091B9
:1031D0006E298093703280916F2980938032109293
:1031E000F8291092F9291092FA291092FB292091BE
:1031F00070298091F8299091F929A091FA29B0912C
:10320000FB29B22B8093F8299093F929A093FA29EE
:10321000B093FB29209171298091F8299091F92987
:10322000A091FA29B091FB29A22B8093F8299093C1
:10323000F929A093FA29B093FB2920917229809152
:10324000F8299091F929A091FA29B091FB29922BA4
:103250008093F8299093F929A093FA29B093FB2938
:10326000209173298091F8299091F929A091FA2948
:10327000B091FB29822B8093F8299093F929A09390
:10328000FA29B093FB2980916D29823009F05CC046
:1032900080916E2980937B2E80916F2980935E2E82
:1032A0001092BC241092BD241092BE241092BF2410
:1032B000209170298091BC249091BD24A091BE24BE
:1032C000B091BF24B22B8093BC249093BD24A093D3
:1032D000BE24B093BF24209171298091BC24909189
:1032E000BD24A091BE24B091BF24A22B8093BC2406
:1032F0009093BD24A093BE24B093BF242091722943
:103300008091BC249091BD24A091BE24B091BF2493
:10331000922B8093BC249093BD24A093BE24B093A1
:10332000BF24209173298091BC249091BD24A09149
:10333000BE24B091BF24822B8093BC249093BD24E3
:10334000A093BE24B093BF2480916D29833009F0EF
:103350005CC080916E2980930F2E80916F2980939D
:10336000D02410923E2E10923F2E1092402E10929A
:10337000412E2091702980913E2E90913F2EA09158
:10338000402EB091412EB22B80933E2E90933F2E33
:10339000A093402EB093412E2091712980913E2E12
:1033A00090913F2EA091402EB091412EA22B809360
:1033B0003E2E90933F2EA093402EB093412E20910D
:1033C000722980913E2E90913F2EA091402EB09177
:1033D000412E922B80933E2E90933F2EA093402E11
:1033E000B093412E2091732980913E2E90913F2ED3
:1033F000A091402EB091412E822B80933E2E90932F
:103400003F2EA093402EB093412E80916C29809343
:10341000DB2800E010E0F801E552F74D60818BE019
:1034200090E20E944534882311F00F5F1F4F101661
:1034300011068CF710925B2910925B298CC0809149
:103440006C298C3009F087C080915B29823008F4A8
:1034500082C01092F92D80916D298130F9F420E01D
:1034600030E080E090E0FC01EE0FFF1FEC5FF54DD7
:1034700040815181452F550F550BD901A552B74DAC
:103480004C9340815181F901E452F74D40832E5F06
:103490003F4F01968F37910531F75AC080916D29C2
:1034A0008230F9F420E030E080E090E0FC01EE0FA3
:1034B000FF1FE857F14D40815181452F550F550BA6
:1034C000D901A552B74D4C9340815181F901E45285
:1034D000F74D40832E5F3F4F01968F37910531F7AF
:1034E00037C080916D29833099F520E030E080E08D
:1034F00090E0FC01EE0FFF1FEB52FB4D408151812C
:10350000452F550F550BD901A552B74D4C9340810E
:103510005181F901E452F74D40832E5F3F4F0196F0
:103520008F37910531F714C0F801E552F74D6081EE
:103530008BE090E20E944534882311F00F5F1F4F0B
:103540000E3F11058CF310925B2910925B2903C08A
:1035500000E010E0E9CF2896CDBFDEBFDF91CF912C
:10356000FF91EF91BF91AF919F918F917F916F915B
:103570005F914F913F912F911F910F91FF90EF908D
:10358000DF90CF90BF90AF909F908F907F906F9083
:103590005F904F900F900BBE0F900ABE0F9009BE28
:1035A0000F9008BE0F900FBE0F901F9018951F929E
:1035B0000F920FB60F92112408B60F9218BE09B6DB
:1035C0000F9219BE0AB60F921ABE0BB60F921BBE0F
:1035D0004F925F926F927F928F929F92AF92BF9223
:1035E000CF92DF92EF92FF920F931F932F933F930F
:1035F0004F935F936F937F938F939F93AF93BF93FB
:10360000EF93FF93CF93DF9300D01F92CDB7DEB738
:1036100082E991E20E94723480913D2E082F10E0E1
:1036200082E991E20E946434F801E459F64D808306
:1036300080913D2E8F5F80933D2E80913D2E88237B
:1036400019F081E08093F92D80916C29813009F087
:10365000FEC080913D2E813009F0ACC71092F92D4B
:1036600080916C298093DB286091212E7091222E0D
:103670008091232E9091242E2091FE2D3091FF2DAC
:1036800040E050E00E946A38BB2757FDBA95A52F4D
:10369000942F832F8093DC286091212E7091222E0D
:1036A0008091232E9091242E2091FE2D3091FF2D7C
:1036B00040E050E00E946A382093DD286091002AA3
:1036C0007091012A8091022A9091032A2091FE2D67
:1036D0003091FF2D40E050E00E946A38BB2757FD33
:1036E000BA95A52F942F832F8093DE286091002A0E
:1036F0007091012A8091022A9091032A2091FE2D37
:103700003091FF2D40E050E00E946A382093DF287E
:1037100020918132309182324091833250918432B3
:10372000C0907332D0907432E0907532F09076325F
:10373000A8E6B1E00E948538A70196010E946A3888
:10374000BB2757FDBA95A52F942F832F8093E02890
:103750002091813230918232409183325091843273
:10376000C0907332D0907432E0907532F09076321F
:10377000A8E6B1E00E948538A70196010E946A3848
:103780002093E1286091102E7091112E8091122EBD
:103790009091132E2091FE2D3091FF2D40E050E0AE
:1037A0000E946A38BB2757FDBA95A52F942F832F07
:1037B0008093E2286091102E7091112E8091122E2C
:1037C0009091132E2091FE2D3091FF2D40E050E07E
:1037D0000E946A382093E328809106208093E42891
:1037E0008091A0249091A1248093E5288091C02409
:1037F0009091C1248093E6286091582E80E292E057
:103800000E9447018093E7286091582E88E292E059
:103810000E9447018093E828E0E2F6E080858093EB
:10382000E92800E010E0F801E552F74D608182E9F7
:1038300091E20E944534882311F00F5F1F4F0F3033
:1038400011058CF310923D2E10923D2EB3C680913F
:103850006C29823009F0BFC080913D2E853008F47C
:10386000A9C61092F92D1092F2291092F02D109203
:103870007F321092AE241092AF241092B024109296
:10388000B12420916D294091AE245091AF246091D4
:10389000B0247091B124922F80E0AA2797FDA095C3
:1038A000BA2F842B952BA62BB72B8093AE24909305
:1038B000AF24A093B024B093B12420916E298091BD
:1038C000AE249091AF24A091B024B091B124822B6A
:1038D0008093AE249093AF24A093B024B093B124EE
:1038E000A091FE2DB091FF2D2091AE243091AF24F8
:1038F0004091B0245091B1240E9485386093AE2449
:103900007093AF248093B0249093B1241092092E29
:1039100010920A2E10920B2E10920C2E20916F29CD
:103920004091092E50910A2E60910B2E70910C2E11
:10393000922F80E0AA2797FDA095BA2F842B952B74
:10394000A62BB72B8093092E90930A2EA0930B2EB3
:10395000B0930C2E209170298091092E90910A2EFF
:10396000A0910B2EB0910C2E822B8093092E909358
:103970000A2EA0930B2EB0930C2EA091FE2DB09189
:10398000FF2D2091092E30910A2E40910B2E50913F
:103990000C2E0E9485386093092E70930A2E809316
:1039A0000B2E90930C2E80916C298093DB2800E0E5
:1039B00010E0F801E552F74D608182E991E20E9442
:1039C0004534882311F00F5F1F4F101611068CF736
:1039D00010923D2EEFC580916C29833009F0E3C130
:1039E00080913D2E8B3008F4E5C51092F92D809121
:1039F0006D298F3F29F480916E298F3F09F453C0C0
:103A00001092F2291092F02D10927F321092AE2473
:103A10001092AF241092B0241092B12420916D29FD
:103A20004091AE245091AF246091B0247091B124A4
:103A3000922F80E0AA2797FDA095BA2F842B952B73
:103A4000A62BB72B8093AE249093AF24A093B024E1
:103A5000B093B12420916E298091AE249091AF242F
:103A6000A091B024B091B124822B8093AE24909386
:103A7000AF24A093B024B093B124A091FE2DB091B7
:103A8000FF2D2091AE243091AF244091B02450916D
:103A9000B1240E9485386093AE247093AF24809344
:103AA000B0249093B12480916F298F3F29F48091A5
:103AB00070298F3F09F453C01092F2291092F02D13
:103AC00010927F321092092E10920A2E10920B2E15
:103AD00010920C2E20916F294091092E50910A2EA0
:103AE00060910B2E70910C2E922F80E0AA2797FDEB
:103AF000A095BA2F842B952BA62BB72B8093092E3C
:103B000090930A2EA0930B2EB0930C2E2091702927
:103B10008091092E90910A2EA0910B2EB0910C2E1F
:103B2000822B8093092E90930A2EA0930B2EB09394
:103B30000C2EA091FE2DB091FF2D2091092E3091D9
:103B40000A2E40910B2E50910C2E0E9485386093C6
:103B5000092E70930A2E80930B2E90930C2E809139
:103B600071298F3F29F4809172298F3F09F458C041
:103B70001092002010920120109202201092032037
:103B800020917129409100205091012060910220E4
:103B900070910320922F80E0AA2797FDA095BA2F5D
:103BA000842B952BA62BB72B80930020909301207C
:103BB000A0930220B09303202091722980910020CD
:103BC00090910120A0910220B0910320822B80933C
:103BD000002090930120A0930220B0930320209115
:103BE00000203091012040910220509103206091EB
:103BF00073327091743280917532909176320E9456
:103C0000483828E631E040E050E00E946A382093CE
:103C1000002030930120409302205093032078C06D
:103C2000809173298F3F29F4809174298F3F09F483
:103C300064C0109200201092012010920220109275
:103C40000320209173294091002050910120609120
:103C5000022070910320922F80E0AA2797FDA09563
:103C6000BA2F842B952BA62BB72B809300209093F3
:103C70000120A0930220B093032020917429809109
:103C8000002090910120A0910220B0910320822B6E
:103C90008093002090930120A0930220B0930320F2
:103CA000209100203091012040910220509103206A
:103CB0006091733270917432809175329091763246
:103CC000C0908132D0908232E0908332F090843282
:103CD0000E94483828E631E040E050E00E946A380F
:103CE000C20ED31EE41EF51EC0920020D092012009
:103CF000E0920220F09203200BC08FEF9FEFDC01D7
:103D00008093002090930120A0930220B093032081
:103D1000809175298F3FC9F08091752990E09C01B1
:103D2000220F331F820F931F80937D3290937E3238
:103D300080917D3290917E3299230CF40196959575
:103D4000879580935F2E9093602E809176298F3F88
:103D500021F08091762980935C291092562E109242
:103D6000572E1092F72D1092F82D10925D29109277
:103D7000C42480916C298093DB2800E010E0F801D6
:103D8000E552F74D608182E991E20E944534882333
:103D900011F00F5F1F4F101611068CF710923D2E79
:103DA00010923D2E07C480916C29843009F075C1B2
:103DB00080913D2E853008F4FDC31092F92D1092AC
:103DC000F2291092F02D10927F321092C328109297
:103DD000C4281092C5281092C62820916D294091C0
:103DE000C3285091C4286091C5287091C628922F8D
:103DF00080E0AA2797FDA095BA2F842B952BA62BA0
:103E0000B72B8093C3289093C428A093C528B09360
:103E1000C62820916E298091C3289091C428A09132
:103E2000C528B091C628822B8093C3289093C428BC
:103E3000A093C528B093C628A091FE2DB091FF2D68
:103E40002091C3283091C4284091C5285091C6289C
:103E50000E9485386093C3287093C4288093C52836
:103E60009093C6281092142E1092152E1092162E92
:103E70001092172E20916F294091142E5091152EDB
:103E80006091162E7091172E922F80E0AA2797FD31
:103E9000A095BA2F842B952BA62BB72B8093142E8D
:103EA0009093152EA093162EB093172E2091702963
:103EB0008091142E9091152EA091162EB091172E50
:103EC000822B8093142E9093152EA093162EB093D0
:103ED000172E2091142E3091152E4091162E5091B0
:103EE000172E609173327091743280917532909177
:103EF00076320E94483828E631E040E050E00E94E7
:103F00006A382093142E3093152E4093162E50931A
:103F1000172EC0908132D0908232E0908332F090A0
:103F200084328091142E9091152EA091162EB0916E
:103F3000172E2091CD283091CE284091CF28509136
:103F4000D028BC01CD016C0D7D1D8E1D9F1D0E94D2
:103F50006A38CA01B9010E945B362BED3FE049E4A3
:103F600050E40E9474370E94BD3569837A838B8345
:103F70009C83C0908132D0908232E0908332F09066
:103F800084328091142E9091152EA091162EB0910E
:103F9000172E2091CD283091CE284091CF285091D6
:103FA000D028BC01CD016C0D7D1D8E1D9F1D0E9472
:103FB0006A38CA01B9010E945B362BED3FE049E443
:103FC00050E40E9474370E94D7374B015C01609126
:103FD000C3287091C4288091C5289091C62840902C
:103FE000C3285090C4286090C5287090C628C090FF
:103FF000212ED090222EE090232EF090242E0E948D
:104000005B3629813A814B815C810E9474370E9422
:104010002836C60ED71EE81EF91EC092AE24D092D6
:10402000AF24E092B024F092B124C090002AD09046
:10403000012AE090022AF090032AC301B2010E94F3
:104040005B36A50194010E9474370E942836C60E83
:10405000D71EE81EF91EC092092ED0920A2EE092B9
:104060000B2EF0920C2E80916C298093DB2800E0BF
:1040700010E0F801E552F74D608182E991E20E947B
:104080004534882311F00F5F1F4F101611068CF76F
:1040900010923D2E10923D2E8DC280916C2985305C
:1040A00009F06EC080913D2E833008F483C21092D7
:1040B000F92D81E080937F3280916D2988238CF4E3
:1040C00080916D2990E09C01220F331F220F331F36
:1040D000820F931F805892408093792E90937A2E6E
:1040E00010C080916D2990E09C01220F331F220F98
:1040F000331F820F931F805892408093792E9093A4
:104100007A2E80916E2988238CF480916E2990E01C
:104110009C01220F331F220F331F820F931F8058E1
:1041200092408093772E9093782E10C080916E29C4
:1041300090E09C01220F331F220F331F820F931F29
:10414000805892408093772E9093782E80916C299E
:104150008093DB2800E010E0F801E552F74D608124
:1041600082E991E20E944534882311F00F5F1F4FCE
:10417000101611068CF710923D2E10923D2E1AC289
:1041800080916C29863009F056C080913D2E873091
:1041900008F410C21092F92DE0E4F6E094814DE6A7
:1041A00059E2DA018C916EE679E2DB012C918223EF
:1041B000892B84839481DA018C91DB012C918227F5
:1041C00080958923848380916F2990E088589F4F40
:1041D000E0E0FBE080A791A78091702990E08858EB
:1041E0009F4F82A793A78091712990E088589F4F95
:1041F00084A795A78091722990E088589F4F86A741
:1042000097A780916C298093DB2800E010E0F801EB
:10421000E552F74D608182E991E20E94453488239E
:1042200011F00F5F1F4F101611068CF710923D2EE4
:1042300010923D2EBFC180916C29873009F07DC15D
:1042400080913D2E873008F4B5C11092F92D8091F0
:104250006D298F3F29F480916E298F3F09F46DC03D
:104260001092212E1092222E1092232E1092242E84
:1042700020916D294091212E5091222E6091232E64
:104280007091242E922F80E0AA2797FDA095BA2F37
:10429000842B952BA62BB72B8093212E9093222E27
:1042A000A093232EB093242E20916E298091212E4D
:1042B0009091222EA091232EB091242E822B8093B8
:1042C000212E9093222EA093232EB093242EA091E2
:1042D000FE2DB091FF2D2091212E3091222E409164
:1042E000232E5091242E0E9485386093212E7093A6
:1042F000222E8093232E9093242E8091212E909114
:10430000222EA091232EB091242E8093AE24909340
:10431000AF24A093B024B093B1248091212E90912A
:10432000222EA091232EB091242E80932F2E909395
:10433000302EA093312EB093322E80916F298F3F73
:1043400029F4809170298F3F09F46DC01092002AE2
:104350001092012A1092022A1092032A20916F29AA
:104360004091002A5091012A6091022A7091032AFB
:10437000922F80E0AA2797FDA095BA2F842B952B2A
:10438000A62BB72B8093002A9093012AA093022A90
:10439000B093032A209170298091002A9091012ADC
:1043A000A091022AB091032A822B8093002A909335
:1043B000012AA093022AB093032AA091FE2DB09166
:1043C000FF2D2091092E30910A2E40910B2E5091F5
:1043D0000C2E0E9485386093002A7093012A8093E6
:1043E000022A9093032A8091002A9091012AA09199
:1043F000022AB091032A8093092E90930A2EA0934B
:104400000B2EB0930C2E8091002A9091012AA0913E
:10441000022AB091032A80936E2E90936F2EA09360
:10442000702EB093712E809171298F3F29F4809165
:1044300072298F3F09F467C0109281321092823244
:1044400010928332109284322091712940918132EE
:10445000509182326091833270918432922F80E049
:10446000AA2797FDA095BA2F842B952BA62BB72BA7
:104470008093813290938232A0938332B0938432BE
:10448000209172298091813290918232A091833261
:10449000B0918432822B8093813290938232A093A8
:1044A0008332B093843220918132309182324091B4
:1044B0008332509184326091733270917432809162
:1044C0007532909176320E94483828E631E040E01B
:1044D00050E00E946A3820938132309382324093B8
:1044E0008332509384328091813290918232A091B4
:1044F0008332B09184328093CA249093CB24A093CA
:10450000CC24B093CD2480916C298093DB2800E0EB
:1045100010E0F801E552F74D608182E991E20E94D6
:104520004534882311F00F5F1F4F101611068CF7CA
:1045300010923D2E10923D2E3DC080916C29883006
:10454000C9F580913D2E8330A8F11092F92D80910C
:104550006D29813039F48093F02D1092792E1092CC
:104560007A2E02C01092F02D80916E29813039F49C
:104570008093F2291092772E1092782E02C010921A
:10458000F22980916C298093DB2800E010E0F8018B
:10459000E552F74D608182E991E20E94453488231B
:1045A00011F00F5F1F4F101611068CF710923D2E61
:1045B00010923D2E2496CDBFDEBFDF91CF91FF91AB
:1045C000EF91BF91AF919F918F917F916F915F918B
:1045D0004F913F912F911F910F91FF90EF90DF909E
:1045E000CF90BF90AF909F908F907F906F905F9093
:1045F0004F900F900BBE0F900ABE0F9009BE0F9008
:1046000008BE0F900FBE0F901F9018951F920F922B
:104610000FB60F92112408B60F9218BE0BB60F9268
:104620001BBE8F93EF93FF93E0E0F9E0818580FD5F
:1046300003C081E08093F52DE0E0F9E0818580FF03
:1046400003C082E08093F52DFF91EF918F910F9041
:104650000BBE0F9008BE0F900FBE0F901F901895C5
:104660001F920F920FB60F92112408B60F9218BE28
:104670000BB60F921BBE8F93EF93FF93E0E4F9E02C
:10468000818580FD03C081E08093202EE0E4F9E085
:10469000818580FF03C082E08093202EFF91EF91FF
:1046A0008F910F900BBE0F9008BE0F900FBE0F9012
:1046B0001F9018951F920F920FB60F92112408B6F3
:1046C0000F9218BE09B60F9219BE0BB60F921BBE01
:1046D0002F933F934F935F936F937F938F939F930A
:1046E000AF93BF93EF93FF9389E193E20E949034DD
:1046F000FF91EF91BF91AF919F918F917F916F91BA
:104700005F914F913F912F910F900BBE0F9009BE7B
:104710000F9008BE0F900FBE0F901F9018951F921C
:104720000F920FB60F92112408B60F9218BE09B659
:104730000F9219BE0BB60F921BBE2F933F934F9350
:104740005F936F937F938F939F93AF93BF93EF93F9
:10475000FF938BE090E20E949034FF91EF91BF9124
:10476000AF919F918F917F916F915F914F913F9109
:104770002F910F900BBE0F9009BE0F9008BE0F90A7
:104780000FBE0F901F9018951F920F920FB60F92A9
:10479000112408B60F9218BE09B60F9219BE0BB6B7
:1047A0000F921BBE2F933F934F935F936F937F9313
:1047B0008F939F93AF93BF93EF93FF9382E991E21F
:1047C0000E949034FF91EF91BF91AF919F918F9193
:1047D0007F916F915F914F913F912F910F900BBE01
:1047E0000F9009BE0F9008BE0F900FBE0F901F9044
:1047F00018951F920F920FB60F92112408B60F92C0
:1048000018BE09B60F9219BE0BB60F921BBE2F939E
:104810003F934F935F936F937F938F939F93AF9348
:10482000BF93EF93FF938FEFE0E4F6E087838091EF
:10483000482E9091492E8093062E9093072E8091BA
:10484000062E9091072E1816190634F46BE28BE0B1
:1048500090E20E94453411C08091062E9091072E5F
:10486000992334F46DE28BE090E20E94453405C058
:1048700060E28BE090E20E9445348091062E909198
:10488000072E99235CF48091062E9091072E919526
:10489000819591098093062E9093072E8091062E84
:1048A0009091072E2AE030E0B9010E9457388063CA
:1048B0008093422E9093432E8091062E9091072E46
:1048C000B9010E9457386093062E7093072E80918D
:1048D000062E9091072EB9010E945738806380936D
:1048E0007132909372328091062E9091072EB90109
:1048F0000E9457386093062E7093072E8091062EE3
:104900009091072EB9010E94573880638093352E0D
:104910009093362E8091062E9091072EB9010E9419
:1049200057386093062E7093072E8091062E909133
:10493000072EB9010E94573880638093D528909341
:10494000D6288091062E9091072EB9010E945738E3
:104950006093062E7093072E8091062E9091072E5D
:10496000B9010E94573880638093C1289093C22870
:104970006091C1287091C2288BE090E20E9445347A
:104980006091D5287091D6288BE090E20E94453442
:104990006091352E7091362E8BE090E20E94453466
:1049A00060917132709172328BE090E20E944534D6
:1049B0006091422E7091432E8BE090E20E9445342C
:1049C00060E28BE090E20E9445346AE38BE090E283
:1049D0000E94453460E28BE090E20E944534809171
:1049E000612E9091622E8093062E9093072E8091D7
:1049F000062E9091072E1816190634F46BE28BE000
:104A000090E20E94453411C08091062E9091072EAD
:104A1000992334F46DE28BE090E20E94453405C0A6
:104A200060E28BE090E20E9445348091062E9091E6
:104A3000072E99235CF48091062E9091072E919574
:104A4000819591098093062E9093072E8091062ED2
:104A50009091072E2AE030E0B9010E945738806318
:104A60008093422E9093432E8091062E9091072E94
:104A7000B9010E9457386093062E7093072E8091DB
:104A8000062E9091072EB9010E94573880638093BB
:104A90007132909372328091062E9091072EB90157
:104AA0000E9457386093062E7093072E8091062E31
:104AB0009091072EB9010E94573880638093352E5C
:104AC0009093362E8091062E9091072EB9010E9468
:104AD00057386093062E7093072E8091062E909182
:104AE000072EB9010E94573880638093D528909390
:104AF000D6288091062E9091072EB9010E94573832
:104B00006093062E7093072E8091062E9091072EAB
:104B1000B9010E94573880638093C1289093C228BE
:104B20006091C1287091C2288BE090E20E944534C8
:104B30006091D5287091D6288BE090E20E94453490
:104B40006091352E7091362E8BE090E20E944534B4
:104B500060917132709172328BE090E20E94453424
:104B60006091422E7091432E8BE090E20E9445347A
:104B70006DE08BE090E20E944534FF91EF91BF9190
:104B8000AF919F918F917F916F915F914F913F91E5
:104B90002F910F900BBE0F9009BE0F9008BE0F9083
:104BA0000FBE0F901F9018954F925F926F927F9259
:104BB0008F929F92AF92BF92CF92DF92EF92FF922D
:104BC000E0E4F9E080A191A180937B3290937C3264
:104BD000E0E0F9E080A191A1A0E0B0E080931C2E7C
:104BE00090931D2EA0931E2EB0931F2E8091F52D15
:104BF000811117C040911C2E50911D2E60911E2EC8
:104C000070911F2E8091EC299091ED29A091EE29B1
:104C1000B091EF29481B590B4093C0245093C124F5
:104C20003BC08091F52D8130C9F44091EC29509121
:104C3000ED296091EE297091EF2980911C2E9091C1
:104C40001D2EA0911E2EB0911F2E40955095840FC1
:104C5000951F8093C0249093C1241CC08091F52D92
:104C60008230C1F440911C2E50911D2E60911E2E59
:104C700070911F2E8091EC299091ED29A091EE2941
:104C8000B091EF294F5F5F4F481B590B4093C024F1
:104C90005093C1241092F52D8091202E81110FC0C8
:104CA00080917B3290917C3220912B2E30912C2E52
:104CB000821B930B8093A0249093A1242AC08091FF
:104CC000202E813089F480912B2E90912C2E2091D2
:104CD0007B3230917C3280959095820F931F809328
:104CE000A0249093A12413C08091202E823079F4C7
:104CF00080917B3290917C3220912B2E30912C2E02
:104D00000196821B930B8093A0249093A124109270
:104D1000202E80911C2E90911D2EA0911E2EB091C0
:104D20001F2E8093EC299093ED29A093EE29B09348
:104D3000EF2980917B3290917C3280932B2E90933F
:104D40002C2E2091C0243091C1248091A0249091D8
:104D5000A124820F931F8093F0299093F1298091D1
:104D6000C0249091C1242091A0243091A124821BC1
:104D7000930B809385329093863280918532909107
:104D800086324091813250918232609183327091AB
:104D90008432AA2797FDA095BA2F840F951FA61FCE
:104DA000B71F8093813290938232A0938332B09365
:104DB00084328091F0299091F1294091B42450914E
:104DC000B5246091B6247091B724AA2797FDA095C9
:104DD000BA2F840F951FA61FB71F8093B4249093FA
:104DE000B524A093B624B093B7244091813250915A
:104DF00082326091833270918432809173329091CB
:104E00007432A0917532B0917632481759076A070B
:104E10007B07E4F08091813290918232A0918332BD
:104E2000B0918432409173325091743260917532F6
:104E300070917632841B950BA60BB70B8093813251
:104E400090938232A0938332B093843280918132E6
:104E500090918232A0918332B0918432BB23E4F4EA
:104E600040918132509182326091833270918432CC
:104E70008091733290917432A0917532B0917632F4
:104E8000840F951FA61FB71F8093813290938232A3
:104E9000A0938332B09384326091813270918232D8
:104EA0008091833290918432C090CD28D090CE28CA
:104EB000E090CF28F090D0280E945B364B015C0137
:104EC000C701B6010E945B369B01AC01C501B4016C
:104ED0000E94C0352BED3FE049E450E40E94743756
:104EE0000E94BD352B013C0160918132709182326C
:104EF0008091833290918432C090CD28D090CE287A
:104F0000E090CF28F090D0280E945B364B015C01E6
:104F1000C701B6010E945B369B01AC01C501B4011B
:104F20000E94C0352BED3FE049E450E40E94743705
:104F30000E94D7374B015C016091F0297091F129F3
:104F4000C090212ED090222EE090232EF090242E7F
:104F5000882777FD8095982F0E945B36A3019201E8
:104F60000E9474370E942836CB01AA2797FDA0958E
:104F7000BA2FC80ED91EEA1EFB1EC092212ED09257
:104F8000222EE092232EF092242E6091F02970912F
:104F9000F129C090002AD090012AE090022AF090D6
:104FA000032A882777FD8095982F0E945B36A501FC
:104FB00094010E9474370E942836CB01AA2797FDDE
:104FC000A095BA2FC80ED91EEA1EFB1EC092002A59
:104FD000D092012AE092022AF092032AFF90EF90E9
:104FE000DF90CF90BF90AF909F908F907F906F9009
:104FF0005F904F9008954F925F926F927F928F9241
:105000009F92AF92BF92CF92DF92EF92FF920F9357
:105010001F93CF93DF9340912F2E5091302E6091AC
:10502000312E7091322E8091AE249091AF24A091B8
:10503000B024B091B124481759076A077B07A9F437
:1050400040916E2E50916F2E6091702E7091712E46
:105050008091092E90910A2EA0910B2EB0910C2ECA
:10506000481759076A077B0771F08091C624909111
:10507000C724A091C824B091C92480932D2E909369
:105080002E2E109206208091AE249091AF24A091F4
:10509000B024B091B12480932F2E9093302EA09302
:1050A000312EB093322E8091092E90910A2EA0912C
:1050B0000B2EB0910C2E80936E2E90936F2EA0939A
:1050C000702EB093712E4091AE245091AF24609118
:1050D000B0247091B1248091212E9091222EA09124
:1050E000232EB091242E8A019B01081B190B2A0B39
:1050F0003B0BC901B8010E945B36C62ED72EE82EA5
:10510000F92E4091092E50910A2E60910B2E70912C
:105110000C2E8091002A9091012AA091022AB09130
:10512000032A8A019B01081B190B2A0B3B0BC9019F
:10513000B8010E945B36062F172FD82FC92F2C2DB0
:105140003D2D4E2D5F2D6C2D7D2D8E2D9F2D0E9482
:1051500074376B017C01202F312F4D2F5C2F602F76
:10516000712F8D2F9C2F0E9474379B01AC01C701BA
:10517000B6010E94F3340E94E1370E942836609302
:10518000102E7093112E8093122E9093132E6091F7
:10519000D1247091D2248091D3249091D424C090B2
:1051A000102ED090112EE090122EF090132E2AE0A7
:1051B00030E040E050E00E946A382C153D054E0575
:1051C0005F050CF03FC18091102E9091112EA0919F
:1051D000122EB091132E8093672E9093682EA09379
:1051E000692EB0936A2E1092B4241092B5241092B6
:1051F000B6241092B72410925A2E10925B2E109261
:1052000006204091AE245091AF246091B02470915B
:10521000B1248091212E9091222EA091232EB09125
:10522000242E4090092E50900A2E60900B2E7090E4
:105230000C2E8090002A9090012AA090022AB09013
:10524000032A8A019B01081B190B2A0B3B0BC9017E
:10525000B8010E945B366B017C01C301B201681981
:1052600079098A099B090E945B36A70196010E9471
:1052700066356B017C016091CD287091CE288091BC
:10528000CF289091D0280E945B36A70196010E94FA
:1052900074372BED3FE049E450E40E94C0350E9492
:1052A00028366093CA247093CB248093CC249093A7
:1052B000CD2480915C29811173C04091813250913D
:1052C000823260918332709184328091CA249091AD
:1052D000CB24A091CC24B091CD248A019B01081B42
:1052E000190B2A0B3B0BC901B8010E945B36062F34
:1052F000172FD82FC92F60917C2E70917D2E809111
:105300007E2E90917F2E0E945B369B01AC01602F18
:10531000712F8D2F9C2F0E9469371816ECF0809109
:105320007C2E90917D2EA0917E2EB0917F2E9C019F
:10533000AD0166277727CB01621B730B840B950B9E
:105340000E945B369B01AC01602F712F8D2F9C2F2B
:105350000E94B935882304F58FEF8093762E8091D3
:10536000CA249091CB24A091CC24B091CD2440911B
:10537000CD285091CE286091CF287091D028841BE1
:10538000950BA60BB70B8093CA249093CB24A093C4
:10539000CC24B093CD242EC081E08093762E2AC0F9
:1053A00080915C29813019F48093762E23C08091FE
:1053B0005C298230F9F48FEF8093762E8091CA2495
:1053C0009091CB24A091CC24B091CD244091CD28B4
:1053D0005091CE286091CF287091D028841B950BD6
:1053E000A60BB70B8093CA249093CB24A093CC2414
:1053F000B093CD248091CA249091CB24A091CC2449
:10540000B091CD24BB230CF053C04091CA245091DD
:10541000CB246091CC247091CD24809173329091F3
:105420007432A0917532B0917632840F951FA61F09
:10543000B71F8093CA249093CB24A093CC24B0931D
:10544000CD2436C080915A2E90915B2E8C329140A3
:1054500078F180910620811103C081E080930620BD
:105460008091002090910120A0910220B091032012
:105470008F3F9F4FAF4FBF4FD9F080910020909149
:105480000120A0910220B09103208093CA24909320
:10549000CB24A093CC24B093CD248FEF9FEFDC01DD
:1054A0008093002090930120A0930220B0930320CA
:1054B000DF91CF911F910F91FF90EF90DF90CF90F0
:1054C000BF90AF909F908F907F906F905F904F9024
:1054D00008954F925F926F927F928F929F92AF92B8
:1054E000BF92CF92DF92EF92FF920F931F93CF93D1
:1054F000DF93CDB7DEB72C97CDBFDEBFA091762E60
:105500002091672E3091682E4091692E50916A2E1D
:10551000C090B424D090B524E090B624F090B72485
:10552000BB27A7FDB0950E948F38DC01CB018C19F9
:105530009D09AE09BF0980934A2E90934B2EA093EC
:105540004C2EB0934D2E8091FC299091FD29A09175
:10555000FE29B091FF294091C9285091CA28609135
:10556000CB287091CC28841B950BA60BB70B80938E
:10557000F12D9093F22DA093F32DB093F42D409143
:10558000002E5091012E6091022E7091032E809179
:105590004A2E90914B2EA0914C2EB0914D2E840FFF
:1055A000951FA61FB71F8093002E9093012EA093E6
:1055B000022EB093032E8091002E9091012EA09187
:1055C000022EB091032E893C9105A105B1056CF026
:1055D00088EC90E0A0E0B0E08093002E9093012E44
:1055E000A093022EB093032E19C08091002E9091AB
:1055F000012EA091022EB091032E88339F4FAF4F02
:10560000BF4F64F488E39FEFAFEFBFEF8093002EAE
:105610009093012EA093022EB093032E60914A2EF8
:1056200070914B2E80914C2E90914D2E8090682938
:1056300090906929A0906A29B0906B292091F12D52
:105640003091F22D4091F32D5091F42D29833A831E
:105650004B835C834090BD285090BE286090BF284B
:105660007090C028C090002ED090012EE090022EA5
:10567000F090032E20917732309178324091793238
:1056800050917A322D833E834F8358872091D124C5
:105690003091D2244091D3245091D42429873A8741
:1056A0004B875C8700917D3210917E320E945B3681
:1056B000A50194010E9474374B015C0169817A81D4
:1056C0008B819C810E945B36A30192010E947437FA
:1056D0009B01AC01C501B4010E94F3344B015C0194
:1056E000C701B6010E945B362D813E814F815885EE
:1056F0000E9474379B01AC01C501B4010E94F334D0
:105700006B017C0169857A858B859C85959587954C
:10571000779567959801442737FD4095542F0E944F
:105720006A38CA01B9010E945B369B01AC01C7010E
:10573000B6010E94C0350E9428366093FC29709300
:10574000FD298093FE299093FF294091B224509126
:10575000B3248091FC299091FD29A091FE29B0915C
:10576000FF29519541955109662757FD6095762F80
:1057700084179507A607B7079CF48091B2249091EF
:10578000B324919581959109AA2797FDA095BA2FE9
:105790008093FC299093FD29A093FE29B093FF29C3
:1057A0004091B2245091B3248091FC299091FD291D
:1057B000A091FE29B091FF29662757FD6095762FAD
:1057C000481759076A077B0784F48091B2249091A7
:1057D000B324AA2797FDA095BA2F8093FC29909314
:1057E000FD29A093FE29B093FF298091FC29909177
:1057F000FD29A091FE29B091FF29BB230CF053C0D5
:105800004091C9285091CA286091CB287091CC282A
:105810008091FC299091FD29A091FE29B091FF294A
:1058200084179507A607B7070CF08DC04091FC2997
:105830005091FD296091FE297091FF298091C9281E
:105840009091CA28A091CB28B091CC282091CE2449
:105850003091CF2455231CF451954195510999233A
:105860001CF4919581959109481B590B2417350714
:1058700008F069C08091C9289091CA28A091CB28CE
:10588000B091CC282091CE243091CF24821B930B51
:10589000A109B1098093FC299093FD29A093FE29C9
:1058A000B093FF2950C04091C9285091CA286091F7
:1058B000CB287091CC288091FC299091FD29A09152
:1058C000FE29B091FF29481759076A077B07DCF5C5
:1058D0004091FC295091FD296091FE297091FF298A
:1058E0008091C9289091CA28A091CB28B091CC284A
:1058F0002091CE243091CF2455231CF4519541950D
:10590000510999231CF4919581959109481B590BD4
:1059100024173507C0F42091CE243091CF248091F4
:10592000C9289091CA28A091CB28B091CC28820F89
:10593000931FA11DB11D8093FC299093FD29A09375
:10594000FE29B093FF298091FC299091FD29A09117
:10595000FE29B091FF298093C9289093CA28A0936B
:10596000CB28B093CC282C96CDBFDEBFDF91CF9152
:105970001F910F91FF90EF90DF90CF90BF90AF906D
:105980009F908F907F906F905F904F9008954F926F
:105990005F926F927F928F929F92AF92BF92CF92BF
:1059A000DF92EF92FF920F931F93CF93DF93CDB7C8
:1059B000DEB72C97CDBFDEBF8091CA249091CB2457
:1059C000A091CC24B091CD2440918132509182326B
:1059D0006091833270918432841B950BA60BB70BB8
:1059E0008093722E9093732EA093742EB093752E85
:1059F0008091722E9091732EA091742EB091752E7D
:105A00004091EC2D5091ED2D6091EE2D7091EF2D88
:105A1000841B950BA60BB70B8093392E90933A2ECF
:105A2000A0933B2EB0933C2E8091722E9091732EBA
:105A3000A091742EB091752E8093EC2D9093ED2D46
:105A4000A093EE2DB093EF2D4091CD285091CE280C
:105A50006091CF287091D0288091722E9091732EF2
:105A6000A091742EB091752E7095609550954195CA
:105A70005F4F6F4F7F4F84179507A607B707ECF46A
:105A80004091722E5091732E6091742E7091752EEC
:105A90008091733290917432A0917532B0917632C8
:105AA000840F951FA61FB71F8093722E9093732E9D
:105AB000A093742EB093752E31C04091722E5091E8
:105AC000732E6091742E7091752E8091CD289091D7
:105AD000CE28A091CF28B091D02884179507A6078B
