:100000001FC1000043C1000041C100003FC100000A
:100010003DC100003BC1000039C1000037C10000F4
:1000200035C1000033C1000031C100002FC1000004
:100030002DC100002BC1000029C1000027C1000014
:1000400025C1000023C1000021C100001FC1000024
:100050001DC100001BC1000019C1000017C1000034
:1000600015C100000C94E51A0C94D2230FC10000B6
:100070000DC100000BC1000009C1000007C1000054
:1000800005C1000003C100000C940724FFC000005C
:10009000FDC00000FBC00000F9C00000F7C0000078
:1000A000F5C00000F3C00000F1C00000EFC0000088
:1000B000EDC00000EBC00000E9C00000E7C0000098
:1000C000E5C00000E3C00000E1C00000DFC00000A8
:1000D000DDC00000BEC30000D9C00000D7C00000D2
:1000E000D5C00000D3C00000A4C400000C94682355
:1000F000CDC000000C941C0E0C949D23C7C00000C2
:10010000C5C00000C3C00000C1C00000BFC00000E7
:10011000BDC00000BBC00000B9C00000B7C00000F7
:10012000B5C00000B3C00000B1C00000AFC0000007
:10013000ADC000000C941423A9C00000A7C00000AB
:10014000A5C00000A3C00000A1C000000C943E2385
:100150009DC000009BC0000099C0000097C0000037
:1001600095C0000093C0000091C000008FC0000047
:100170008DC000008BC0000089C0000087C0000057
:1001800085C0000083C0000081C000007FC0000067
:100190007DC000007BC0000079C0000077C0000077
:1001A00075C0000073C0000071C000006FC0000087
:1001B0000C94E6336BC000000C94C73367C000009A
:1001C00065C0000063C0000061C000005FC00000A7
:1001D0005DC000005BC0000059C0000057C00000B7
:1001E00055C0000053C0000051C000004FC00000C7
:1001F0004DC00000084AD73B3BCE016E84BCBFFD1A
:10020000C12F3D6C74319ABD56833DDA3D00C77FE6
:1002100011BED9E4BB4C3E916BAAAABE000000807F
:100220003F05A84CCDB2D44EB93836A9020C50B90E
:10023000918688083CA6AAAA2ABE000000803F003A
:1002400011241FBECFEFDFE3DEBFCDBF00E00CBF48
:1002500018BE19BE1ABE1BBE10E2A0E0B0E2E4EF69
:10026000F2E700E00BBF02C007900D92A830B10783
:10027000D9F71BBE22E3A8E0B0E201C01D92AD3861
:10028000B207E1F70E9461350C947839B9CE462F58
:1002900050E066230CF45F6F21E0FC01238324818E
:1002A0003581241B350B822F932F089521E0FC010B
:1002B00023838481861B0895FC01848191E09483CB
:1002C000AFEFB0E01197F1F700C00000848308950C
:1002D000CF93DF93EC018981897E806189838C8152
:1002E000887F81608C838A818F7C8A8388A1807ECD
:1002F000826088A319A2888181608883CE01DCDFB7
:1003000088A1806888A38BA180FFFDCF60E0CE012B
:100310008096CCDF98819E7F9883DF91CF9108955E
:100320008EBB1FBAEAECF1E082E080838EB31082CC
:100330000895CF93DF93EC01C11582E0D80741F413
:1003400080E2EEDF90E0E0E0F2E08487958705C090
:1003500084E2E6DF90E08C879D87DF91CF9108955E
:1003600084ED9AE2A1E0B0E08093D3249093D4246A
:10037000A093D524B093D62485E696E3A0E0B0E020
:100380008093753290937632A0937732B09378321F
:100390006091D3247091D4248091D5249091D62457
:1003A00028EE33E040E050E00E942D392093002EEB
:1003B0003093012E8091753290917632A0917732F0
:1003C000B0917832B595A795979587958093CF286A
:1003D0009093D028A093D128B093D22880917532E1
:1003E00090917632A0917732B0917832B595A795F9
:1003F00097958795B595A7959795879580937E2E28
:1004000090937F2EA093802EB093812E8091753291
:1004100090917632A0917732B0917832689412F848
:10042000B595A795979587951694D1F78093C8248D
:100430009093C924A093CA24B093CB2481E08093E5
:100440005E2980E991E080937F32909380328CE244
:1004500091E08093612E9093622E20E233E020930E
:100460000F2E3093102E80917F32909180328093A6
:10047000B2249093B3248091C8249091C924A09170
:10048000CA24B091CB2480932F2E9093302E2093AA
:100490005E2E30935F2E089580E090E0A0ECB0E4F3
:1004A00080936A2990936B29A0936C29B0936D294E
:1004B00086E696E6A6EABFE38093793290937A3295
:1004C000A0937B32B0937C3280E090E0AAEFB2E45C
:1004D0008093BF289093C028A093C128B093C228CE
:1004E00080E090E0A0E7B1E48093FC2D9093FD2D97
:1004F000A093FE2DB093FF2D80E090E0A0EAB1E440
:100500008093893290938A32A0938B32B0938C324D
:100510004AE959E969E97FE34093A8245093A92463
:100520006093AA247093AB248093A2249093A32475
:10053000A093A424B093A52480E090E0A0ECBFE3B6
:100540008093652E9093662EA093672EB093682EAD
:100550008DEC9CECACE4BEE38093D3289093D4283C
:10056000A093D528B093D6281092B8241092B9241D
:100570001092BA241092BB241092502E1092512E39
:100580001092522E1092532E82E090E08093D0244D
:100590009093D1240895EF920F936894EE24E1F89C
:1005A00008E120E040E06FEF80E696E00E947132C3
:1005B000E0E6F6E08FEF828386898064868BE0E850
:1005C000F1E08EE6808399E09087A0E4B9E081E0D5
:1005D0008C9328E613962C93139716962C911697C6
:1005E0002C7F216016962C932CE622839287E0E0E4
:1005F000F9E080838AE6838386818C7F81608683AD
:100600000F91EF900895CF93DF9380E092E091DE19
:1006100080E092E05DDE80935A2EC0E0D2E08981D6
:10062000897E846089838C81887F8C838A818F7C9A
:100630008A83A0E2B2E08C91807E81608C93E8E2B4
:10064000F2E08081807E8160808311961C9288E038
:1006500081838B818F7380648B83888181608883A1
:1006600080E092E029DE898188608983DF91CF91E3
:100670000895E0EAF0E08281846082838281826072
:100680008283828181608283828180688283789480
:10069000089582E080935000E0E5F0E0818181FFE1
:1006A000FDCF88ED84BFE0E4F0E093E0918384BF68
:1006B00081E080830895FF920F931F93CF93DF9380
:1006C000C0E8D6E088818068888388818F7B8883B2
:1006D00041E060EB7AE08BE090E20E94CD34E09163
:1006E0000B20F0910C2013E0158383818F7C8061B7
:1006F0008383A0EBBAE00F2EF5ECFF2EF02D1696BB
:10070000FC9216970CEA17960C938481806184837F
:1007100084818860848388818860888388818B7FD6
:10072000888341E060EA7AE089E193E20E94CD3477
:10073000E0911923F0911A23158383818F7C8061C6
:100740008383A0EABAE01696FC92169717960C934C
:10075000848180618483848188608483E0E4F6E01E
:1007600080818870808380818B6F808341E060EA24
:1007700078E082E991E20E94CD34E0919221F091FB
:100780009321158383818F7C80618383A0EAB8E005
:100790008BE616968C93169780EB17968C93848134
:1007A00080618483848188608483DF91CF911F91ED
:1007B0000F91FF9008958FE590E0E0E4FAE086A3C2
:1007C00097A362E080E49AE00E94903266E080E4C1
:1007D0009AE00C948A3282E08093900B80915E2E96
:1007E00090915F2EE0E4FBE086A397A385E38183ED
:1007F00081E0808380E3E0EAF6E081830895EF9270
:100800000F93CF93CFEFE0E2F6E0C2836894EE243B
:10081000E1F808E120E040E06FEF80E296E00E941E
:10082000713241E061E080E296E00E946A32E0E4E9
:10083000F6E0C183E0EEF6E0C183C68386E68583F9
:10084000E0EAF6E08FE081838683CF910F91EF900D
:1008500008951F920F920FB60F92112408B60F92AF
:1008600018BE09B60F9219BE0BB60F921BBE2F937E
:100870003F934F935F936F937F938F939F93AF9328
:10088000BF93EF93FF93809164299091652901961E
:10089000809364299093652980915C2E90915D2EC0
:1008A000019680935C2E90935D2E8091C42490914C
:1008B000C52401968093C4249093C5248091582E1A
:1008C0008F5F8093582E8091F92D8F5F8093F92D43
:1008D00080915F298F5F80935F290E94532F8091C1
:1008E00008208F5F80930820809104208F5F809381
:1008F0000420809105208F5F809305208091352E04
:100900009091362E892B49F08091352E9091362E7C
:1009100001978093352E9093362E8091FB2D88235E
:1009200089F08091FB2D8F5F8093FB2D8091FB2DB3
:10093000853640F010925B2E10925D2910923F2E6A
:100940001092FB2D9091582E80917232891708F0E9
:1009500059C08091592E8F3708F054C0809182324F
:10096000823091F5E091592EF0E08091FA29909132
:10097000FB29A091FC29B091FD290196A11DB11D73
:10098000DC018D919D910D90BC91A02DEE0FFF1F6C
:10099000EA5FF54D80839183E091592EF0E08091DC
:1009A000FA299091FB29A091FC29B091FD29DC0145
:1009B0008D919D910D90BC91A02DEE0FFF1FEA5FD0
:1009C000F54D8083918317C0E091592EF0E080911E
:1009D000FA299091FB29A091FC29B091FD29DC0115
:1009E0008D919D910D90BC91A02DEE0FFF1FEA5FA0
:1009F000F54D808391838091592E8F5F8093592E7E
:100A00001092582EFF91EF91BF91AF919F918F91CE
:100A10007F916F915F914F913F912F910F900BBEFE
:100A20000F9009BE0F9008BE0F900FBE0F901F9041
:100A300018951F920F920FB60F92112408B60F92BD
:100A400018BE09B60F9219BE0AB60F921ABE0BB69F
:100A50000F921BBE4F925F926F927F928F929F92E6
:100A6000AF92BF92CF92DF92EF92FF920F931F93BC
:100A70002F933F934F935F936F937F938F939F93A6
:100A8000AF93BF93EF93FF93CF93DF93CDB7DEB7D1
:100A90002897CDBFDEBF89E193E20E941C3580918B
:100AA0005B2E082F10E089E193E20E940E35F801D9
:100AB000E259F64D808380915B2E8F5F80935B2E91
:100AC00080915B2E882319F081E08093FB2D80912B
:100AD0006E29813009F0B0C080915B2E813011F019
:100AE0000C94F00D1092FB2D80916E298093DD28DF
:100AF0006091232E7091242E8091252E9091262E88
:100B00002091002E3091012E40E050E00E942D39BE
:100B1000BB2757FDBA95A52F942F832F8093DE28EE
:100B20006091232E7091242E8091252E9091262E57
:100B30002091002E3091012E40E050E00E942D398E
:100B40002093DF286091022A7091032A8091042A61
:100B50009091052A2091002E3091012E40E050E026
:100B60000E942D39BB2757FDBA95A52F942F832FAF
:100B70008093E0286091022A7091032A8091042AD0
:100B80009091052A2091002E3091012E40E050E0F6
:100B90000E942D392093E1282091833230918432B4
:100BA0004091853250918632C0907532D090763225
:100BB000E0907732F0907832A8E6B1E00E944839B0
:100BC000A70196010E942D39BB2757FDBA95A52F85
:100BD000942F832F8093E2282091833230918432A6
:100BE0004091853250918632C0907532D0907632E5
:100BF000E0907732F0907832A8E6B1E00E94483970
:100C0000A70196010E942D392093E32800E010E00F
:100C1000F801E352F74D608189E193E20E94EF34DD
:100C2000882311F00F5F1F4F0F3011058CF31092C6
:100C30005B2E10925B2ED4C780916E29823009F012
:100C4000BFC080915B2E853008F4CAC71092FB2D7F
:100C50001092F4291092F22D109281321092AE244B
:100C60001092AF241092B0241092B12420916F29D9
:100C70004091AE245091AF246091B0247091B12482
:100C8000922F80E0AA2797FDA095BA2F842B952B51
:100C9000A62BB72B8093AE249093AF24A093B024BF
:100CA000B093B124209170298091AE249091AF240B
:100CB000A091B024B091B124822B8093AE24909364
:100CC000AF24A093B024B093B124A091002EB09192
:100CD000012E2091AE243091AF244091B024509148
:100CE000B1240E9448396093AE247093AF2480935E
:100CF000B0249093B12410920B2E10920C2E1092CF
:100D00000D2E10920E2E2091712940910B2E509194
:100D10000C2E60910D2E70910E2E922F80E0AA273E
:100D200097FDA095BA2F842B952BA62BB72B8093DC
:100D30000B2E90930C2EA0930D2EB0930E2E20917F
:100D4000722980910B2E90910C2EA0910D2EB091B6
:100D50000E2E822B80930B2E90930C2EA0930D2E93
:100D6000B0930E2EA091002EB091012E20910B2E4B
:100D700030910C2E40910D2E50910E2E0E9448392C
:100D800060930B2E70930C2E80930D2E90930E2E4D
:100D900080916E298093DD2800E010E0F801E35295
:100DA000F74D608189E193E20E94EF34882311F0CE
:100DB0000F5F1F4F101611068CF710925B2E10C795
:100DC00080916E29833009F0E3C180915B2E8B30D6
:100DD00008F406C71092FB2D80916F298F3F29F4EC
:100DE000809170298F3F09F453C01092F42910921A
:100DF000F22D109281321092AE241092AF241092F4
:100E0000B0241092B12420916F294091AE245091CA
:100E1000AF246091B0247091B124922F80E0AA2772
:100E200097FDA095BA2F842B952BA62BB72B8093DB
:100E3000AE249093AF24A093B024B093B12420911A
:100E400070298091AE249091AF24A091B024B091EC
:100E5000B124822B8093AE249093AF24A093B0242E
:100E6000B093B124A091002EB091012E2091AE2418
:100E70003091AF244091B0245091B1240E94483960
:100E80006093AE247093AF248093B0249093B124E8
:100E9000809171298F3F29F4809172298F3F09F445
:100EA00053C01092F4291092F22D109281321092B8
:100EB0000B2E10920C2E10920D2E10920E2E2091B1
:100EC000712940910B2E50910C2E60910D2E709136
:100ED0000E2E922F80E0AA2797FDA095BA2F842B83
:100EE000952BA62BB72B80930B2E90930C2EA093B3
:100EF0000D2EB0930E2E2091722980910B2E909181
:100F00000C2EA0910D2EB0910E2E822B80930B2EC5
:100F100090930C2EA0930D2EB0930E2EA091002E28
:100F2000B091012E20910B2E30910C2E40910D2E60
:100F300050910E2E0E94483960930B2E70930C2E08
:100F400080930D2E90930E2E809173298F3F29F45C
:100F5000809174298F3F09F458C01092002010929C
:100F600001201092022010920320209173294091B9
:100F70000020509101206091022070910320922F57
:100F800080E0AA2797FDA095BA2F842B952BA62B3E
:100F9000B72B8093002090930120A0930220B09360
:100FA0000320209174298091002090910120A0912C
:100FB0000220B0910320822B809300209093012087
:100FC000A0930220B09303202091002030910120B3
:100FD00040910220509103206091753270917632D9
:100FE00080917732909178320E94E93828E631E09A
:100FF00040E050E00E942D392093002030930120E2
:10100000409302205093032078C0809175298F3F30
:1010100029F4809176298F3F09F464C01092002052
:101020001092012010920220109203202091752925
:101030004091002050910120609102207091032086
:10104000922F80E0AA2797FDA095BA2F842B952B8D
:10105000A62BB72B8093002090930120A093022011
:10106000B093032020917629809100209091012057
:10107000A0910220B0910320822B809300209093B6
:101080000120A0930220B0930320209100203091F2
:10109000012040910220509103206091753270919F
:1010A00076328091773290917832C0908332D090AE
:1010B0008432E0908532F09086320E94E93828E64A
:1010C00031E040E050E00E942D39C20ED31EE41EF4
:1010D000F51EC0920020D0920120E0920220F092F2
:1010E00003200BC08FEF9FEFDC01809300209093D3
:1010F0000120A0930220B0930320809177298F3F95
:10110000C9F08091772990E09C01220F331F820F54
:10111000931F80937F329093803280917F329091A1
:10112000803299230CF40196959587958093612ED2
:101130009093622E809178298F3F21F080917829B9
:1011400080935E291092582E1092592E1092F92DEC
:101150001092FA2D10925F291092C62480916E2968
:101160008093DD2800E010E0F801E352F74D608144
:1011700089E193E20E94EF34882311F00F5F1F4F43
:10118000101611068CF710925B2E10925B2E28C55C
:1011900080916E29843009F095C180915B2E853055
:1011A00008F41EC51092FB2D1092F4291092F22D16
:1011B000109281321092C5281092C6281092C7282A
:1011C0001092C82820916F294091C5285091C628B7
:1011D0006091C7287091C828922F80E0AA2797FDB8
:1011E000A095BA2F842B952BA62BB72B8093C528BF
:1011F0009093C628A093C728B093C828209170293F
:101200008091C5289091C628A091C728B091C82880
:10121000822B8093C5289093C628A093C728B093AB
:10122000C828A091002EB091012E2091C5283091A0
:10123000C6284091C7285091C8280E944839609319
:10124000C5287093C6288093C7289093C828109209
:10125000162E1092172E1092182E1092192E2091E1
:1012600071294091162E5091172E6091182E709171
:10127000192E922F80E0AA2797FDA095BA2F842BD4
:10128000952BA62BB72B8093162E9093172EA093F9
:10129000182EB093192E209172298091162E9091BC
:1012A000172EA091182EB091192E822B8093162EF6
:1012B0009093172EA093182EB093192E2091162ECE
:1012C0003091172E4091182E5091192E6091753241
:1012D0007091763280917732909178320E94E9381D
:1012E00028E631E040E050E00E942D392093162E90
:1012F0003093172E4093182E5093192E409183321D
:101300005091843260918532709186328091162E90
:101310009091172EA091182EB091192EC090CF2821
:10132000D090D028E090D128F090D22840908332FD
:101330005090843260908532709086320091162EE3
:101340001091172E2091182E3091192E09831A838F
:101350002B833C838090CF289090D028A090D128D8
:10136000B090D2288A019B01080F191F2A1F3B1F2A
:10137000C901B8010E94FC366D837E838F839887F4
:10138000C701B6010E94FC369B01AC016D817E81D4
:101390008F8198850E9461362BED3FE049E450E44F
:1013A0000E9415380E945E366B017C0169817A814A
:1013B0008B819C81640D751D861D971D0E94FC36D6
:1013C0002B013C01C501B4010E94FC369B01AC011C
:1013D000C301B2010E9461362BED3FE049E450E4C5
:1013E0000E9415380E9478384B015C016091C52835
:1013F0007091C6288091C7289091C8284090C52830
:101400005090C6286090C7287090C8282091232E3D
:101410003091242E4091252E5091262E29833A83F7
:101420004B835C830E94FC36A70196010E9415380D
:101430000E94C93609811A812B813C81060F171F32
:10144000281F391F0093AE241093AF242093B0249B
:101450003093B124C090022AD090032AE090042A4D
:10146000F090052AC301B2010E94FC36A501940147
:101470000E9415380E94C936C60ED71EE81EF91EF6
:10148000C0920B2ED0920C2EE0920D2EF0920E2ECA
:1014900080916E298093DD2800E010E0F801E3528E
:1014A000F74D608189E193E20E94EF34882311F0C7
:1014B0000F5F1F4F101611068CF710925B2E1092C3
:1014C0005B2E8EC380916E29853009F06EC08091AD
:1014D0005B2E833008F484C31092FB2D81E080934F
:1014E000813280916F2988238CF480916F2990E05C
:1014F0009C01220F331F220F331F820F931F80582E
:10150000924080937B2E90937C2E10C080916F2907
:1015100090E09C01220F331F220F331F820F931F75
:101520008058924080937B2E90937C2E80917029DE
:1015300088238CF48091702990E09C01220F331F46
:10154000220F331F820F931F805892408093792E71
:1015500090937A2E10C08091702990E09C01220F08
:10156000331F220F331F820F931F805892408093A6
:10157000792E90937A2E80916E298093DD2800E059
:1015800010E0F801E352F74D608189E193E20E9497
:10159000EF34882311F00F5F1F4F101611068CF7E0
:1015A00010925B2E10925B2E1BC380916E298630A9
:1015B00009F056C080915B2E873008F411C3109259
:1015C000FB2DE0E4F6E094814FE659E2DA018C91DC
:1015D00060E779E2DB012C918223892B848394815B
:1015E000DA018C91DB012C918227809589238483F9
:1015F0008091712990E088589F4FE0E0FBE080A740
:1016000091A78091722990E088589F4F82A793A755
:101610008091732990E088589F4F84A795A7809167
:10162000742990E088589F4F86A797A780916E29CC
:101630008093DD2800E010E0F801E352F74D60816F
:1016400089E193E20E94EF34882311F00F5F1F4F6E
:10165000101611068CF710925B2E10925B2EC0C2F2
:1016600080916E29873009F07DC180915B2E873093
:1016700008F4B6C21092FB2D80916F298F3F29F498
:10168000809170298F3F09F46DC01092232E109223
:10169000242E1092252E1092262E20916F294091F3
:1016A000232E5091242E6091252E7091262E922F5C
:1016B00080E0AA2797FDA095BA2F842B952BA62B07
:1016C000B72B8093232E9093242EA093252EB09396
:1016D000262E209170298091232E9091242EA09166
:1016E000252EB091262E822B8093232E9093242E8C
:1016F000A093252EB093262EA091002EB091012EFE
:101700002091232E3091242E4091252E5091262E6B
:101710000E9448396093232E7093242E8093252EA7
:101720009093262E8091232E9091242EA091252EE9
:10173000B091262E8093AE249093AF24A093B02432
:10174000B093B1248091232E9091242EA091252E28
:10175000B091262E8093312E9093322EA093332E6B
:10176000B093342E809171298F3F29F48091722992
:101770008F3F09F46DC01092022A1092032A109232
:10178000042A1092052A209171294091022A509131
:10179000032A6091042A7091052A922F80E0AA27DB
:1017A00097FDA095BA2F842B952BA62BB72B809352
:1017B000022A9093032AA093042AB093052A209129
:1017C00072298091022A9091032AA091042AB09153
:1017D000052A822B8093022A9093032AA093042A3D
:1017E000B093052AA091002EB091012E2091022ADB
:1017F0003091032A4091042A5091052A0E944839C9
:101800006093022A7093032A8093042A9093052AF6
:101810008091022A9091032AA091042AB091052A6E
:1018200080930B2E90930C2EA0930D2EB0930E2E22
:101830008091022A9091032AA091042AB091052A4E
:101840008093702E9093712EA093722EB093732E6E
:10185000809173298F3F29F4809174298F3F09F477
:1018600067C01092833210928432109285321092A7
:101870008632209173294091833250918432609155
:10188000853270918632922F80E0AA2797FDA0952D
:10189000BA2F842B952BA62BB72B80938332909352
:1018A0008432A0938532B09386322091742980913E
:1018B000833290918432A0918532B0918632822B0E
:1018C0008093833290938432A0938532B093863292
:1018D000209183323091843240918532509186320A
:1018E0006091753270917632809177329091783232
:1018F0000E94E93828E631E040E050E00E942D39AE
:1019000020938332309384324093853250938632D1
:101910008091833290918432A0918532B091863249
:101920008093CC249093CD24A093CE24B093CF2445
:1019300080916E298093DD2800E010E0F801E352E9
:10194000F74D608189E193E20E94EF34882311F022
:101950000F5F1F4F101611068CF710925B2E10921E
:101960005B2E3EC180916E298830D9F580915B2E27
:10197000833008F435C11092FB2D80916F2981309E
:1019800039F48093F22D10927B2E10927C2E02C09F
:101990001092F22D80917029813039F48093F429CE
:1019A0001092792E10927A2E02C01092F429809112
:1019B0006E298093DD2800E010E0F801E352F74D36
:1019C000608189E193E20E94EF34882311F00F5F78
:1019D0001F4F101611068CF710925B2E10925B2E83
:1019E000FFC080916E29853609F04BC080915B2E37
:1019F000813009F0F5C01092FB2D80916E29809303
:101A0000DD286091232E7091242E8091252E9091B7
:101A1000262E2091002E3091012E40E050E00E94B1
:101A20002D39BB2757FDBA95A52F942F832F80936F
:101A3000DE286091232E7091242E8091252E909186
:101A4000262E2091002E3091012E40E050E00E9481
:101A50002D392093DF2800E010E0F801E352F74D24
:101A6000608189E193E20E94EF34882311F00F5FD7
:101A70001F4F033011058CF310925B2E10925B2EDA
:101A8000AFC080916E29863609F04BC080915B2EE5
:101A9000813009F0A5C01092FB2D80916E298093B2
:101AA000DD286091022A7091032A8091042A909186
:101AB000052A2091002E3091012E40E050E00E9436
:101AC0002D39BB2757FDBA95A52F942F832F8093CF
:101AD000DE286091022A7091032A8091042A909155
:101AE000052A2091002E3091012E40E050E00E9406
:101AF0002D392093DF2800E010E0F801E352F74D84
:101B0000608189E193E20E94EF34882311F00F5F36
:101B10001F4F033011058CF310925B2E10925B2E39
:101B20005FC080916E29873609F05AC080915B2E84
:101B3000813009F055C01092FB2D80916E29809361
:101B4000DD2820918332309184324091853250914A
:101B50008632C0907532D0907632E0907732F09035
:101B60007832A8E6B1E00E944839A70196010E94A8
:101B70002D39BB2757FDBA95A52F942F832F80931E
:101B8000DE28209183323091843240918532509109
:101B90008632C0907532D0907632E0907732F090F5
:101BA0007832A8E6B1E00E944839A70196010E9468
:101BB0002D392093DF2800E010E0F801E352F74DC3
:101BC000608189E193E20E94EF34882311F00F5F76
:101BD0001F4F033011058CF310925B2E10925B2E79
:101BE0002896CDBFDEBFDF91CF91FF91EF91BF91DE
:101BF000AF919F918F917F916F915F914F913F91A5
:101C00002F911F910F91FF90EF90DF90CF90BF9099
:101C1000AF909F908F907F906F905F904F900F90BC
:101C20000BBE0F900ABE0F9009BE0F9008BE0F901A
:101C30000FBE0F901F9018951F920F920FB60F9224
:101C4000112408B60F9218BE09B60F9219BE0AB633
:101C50000F921ABE0BB60F921BBE4F925F926F92FD
:101C60007F928F929F92AF92BF92CF92DF92EF922C
:101C7000FF920F931F932F933F934F935F936F9315
:101C80007F938F939F93AF93BF93EF93FF93CF93E4
:101C9000DF93CDB7DEB72897CDBFDEBF8BE090E2F4
:101CA0000E941C3580915D29082F10E08BE090E2A6
:101CB0000E940E35F801E259F64D808380915D292E
:101CC0008F5F80935D2980915D29882319F081E0E1
:101CD0008093FB2D80916E29813009F000C18091A5
:101CE0005D29813011F00C94B91A1092FB2D80916E
:101CF0006E298093DD286091232E7091242E80918F
:101D0000252E9091262E2091002E3091012E40E01C
:101D100050E00E942D39BB2757FDBA95A52F942F6F
:101D2000832F8093DE286091232E7091242E809142
:101D3000252E9091262E2091002E3091012E40E0EC
:101D400050E00E942D392093DF286091022A709183
:101D5000032A8091042A9091052A2091002E309127
:101D6000012E40E050E00E942D39BB2757FDBA9567
:101D7000A52F942F832F8093E0286091022A7091E1
:101D8000032A8091042A9091052A2091002E3091F7
:101D9000012E40E050E00E942D392093E12820914F
:101DA0008332309184324091853250918632C09096
:101DB0007532D0907632E0907732F0907832A8E6A3
:101DC000B1E00E944839A70196010E942D39BB2736
:101DD00057FDBA95A52F942F832F8093E228209149
:101DE0008332309184324091853250918632C09056
:101DF0007532D0907632E0907732F0907832A8E663
:101E0000B1E00E944839A70196010E942D39209324
:101E1000E3286091122E7091132E8091142E9091D0
:101E2000152E2091002E3091012E40E050E00E94AE
:101E30002D39BB2757FDBA95A52F942F832F80935B
:101E4000E4286091122E7091132E8091142E90919F
:101E5000152E2091002E3091012E40E050E00E947E
:101E60002D392093E528809106208093E6288091E3
:101E7000A0249091A1248093E7288091C024909180
:101E8000C1248093E82860915A2E80E292E00E945B
:101E900047018093E92860915A2E88E292E00E94DF
:101EA00047018093EA28E0E2F6E080858093EB2802
:101EB00000E010E0F801E352F74D60818BE090E222
:101EC0000E94EF34882311F00F5F1F4F0F30110570
:101ED0008CF310925D2910925D290C94B91A8091AF
:101EE0006E29823009F0C1C080915D29853010F4DF
:101EF0000C94B91A1092FB2D1092F4291092F22D25
:101F0000109281321092AE241092AF241092B0241D
:101F10001092B12420916F294091AE245091AF24AA
:101F20006091B0247091B124922F80E0AA2797FD90
:101F3000A095BA2F842B952BA62BB72B8093AE247C
:101F40009093AF24A093B024B093B1242091702932
:101F50008091AE249091AF24A091B024B091B1248F
:101F6000822B8093AE249093AF24A093B024B0939F
:101F7000B124A091002EB091012E2091AE24309179
:101F8000AF244091B0245091B1240E94483960930D
:101F9000AE247093AF248093B0249093B124109218
:101FA0000B2E10920C2E10920D2E10920E2E2091B0
:101FB000712940910B2E50910C2E60910D2E709135
:101FC0000E2E922F80E0AA2797FDA095BA2F842B82
:101FD000952BA62BB72B80930B2E90930C2EA093B2
:101FE0000D2EB0930E2E2091722980910B2E909180
:101FF0000C2EA0910D2EB0910E2E822B80930B2EC5
:1020000090930C2EA0930D2EB0930E2EA091002E27
:10201000B091012E20910B2E30910C2E40910D2E5F
:1020200050910E2E0E94483960930B2E70930C2E07
:1020300080930D2E90930E2E80916E298093DD2833
:1020400000E010E0F801E352F74D60818BE090E290
:102050000E94EF34882311F00F5F1F4F10161106F6
:102060008CF710925D290C94B91A80916E298330F7
:1020700009F0E5C180915D298B3010F40C94B91AF8
:102080001092FB2D80916F298F3F29F48091702948
:102090008F3F09F453C01092F4291092F22D109240
:1020A00081321092AE241092AF241092B02410927C
:1020B000B12420916F294091AE245091AF246091BA
:1020C000B0247091B124922F80E0AA2797FDA095AB
:1020D000BA2F842B952BA62BB72B8093AE249093ED
:1020E000AF24A093B024B093B124209170298091A3
:1020F000AE249091AF24A091B024B091B124822B52
:102100008093AE249093AF24A093B024B093B124D5
:10211000A091002EB091012E2091AE243091AF24D9
:102120004091B0245091B1240E9448396093AE246C
:102130007093AF248093B0249093B124809171293F
:102140008F3F29F4809172298F3F09F453C0109278
:10215000F4291092F22D1092813210920B2E1092CF
:102160000C2E10920D2E10920E2E2091712940915E
:102170000B2E50910C2E60910D2E70910E2E922FE1
:1021800080E0AA2797FDA095BA2F842B952BA62B2C
:10219000B72B80930B2E90930C2EA0930D2EB09303
:1021A0000E2E2091722980910B2E90910C2EA091D1
:1021B0000D2EB0910E2E822B80930B2E90930C2E11
:1021C000A0930D2EB0930E2EA091002EB091012E53
:1021D00020910B2E30910C2E40910D2E50910E2EF1
:1021E0000E94483960930B2E70930C2E80930D2E15
:1021F00090930E2E809173298F3F29F4809174293A
:102200008F3F09F458C010920020109201201092C4
:1022100002201092032020917329409100205091B8
:1022200001206091022070910320922F80E0AA2764
:1022300097FDA095BA2F842B952BA62BB72B8093B7
:10224000002090930120A0930220B09303202091BE
:1022500074298091002090910120A0910220B091DA
:102260000320822B8093002090930120A0930220D2
:10227000B093032020910020309101204091022052
:10228000509103206091753270917632809177324F
:10229000909178320E94E93828E631E040E050E041
:1022A0000E942D392093002030930120409302207A
:1022B0005093032078C0809175298F3F29F4809135
:1022C00076298F3F09F464C01092002010920120FB
:1022D0001092022010920320209175294091002035
:1022E000509101206091022070910320922F80E094
:1022F000AA2797FDA095BA2F842B952BA62BB72B39
:102300008093002090930120A0930220B09303209B
:10231000209176298091002090910120A0910220A7
:10232000B0910320822B8093002090930120A093F2
:102330000220B09303202091002030910120409191
:102340000220509103206091753270917632809115
:10235000773290917832C0908332D0908432E0907E
:102360008532F09086320E94E93828E631E040E07C
:1023700050E00E942D39C20ED31EE41EF51EC092FD
:102380000020D0920120E0920220F09203200BC0A6
:102390008FEF9FEFDC018093002090930120A093AA
:1023A0000220B0930320809177298F3FC9F080915C
:1023B000772990E09C01220F331F820F931F809397
:1023C0007F329093803280917F3290918032992336
:1023D0000CF40196959587958093612E9093622ECB
:1023E000809178298F3F21F08091782980935E2910
:1023F0001092582E1092592E1092F92D1092FA2DFB
:1024000010925F291092C62480916E298093DD2856
:1024100000E010E0F801E352F74D60818BE090E2BC
:102420000E94EF34882311F00F5F1F4F1016110622
:102430008CF710925D2910925D290C94B91A809145
:102440006E29843009F096C180915D29853010F4A1
:102450000C94B91A1092FB2D1092F4291092F22DBF
:10246000109281321092C5281092C6281092C72867
:102470001092C82820916F294091C5285091C628F4
:102480006091C7287091C828922F80E0AA2797FDF5
:10249000A095BA2F842B952BA62BB72B8093C528FC
:1024A0009093C628A093C728B093C828209170297C
:1024B0008091C5289091C628A091C728B091C828BE
:1024C000822B8093C5289093C628A093C728B093E9
:1024D000C828A091002EB091012E2091C5283091DE
:1024E000C6284091C7285091C8280E944839609357
:1024F000C5287093C6288093C7289093C828109247
:10250000162E1092172E1092182E1092192E20911E
:1025100071294091162E5091172E6091182E7091AE
:10252000192E922F80E0AA2797FDA095BA2F842B11
:10253000952BA62BB72B8093162E9093172EA09336
:10254000182EB093192E209172298091162E9091F9
:10255000172EA091182EB091192E822B8093162E33
:102560009093172EA093182EB093192E2091162E0B
:102570003091172E4091182E5091192E609175327E
:102580007091763280917732909178320E94E9385A
:1025900028E631E040E050E00E942D392093162ECD
:1025A0003093172E4093182E5093192E409183325A
:1025B0005091843260918532709186328091162ECE
:1025C0009091172EA091182EB091192EC090CF285F
:1025D000D090D028E090D128F090D228409083323B
:1025E0005090843260908532709086320091162E21
:1025F0001091172E2091182E3091192E09831A83CD
:102600002B833C838090CF289090D028A090D12815
:10261000B090D2288A019B01080F191F2A1F3B1F67
:10262000C901B8010E94FC366D837E838F83988731
:10263000C701B6010E94FC369B01AC016D817E8111
:102640008F8198850E9461362BED3FE049E450E48C
:102650000E9415380E945E366B017C0169817A8187
:102660008B819C81640D751D861D971D0E94FC3613
:102670002B013C01C501B4010E94FC369B01AC0159
:10268000C301B2010E9461362BED3FE049E450E402
:102690000E9415380E9478384B015C016091C52872
:1026A0007091C6288091C7289091C8284090C5286D
:1026B0005090C6286090C7287090C8282091232E7B
:1026C0003091242E4091252E5091262E29833A8335
:1026D0004B835C830E94FC36A70196010E9415384B
:1026E0000E94C93609811A812B813C81060F171F70
:1026F000281F391F0093AE241093AF242093B024D9
:102700003093B124C090022AD090032AE090042A8A
:10271000F090052AC301B2010E94FC36A501940184
:102720000E9415380E94C936C60ED71EE81EF91E33
:10273000C0920B2ED0920C2EE0920D2EF0920E2E07
:1027400080916E298093DD2800E010E0F801E352CB
:10275000F74D60818BE090E20E94EF34882311F006
:102760000F5F1F4F101611068CF710925D29109203
:102770005D29FFC680916E29853009F06EC0809179
:102780005D29833008F4F5C61092FB2D81E080931B
:10279000813280916F2988238CF480916F2990E099
:1027A0009C01220F331F220F331F820F931F80586B
:1027B000924080937B2E90937C2E10C080916F2945
:1027C00090E09C01220F331F220F331F820F931FB3
:1027D0008058924080937B2E90937C2E809170291C
:1027E00088238CF48091702990E09C01220F331F84
:1027F000220F331F820F931F805892408093792EAF
:1028000090937A2E10C08091702990E09C01220F45
:10281000331F220F331F820F931F805892408093E3
:10282000792E90937A2E80916E298093DD2800E096
:1028300010E0F801E352F74D60818BE090E20E94D6
:10284000EF34882311F00F5F1F4F101611068CF71D
:1028500010925D2910925D298CC680916E29863078
:1028600009F056C080915D29873008F482C6109225
:10287000FB2DE0E4F6E094814FE659E2DA018C9119
:1028800060E779E2DB012C918223892B8483948198
:10289000DA018C91DB012C91822780958923848336
:1028A0008091712990E088589F4FE0E0FBE080A77D
:1028B00091A78091722990E088589F4F82A793A793
:1028C0008091732990E088589F4F84A795A78091A5
:1028D000742990E088589F4F86A797A780916E290A
:1028E0008093DD2800E010E0F801E352F74D6081AD
:1028F0008BE090E20E94EF34882311F00F5F1F4FAE
:10290000101611068CF710925D2910925D2931C6C0
:1029100080916E29873009F07DC180915D298730D3
:1029200008F427C61092FB2D80916F298F3F29F460
:10293000809170298F3F09F46DC01092232E109260
:10294000242E1092252E1092262E20916F29409130
:10295000232E5091242E6091252E7091262E922F99
:1029600080E0AA2797FDA095BA2F842B952BA62B44
:10297000B72B8093232E9093242EA093252EB093D3
:10298000262E209170298091232E9091242EA091A3
:10299000252EB091262E822B8093232E9093242EC9
:1029A000A093252EB093262EA091002EB091012E3B
:1029B0002091232E3091242E4091252E5091262EA9
:1029C0000E9448396093232E7093242E8093252EE5
:1029D0009093262E8091232E9091242EA091252E27
:1029E000B091262E8093AE249093AF24A093B02470
:1029F000B093B1248091232E9091242EA091252E66
:102A0000B091262E8093312E9093322EA093332EA8
:102A1000B093342E809171298F3F29F480917229CF
:102A20008F3F09F46DC01092022A1092032A10926F
:102A3000042A1092052A209171294091022A50916E
:102A4000032A6091042A7091052A922F80E0AA2718
:102A500097FDA095BA2F842B952BA62BB72B80938F
:102A6000022A9093032AA093042AB093052A209166
:102A700072298091022A9091032AA091042AB09190
:102A8000052A822B8093022A9093032AA093042A7A
:102A9000B093052AA091002EB091012E20910B2E0B
:102AA00030910C2E40910D2E50910E2E0E944839DF
:102AB0006093022A7093032A8093042A9093052A34
:102AC0008091022A9091032AA091042AB091052AAC
:102AD00080930B2E90930C2EA0930D2EB0930E2E60
:102AE0008091022A9091032AA091042AB091052A8C
:102AF0008093702E9093712EA093722EB093732EAC
:102B0000809173298F3F29F4809174298F3F09F4B4
:102B100067C01092833210928432109285321092E4
:102B20008632209173294091833250918432609192
:102B3000853270918632922F80E0AA2797FDA0956A
:102B4000BA2F842B952BA62BB72B8093833290938F
:102B50008432A0938532B09386322091742980917B
:102B6000833290918432A0918532B0918632822B4B
:102B70008093833290938432A0938532B0938632CF
:102B80002091833230918432409185325091863247
:102B9000609175327091763280917732909178326F
:102BA0000E94E93828E631E040E050E00E942D39EB
:102BB000209383323093843240938532509386320F
:102BC0008091833290918432A0918532B091863287
:102BD0008093CC249093CD24A093CE24B093CF2483
:102BE00080916E298093DD2800E010E0F801E35227
:102BF000F74D60818BE090E20E94EF34882311F062
:102C00000F5F1F4F101611068CF710925D2910925E
:102C10005D29AFC480916E298830D9F580915D29F6
:102C2000833008F4A6C41092FB2D80916F29813067
:102C300039F48093F22D10927B2E10927C2E02C0DC
:102C40001092F22D80917029813039F48093F4290B
:102C50001092792E10927A2E02C01092F42980914F
:102C60006E298093DD2800E010E0F801E352F74D73
:102C700060818BE090E20E94EF34882311F00F5FB7
:102C80001F4F101611068CF710925D2910925D29C6
:102C900070C480916E29893009F003C180915D294B
:102CA000863008F466C41092FB2D109266291092AB
:102CB00067291092682910926929209170298091C2
:102CC000662990916729A0916829B0916929B22B52
:102CD0008093662990936729A0936829B093692906
:102CE000209171298091662990916729A091682986
:102CF000B0916929A22B8093662990936729A093AC
:102D00006829B09369292091722980916629909150
:102D10006729A0916829B0916929922B809366292F
:102D200090936729A0936829B0936929209173290A
:102D30008091662990916729A0916829B0916929AD
:102D4000822B8093662990936729A0936829B0937A
:102D5000692980916F298130B1F480916629909121
:102D60006729A0916829B0916929FC01808191812E
:102D7000A281B3818093E1281092E0281092DF288D
:102D80001092DE2874C080916F29823031F58091D5
:102D9000662990916729A0916829B0916929FC0161
:102DA00080819181A281B3818093E12880916629FD
:102DB00090916729A0916829B09169290196A11D78
:102DC000B11DFC0180819181A281B3818093E028B3
:102DD0001092DF281092DE284AC080916F2984303B
:102DE00009F045C08091662990916729A0916829D2
:102DF000B0916929FC0180819181A281B381809386
:102E0000E1288091662990916729A0916829B09165
:102E100069290196A11DB11DFC0180819181A281CA
:102E2000B3818093E0288091662990916729A091D1
:102E30006829B09169290296A11DB11DFC0180810C
:102E40009181A281B3818093DF288091662990913E
:102E50006729A0916829B09169290396A11DB11D28
:102E6000FC0180819181A281B3818093DE288091D1
:102E70006E298093DD2800E010E0F801E352F74D61
:102E800060818BE090E20E94EF34882311F00F5FA5
:102E90001F4F053011058CF310925D2910925D29AA
:102EA00068C380916E298A3009F08EC180915D29B6
:102EB0008A3008F45EC31092FB2D1092662910929E
:102EC00067291092682910926929209170298091B0
:102ED000662990916729A0916829B0916929B22B40
:102EE0008093662990936729A0936829B0936929F4
:102EF000209171298091662990916729A091682974
:102F0000B0916929A22B8093662990936729A09399
:102F10006829B0936929209172298091662990913E
:102F20006729A0916829B0916929922B809366291D
:102F300090936729A0936829B093692920917329F8
:102F40008091662990916729A0916829B09169299B
:102F5000822B8093662990936729A0936829B09368
:102F6000692980916F29843009F097C08091662982
:102F700090916729A0916829B0916929FC018091FD
:102F8000772990E0A0E0B0E080839183A283B383AF
:102F90008091662990916729A0916829B09169294B
:102FA0000196A11DB11DFC018091762990E0A0E061
:102FB000B0E080839183A283B3838091662990914E
:102FC0006729A0916829B09169290296A11DB11DB8
:102FD000FC018091752990E0A0E0B0E080839183AE
:102FE000A283B3838091662990916729A091682973
:102FF000B09169290396A11DB11DFC01809174292E
:1030000090E0A0E0B0E080839183A283B3838091BD
:10301000662990916729A0916829B0916929039642
:10302000A11DB11DFC0180819181A281B38180939A
:10303000DE288091662990916729A0916829B09136
:1030400069290296A11DB11DFC0180819181A28197
:10305000B3818093DF288091662990916729A091A0
:103060006829B09169290196A11DB11DFC018081DB
:103070009181A281B3818093E0288091662990910B
:103080006729A0916829B0916929FC01808191810B
:10309000A281B3818093E1287DC080916F29823025
:1030A00009F04DC08091662990916729A091682907
:1030B000B0916929FC018091772990E0A0E0B0E00F
:1030C00080839183A283B38380916629909167293D
:1030D000A0916829B09169290196A11DB11DFC013B
:1030E0008091762990E0A0E0B0E080839183A28374
:1030F000B3831092DE281092DF2880916629909188
:103100006729A0916829B09169290196A11DB11D77
:10311000FC0180819181A281B3818093E02880911C
:10312000662990916729A0916829B0916929FC01CD
:1031300080819181A281B3818093E1282BC080910D
:103140006F29813039F58091662990916729A09186
:103150006829B0916929FC018091772990E0A0E06D
:10316000B0E080839183A283B3831092DE28109213
:10317000DF281092E0288091662990916729A0911C
:103180006829B0916929FC0180819181A281B38174
:103190008093E12880916E298093DD2800E010E083
:1031A000F801E352F74D60818BE090E20E94EF342A
:1031B000882311F00F5F1F4F053011058CF310921B
:1031C0005D2910925D29D5C180916E298B3009F05F
:1031D00044C180915D29873008F4CBC11092FB2D4A
:1031E00080916F29813009F05CC0809170298093B3
:1031F000723280917129809382321092FA29109252
:10320000FB291092FC291092FD29209172298091AE
:10321000FA299091FB29A091FC29B091FD29B22BAC
:103220008093FA299093FB29A093FC29B093FD2960
:10323000209173298091FA299091FB29A091FC2972
:10324000B091FD29A22B8093FA299093FB29A0939A
:10325000FC29B093FD29209174298091FA2990913D
:10326000FB29A091FC29B091FD29922B8093FA298A
:103270009093FB29A093FC29B093FD2920917529F7
:103280008091FA299091FB29A091FC29B091FD2908
:10329000822B8093FA299093FB29A093FC29B09369
:1032A000FD2980916F29823009F05CC080917029DE
:1032B00080937D2E809171298093602E1092BC2482
:1032C0001092BD241092BE241092BF242091722926
:1032D0008091BC249091BD24A091BE24B091BF24C4
:1032E000B22B8093BC249093BD24A093BE24B093B2
:1032F000BF24209173298091BC249091BD24A0917A
:10330000BE24B091BF24A22B8093BC249093BD24F3
:10331000A093BE24B093BF24209174298091BC2433
:103320009091BD24A091BE24B091BF24922B809394
:10333000BC249093BD24A093BE24B093BF242091BD
:1033400075298091BC249091BD24A091BE24B09198
:10335000BF24822B8093BC249093BD24A093BE24D1
:10336000B093BF2480916F29833009F05CC08091B5
:1033700070298093112E809171298093D22410920C
:10338000402E1092412E1092422E1092432E2091E8
:1033900072298091402E9091412EA091422EB091A1
:1033A000432EB22B8093402E9093412EA093422E19
:1033B000B093432E209173298091402E9091412EFD
:1033C000A091422EB091432EA22B8093402E909339
:1033D000412EA093422EB093432E209174298091C8
:1033E000402E9091412EA091422EB091432E922BCF
:1033F0008093402E9093412EA093422EB093432E63
:10340000209175298091402E9091412EA091422EBD
:10341000B091432E822B8093402E9093412EA09307
:10342000422EB093432E80916E298093DD2800E0D8
:1034300010E0F801E352F74D60818BE090E20E94CA
:10344000EF34882311F00F5F1F4F101611068CF711
:1034500010925D2910925D298CC080916E298C306C
:1034600009F087C080915D29823008F482C01092F3
:10347000FB2D80916F298130F9F420E030E080E06D
:1034800090E0FC01EE0FFF1FEA5FF54D4081518196
:10349000452F550F550BD901A352B74D4C93408181
:1034A0005181F901E252F74D40832E5F3F4F019663
:1034B0008F37910531F75AC080916F298230F9F426
:1034C00020E030E080E090E0FC01EE0FFF1FE657C7
:1034D000F14D40815181452F550F550BD901A35214
:1034E000B74D4C9340815181F901E252F74D408331
:1034F0002E5F3F4F01968F37910531F737C080918E
:103500006F29833099F520E030E080E090E0FC0105
:10351000EE0FFF1FE952FB4D40815181452F550FA2
:10352000550BD901A352B74D4C9340815181F901FC
:10353000E252F74D40832E5F3F4F01968F37910542
:1035400031F714C0F801E352F74D60818BE090E24F
:103550000E94EF34882311F00F5F1F4F0E3F1105BB
:103560008CF310925D2910925D2903C000E010E0F9
:10357000E9CF2896CDBFDEBFDF91CF91FF91EF91CC
:10358000BF91AF919F918F917F916F915F914F917B
:103590003F912F911F910F91FF90EF90DF90CF906F
:1035A000BF90AF909F908F907F906F905F904F9063
:1035B0000F900BBE0F900ABE0F9009BE0F9008BE71
:1035C0000F900FBE0F901F9018951F920F920FB67D
:1035D0000F92112408B60F9218BE09B60F9219BEA9
:1035E0000AB60F921ABE0BB60F921BBE4F925F9295
:1035F0006F927F928F929F92AF92BF92CF92DF9203
:10360000EF92FF920F931F932F933F934F935F93EC
:103610006F937F938F939F93AF93BF93EF93FF939A
:10362000CF93DF9300D01F92CDB7DEB782E991E24E
:103630000E941C3580913F2E082F10E082E991E214
:103640000E940E35F801E259F64D808380913F2E9D
:103650008F5F80933F2E80913F2E882319F081E069
:103660008093FB2D80916E29813009F0FEC08091FE
:103670003F2E813009F0ACC71092FB2D80916E294E
:103680008093DD286091232E7091242E8091252E29
:103690009091262E2091002E3091012E40E050E096
:1036A0000E942D39BB2757FDBA95A52F942F832F44
:1036B0008093DE286091232E7091242E8091252EF8
:1036C0009091262E2091002E3091012E40E050E066
:1036D0000E942D392093DF286091022A7091032ADD
:1036E0008091042A9091052A2091002E3091012E7C
:1036F00040E050E00E942D39BB2757FDBA95A52F19
:10370000942F832F8093E0286091022A7091032ADE
:103710008091042A9091052A2091002E3091012E4B
:1037200040E050E00E942D392093E128209183321F
:10373000309184324091853250918632C0907532FA
:10374000D0907632E0907732F0907832A8E6B1E00F
:103750000E944839A70196010E942D39BB2757FDC9
:10376000BA95A52F942F832F8093E228209183323E
:10377000309184324091853250918632C0907532BA
:10378000D0907632E0907732F0907832A8E6B1E0CF
:103790000E944839A70196010E942D392093E32801
:1037A0006091122E7091132E8091142E9091152EEF
:1037B0002091002E3091012E40E050E00E942D39E2
:1037C000BB2757FDBA95A52F942F832F8093E4280C
:1037D0006091122E7091132E8091142E9091152EBF
:1037E0002091002E3091012E40E050E00E942D39B2
:1037F0002093E528809106208093E6288091A024DC
:103800009091A1248093E7288091C0249091C124B5
:103810008093E82860915A2E80E292E00E9447014E
:103820008093E92860915A2E88E292E00E94470135
:103830008093EA28E0E2F6E080858093EB2800E0C0
:1038400010E0F801E352F74D608182E991E20E94B5
:10385000EF34882311F00F5F1F4F0F3011058CF3E9
:1038600010923F2E10923F2EB3C680916E29823067
:1038700009F0BFC080913F2E853008F4A9C6109290
:10388000FB2D1092F4291092F22D10928132109299
:10389000AE241092AF241092B0241092B124209143
:1038A0006F294091AE245091AF246091B024709163
:1038B000B124922F80E0AA2797FDA095BA2F842BE0
:1038C000952BA62BB72B8093AE249093AF24A09377
:1038D000B024B093B124209170298091AE249091AE
:1038E000AF24A091B024B091B124822B8093AE2458
:1038F0009093AF24A093B024B093B124A091002E54
:10390000B091012E2091AE243091AF244091B0248B
:103910005091B1240E9448396093AE247093AF2433
:103920008093B0249093B12410920B2E10920C2E01
:1039300010920D2E10920E2E2091712940910B2E77
:1039400050910C2E60910D2E70910E2E922F80E0D2
:10395000AA2797FDA095BA2F842B952BA62BB72BC2
:1039600080930B2E90930C2EA0930D2EB0930E2EC1
:103970002091722980910B2E90910C2EA0910D2EEA
:10398000B0910E2E822B80930B2E90930C2EA09331
:103990000D2EB0930E2EA091002EB091012E2091ED
:1039A0000B2E30910C2E40910D2E50910E2E0E9418
:1039B000483960930B2E70930C2E80930D2E9093AC
:1039C0000E2E80916E298093DD2800E010E0F80132
:1039D000E352F74D608182E991E20E94EF3488233F
:1039E00011F00F5F1F4F101611068CF710923F2E2B
:1039F000EFC580916E29833009F0E3C180913F2E9D
:103A00008B3008F4E5C51092FB2D80916F298F3F14
:103A100029F4809170298F3F09F453C01092F42942
:103A20001092F22D109281321092AE241092AF2497
:103A30001092B0241092B12420916F294091AE24AD
:103A40005091AF246091B0247091B124922F80E006
:103A5000AA2797FDA095BA2F842B952BA62BB72BC1
:103A60008093AE249093AF24A093B024B093B1245C
:103A7000209170298091AE249091AF24A091B02420
:103A8000B091B124822B8093AE249093AF24A09365
:103A9000B024B093B124A091002EB091012E2091BA
:103AA000AE243091AF244091B0245091B1240E94B3
:103AB00048396093AE247093AF248093B0249093E0
:103AC000B124809171298F3F29F4809172298F3F11
:103AD00009F453C01092F4291092F22D1092813201
:103AE00010920B2E10920C2E10920D2E10920E2E64
:103AF0002091712940910B2E50910C2E60910D2E2A
:103B000070910E2E922F80E0AA2797FDA095BA2FD4
:103B1000842B952BA62BB72B80930B2E90930C2EDA
:103B2000A0930D2EB0930E2E2091722980910B2E12
:103B300090910C2EA0910D2EB0910E2E822B809381
:103B40000B2E90930C2EA0930D2EB0930E2EA091C1
:103B5000002EB091012E20910B2E30910C2E409111
:103B60000D2E50910E2E0E94483960930B2E7093AB
:103B70000C2E80930D2E90930E2E809173298F3FE3
:103B800029F4809174298F3F09F458C010920020C5
:103B9000109201201092022010920320209173298C
:103BA00040910020509101206091022070910320EB
:103BB000922F80E0AA2797FDA095BA2F842B952BF2
:103BC000A62BB72B8093002090930120A093022076
:103BD000B0930320209174298091002090910120BE
:103BE000A0910220B0910320822B8093002090931B
:103BF0000120A0930220B093032020910020309157
:103C00000120409102205091032060917532709103
:103C1000763280917732909178320E94E93828E6A6
:103C200031E040E050E00E942D3920930020309395
:103C30000120409302205093032078C08091752981
:103C40008F3F29F4809176298F3F09F464C0109248
:103C50000020109201201092022010920320209147
:103C600075294091002050910120609102207091AF
:103C70000320922F80E0AA2797FDA095BA2F842BCE
:103C8000952BA62BB72B8093002090930120A09317
:103C90000220B093032020917629809100209091FA
:103CA0000120A0910220B0910320822B809300205C
:103CB00090930120A0930220B09303202091002034
:103CC0003091012040910220509103206091753283
:103CD000709176328091773290917832C0908332B1
:103CE000D0908432E0908532F09086320E94E9389C
:103CF00028E631E040E050E00E942D39C20ED31E8C
:103D0000E41EF51EC0920020D0920120E092022015
:103D1000F09203200BC08FEF9FEFDC018093002017
:103D200090930120A0930220B093032080917729E3
:103D30008F3FC9F08091772990E09C01220F331FBB
:103D4000820F931F80937F329093803280917F32D5
:103D50009091803299230CF40196959587958093E4
:103D6000612E9093622E809178298F3F21F080916F
:103D7000782980935E291092582E1092592E109215
:103D8000F92D1092FA2D10925F291092C62480917D
:103D90006E298093DD2800E010E0F801E352F74D32
:103DA000608182E991E20E94EF34882311F00F5F75
:103DB0001F4F101611068CF710923F2E10923F2EB7
:103DC00007C480916E29843009F075C180913F2E1F
:103DD000853008F4FDC31092FB2D1092F429109247
:103DE000F22D109281321092C5281092C62810929E
:103DF000C7281092C82820916F294091C52850915A
:103E0000C6286091C7287091C828922F80E0AA2701
:103E100097FDA095BA2F842B952BA62BB72B8093BB
:103E2000C5289093C628A093C728B093C82820918E
:103E300070298091C5289091C628A091C728B0917B
:103E4000C828822B8093C5289093C628A093C728A2
:103E5000B093C828A091002EB091012E2091C528C2
:103E60003091C6284091C7285091C8280E944839EF
:103E70006093C5287093C6288093C7289093C8285C
:103E80001092162E1092172E1092182E1092192E94
:103E9000209171294091162E5091172E6091182E65
:103EA0007091192E922F80E0AA2797FDA095BA2F26
:103EB000842B952BA62BB72B8093162E9093172E21
:103EC000A093182EB093192E209172298091162E4E
:103ED0009091172EA091182EB091192E822B8093BD
:103EE000162E9093172EA093182EB093192E209172
:103EF000162E3091172E4091182E5091192E609148
:103F000075327091763280917732909178320E943A
:103F1000E93828E631E040E050E00E942D39209356
:103F2000162E3093172E4093182E5093192EC090B2
:103F30008332D0908432E0908532F0908632809146
:103F4000162E9091172EA091182EB091192E209117
:103F5000CF283091D0284091D1285091D228BC014F
:103F6000CD016C0D7D1D8E1D9F1D0E942D39CA0136
:103F7000B9010E94FC362BED3FE049E450E40E9479
:103F800015380E945E3669837A838B839C83C09048
:103F90008332D0908432E0908532F09086328091E6
:103FA000162E9091172EA091182EB091192E2091B7
:103FB000CF283091D0284091D1285091D228BC01EF
:103FC000CD016C0D7D1D8E1D9F1D0E942D39CA01D6
:103FD000B9010E94FC362BED3FE049E450E40E9419
:103FE00015380E9478384B015C016091C5287091AA
:103FF000C6288091C7289091C8284090C528509025
:10400000C6286090C7287090C828C090232ED090F2
:10401000242EE090252EF090262E0E94FC36298139
:104020003A814B815C810E9415380E94C936C60EC8
:10403000D71EE81EF91EC092AE24D092AF24E092A3
:10404000B024F092B124C090022AD090032AE090CC
:10405000042AF090052AC301B2010E94FC36A50192
:1040600094010E9415380E94C936C60ED71EE81E5C
:10407000F91EC0920B2ED0920C2EE0920D2EF092D3
:104080000E2E80916E298093DD2800E010E0F8016B
:10409000E352F74D608182E991E20E94EF34882378
:1040A00011F00F5F1F4F101611068CF710923F2E64
:1040B00010923F2E8DC280916E29853009F06EC01E
:1040C00080913F2E833008F483C21092FB2D81E053
:1040D0008093813280916F2988238CF480916F299D
:1040E00090E09C01220F331F220F331F820F931F7A
:1040F0008058924080937B2E90937C2E10C08091AC
:104100006F2990E09C01220F331F220F331F820F73
:10411000931F8058924080937B2E90937C2E8091A9
:10412000702988238CF48091702990E09C01220FE3
:10413000331F220F331F820F931F805892408093AA
:10414000792E90937A2E10C08091702990E09C0176
:10415000220F331F220F331F820F931F805892406C
:104160008093792E90937A2E80916E298093DD280A
:1041700000E010E0F801E352F74D608182E991E23E
:104180000E94EF34882311F00F5F1F4F10161106A5
:104190008CF710923F2E10923F2E1AC280916E29FA
:1041A000863009F056C080913F2E873008F410C247
:1041B0001092FB2DE0E4F6E094814FE659E2DA013B
:1041C0008C9160E779E2DB012C918223892B848337
:1041D0009481DA018C91DB012C91822780958923CF
:1041E00084838091712990E088589F4FE0E0FBE044
:1041F00080A791A78091722990E088589F4F82A74D
:1042000093A78091732990E088589F4F84A795A722
:104210008091742990E088589F4F86A797A7809136
:104220006E298093DD2800E010E0F801E352F74D9D
:10423000608182E991E20E94EF34882311F00F5FE0
:104240001F4F101611068CF710923F2E10923F2E22
:10425000BFC180916E29873009F07DC180913F2ECA
:10426000873008F4B5C11092FB2D80916F298F3FE4
:1042700029F4809170298F3F09F46DC01092232E8C
:104280001092242E1092252E1092262E20916F2906
:104290004091232E5091242E6091252E7091262E30
:1042A000922F80E0AA2797FDA095BA2F842B952BFB
:1042B000A62BB72B8093232E9093242EA093252EEC
:1042C000B093262E209170298091232E9091242E38
:1042D000A091252EB091262E822B8093232E909391
:1042E000242EA093252EB093262EA091002EB091BF
:1042F000012E2091232E3091242E4091252E509175
:10430000262E0E9448396093232E7093242E80938A
:10431000252E9093262E8091232E9091242EA091CD
:10432000252EB091262E8093AE249093AF24A09397
:10433000B024B093B1248091232E9091242EA0918B
:10434000252EB091262E8093312E9093322EA0935D
:10435000332EB093342E809171298F3F29F48091B0
:1043600072298F3F09F46DC01092022A1092032A1D
:104370001092042A1092052A209171294091022A54
:104380005091032A6091042A7091052A922F80E0AF
:10439000AA2797FDA095BA2F842B952BA62BB72B78
:1043A0008093022A9093032AA093042AB093052AAB
:1043B000209172298091022A9091032AA091042AC7
:1043C000B091052A822B8093022A9093032AA0930E
:1043D000042AB093052AA091002EB091012E2091BD
:1043E0000B2E30910C2E40910D2E50910E2E0E94CE
:1043F00048396093022A7093032A8093042A909389
:10440000052A8091022A9091032AA091042AB09152
:10441000052A80930B2E90930C2EA0930D2EB09313
:104420000E2E8091022A9091032AA091042AB09125
:10443000052A8093702E9093712EA093722EB093C4
:10444000732E809173298F3F29F4809174298F3FB7
:1044500009F467C010928332109284321092853230
:104460001092863220917329409183325091843288
:104470006091853270918632922F80E0AA2797FD55
:10448000A095BA2F842B952BA62BB72B8093833224
:1044900090938432A0938532B09386322091742910
:1044A0008091833290918432A0918532B09186328E
:1044B000822B8093833290938432A0938532B09381
:1044C00086322091833230918432409185325091EE
:1044D0008632609175327091763280917732909108
:1044E00078320E94E93828E631E040E050E00E944E
:1044F0002D39209383323093843240938532509308
:1045000086328091833290918432A0918532B0912D
:1045100086328093CC249093CD24A093CE24B09364
:10452000CF2480916E298093DD2800E010E0F8010F
:10453000E352F74D608182E991E20E94EF348823D3
:1045400011F00F5F1F4F101611068CF710923F2EBF
:1045500010923F2E3DC080916E298830C9F5809120
:104560003F2E8330A8F11092FB2D80916F2981306E
:1045700039F48093F22D10927B2E10927C2E02C083
:104580001092F22D80917029813039F48093F429B2
:104590001092792E10927A2E02C01092F4298091F6
:1045A0006E298093DD2800E010E0F801E352F74D1A
:1045B000608182E991E20E94EF34882311F00F5F5D
:1045C0001F4F101611068CF710923F2E10923F2E9F
:1045D0002496CDBFDEBFDF91CF91FF91EF91BF91C8
:1045E000AF919F918F917F916F915F914F913F918B
:1045F0002F911F910F91FF90EF90DF90CF90BF9080
:10460000AF909F908F907F906F905F904F900F90A2
:104610000BBE0F900ABE0F9009BE0F9008BE0F9000
:104620000FBE0F901F9018951F920F920FB60F920A
:10463000112408B60F9218BE0BB60F921BBE8F93B3
:10464000EF93FF93E0E0F9E0818580FD03C081E016
:104650008093F72DE0E0F9E0818580FF03C082E0E0
:104660008093F72DFF91EF918F910F900BBE0F90DC
:1046700008BE0F900FBE0F901F9018951F920F92BB
:104680000FB60F92112408B60F9218BE0BB60F92F8
:104690001BBE8F93EF93FF93E0E4F9E0818580FDEB
:1046A00003C081E08093222EE0E4F9E0818580FF61
:1046B00003C082E08093222EFF91EF918F910F90A3
:1046C0000BBE0F9008BE0F900FBE0F901F90189555
:1046D0001F920F920FB60F92112408B60F9218BEB8
:1046E00009B60F9219BE0BB60F921BBE2F933F93C4
:1046F0004F935F936F937F938F939F93AF93BF93EA
:10470000EF93FF9389E193E20E943A35FF91EF9195
:10471000BF91AF919F918F917F916F915F914F91D9
:104720003F912F910F900BBE0F9009BE0F9008BEC6
:104730000F900FBE0F901F9018951F920F920FB6FB
:104740000F92112408B60F9218BE09B60F9219BE27
:104750000BB60F921BBE2F933F934F935F936F93B4
:104760007F938F939F93AF93BF93EF93FF938BE0D0
:1047700090E20E943A35FF91EF91BF91AF919F91E6
:104780008F917F916F915F914F913F912F910F90FA
:104790000BBE0F9009BE0F9008BE0F900FBE0F907A
:1047A0001F9018951F920F920FB60F92112408B602
:1047B0000F9218BE09B60F9219BE0BB60F921BBE10
:1047C0002F933F934F935F936F937F938F939F9319
:1047D000AF93BF93EF93FF9382E991E20E943A3542
:1047E000FF91EF91BF91AF919F918F917F916F91C9
:1047F0005F914F913F912F910F900BBE0F9009BE8B
:104800000F9008BE0F900FBE0F901F9018951F922B
:104810000F920FB60F92112408B60F9218BE09B668
:104820000F9219BE0BB60F921BBE2F933F934F935F
:104830005F936F937F938F939F93AF93BF93EF9308
:10484000FF938FEFE0E4F6E0878380914A2E90910A
:104850004B2E8093082E9093092E8091082E9091D4
:10486000092E1816190634F46BE28BE090E20E94D0
:10487000EF3411C08091082E9091092E992334F4C1
:104880006DE28BE090E20E94EF3405C060E28BE0C5
:1048900090E20E94EF348091082E9091092E992386
:1048A0005CF48091082E9091092E91958195910943
:1048B0008093082E9093092E8091082E9091092EB6
:1048C0002AE030E0B9010E94F83880638093442EDA
:1048D0009093452E8091082E9091092EB9010E9447
:1048E000F8386093082E7093092E8091082E9091CD
:1048F000092EB9010E94F838806380937332909337
:1049000074328091082E9091092EB9010E94F838D6
:104910006093082E7093092E8091082E9091092E95
:10492000B9010E94F83880638093372E9093382E17
:104930008091082E9091092EB9010E94F838609359
:10494000082E7093092E8091082E9091092EB9019E
:104950000E94F83880638093D7289093D82880915C
:10496000082E9091092EB9010E94F8386093082E04
:104970007093092E8091082E9091092EB9010E9402
:10498000F83880638093C3289093C4286091C3282B
:104990007091C4288BE090E20E94EF346091D72898
:1049A0007091D8288BE090E20E94EF346091372E0E
:1049B0007091382E8BE090E20E94EF346091733258
:1049C000709174328BE090E20E94EF346091442E3B
:1049D0007091452E8BE090E20E94EF3460E28BE014
:1049E00090E20E94EF346AE38BE090E20E94EF34A1
:1049F00060E28BE090E20E94EF348091632E909110
:104A0000642E8093082E9093092E8091082E909109
:104A1000092E1816190634F46BE28BE090E20E941E
:104A2000EF3411C08091082E9091092E992334F40F
:104A30006DE28BE090E20E94EF3405C060E28BE013
:104A400090E20E94EF348091082E9091092E9923D4
:104A50005CF48091082E9091092E91958195910991
:104A60008093082E9093092E8091082E9091092E04
:104A70002AE030E0B9010E94F83880638093442E28
:104A80009093452E8091082E9091092EB9010E9495
:104A9000F8386093082E7093092E8091082E90911B
:104AA000092EB9010E94F838806380937332909385
:104AB00074328091082E9091092EB9010E94F83825
:104AC0006093082E7093092E8091082E9091092EE4
:104AD000B9010E94F83880638093372E9093382E66
:104AE0008091082E9091092EB9010E94F8386093A8
:104AF000082E7093092E8091082E9091092EB901ED
:104B00000E94F83880638093D7289093D8288091AA
:104B1000082E9091092EB9010E94F8386093082E52
:104B20007093092E8091082E9091092EB9010E9450
:104B3000F83880638093C3289093C4286091C32879
:104B40007091C4288BE090E20E94EF346091D728E6
:104B50007091D8288BE090E20E94EF346091372E5C
:104B60007091382E8BE090E20E94EF3460917332A6
:104B7000709174328BE090E20E94EF346091442E89
:104B80007091452E8BE090E20E94EF346DE08BE057
:104B900090E20E94EF34FF91EF91BF91AF919F910E
:104BA0008F917F916F915F914F913F912F910F90D6
:104BB0000BBE0F9009BE0F9008BE0F900FBE0F9056
:104BC0001F9018954F925F926F927F928F929F9253
:104BD000AF92BF92CF92DF92EF92FF92E0E4F9E0C2
:104BE00080A191A180937D3290937E32E0E0F9E044
:104BF00080A191A1A0E0B0E080931E2E90931F2E83
:104C0000A093202EB093212E8091F72D811117C0F3
:104C100040911E2E50911F2E6091202E7091212EBA
:104C20008091EE299091EF29A091F029B091F1297E
:104C3000481B590B4093C0245093C1243BC0809122
:104C4000F72D8130C9F44091EE295091EF29609100
:104C5000F0297091F12980911E2E90911F2EA09124
:104C6000202EB091212E40955095840F951F809352
:104C7000C0249093C1241CC08091F72D8230C1F4D0
:104C800040911E2E50911F2E6091202E7091212E4A
:104C90008091EE299091EF29A091F029B091F1290E
:104CA0004F5F5F4F481B590B4093C0245093C12462
:104CB0001092F72D8091222E81110FC080917D32AC
:104CC00090917E3220912D2E30912E2E821B930BAF
:104CD0008093A0249093A1242AC08091222E813019
:104CE00089F480912D2E90912E2E20917D3230913D
:104CF0007E3280959095820F931F8093A02490938D
:104D0000A12413C08091222E823079F480917D32CB
:104D100090917E3220912D2E30912E2E0196821B65
:104D2000930B8093A0249093A1241092222E809123
:104D30001E2E90911F2EA091202EB091212E809397
:104D4000EE299093EF29A093F029B093F129809157
:104D50007D3290917E3280932D2E90932E2E209135
:104D6000C0243091C1248091A0249091A124820F6D
:104D7000931F8093F2299093F3298091C0249091FE
:104D8000C1242091A0243091A124821B930B8093F5
:104D90008732909388328091873290918832409107
:104DA0008332509184326091853270918632AA2785
:104DB00097FDA095BA2F840F951FA61FB71F80934C
:104DC000833290938432A0938532B093863280915F
:104DD000F2299091F3294091B4245091B524609127
:104DE000B6247091B724AA2797FDA095BA2F840FF7
:104DF000951FA61FB71F8093B4249093B524A0934A
:104E0000B624B093B724409183325091843260919C
:104E10008532709186328091753290917632A09170
:104E20007732B0917832481759076A077B07E4F068
:104E30008091833290918432A0918532B0918632F4
:104E4000409175325091763260917732709178321C
:104E5000841B950BA60BB70B8093833290938432FF
:104E6000A0938532B09386328091833290918432C0
:104E7000A0918532B0918632BB23E4F44091833215
:104E80005091843260918532709186328091753272
:104E900090917632A0917732B0917832840F951F3D
:104EA000A61FB71F8093833290938432A0938532DC
:104EB000B0938632609183327091843280918532D2
:104EC00090918632C090CF28D090D028E090D12801
:104ED000F090D2280E94FC364B015C01C701B6015C
:104EE0000E94FC369B01AC01C501B4010E946136F1
:104EF0002BED3FE049E450E40E9415380E945E36F5
:104F00002B013C0160918332709184328091853213
:104F100090918632C090CF28D090D028E090D128B0
:104F2000F090D2280E94FC364B015C01C701B6010B
:104F30000E94FC369B01AC01C501B4010E946136A0
:104F40002BED3FE049E450E40E9415380E94783888
:104F50004B015C016091F2297091F329C090232EDE
:104F6000D090242EE090252EF090262E882777FDD5
:104F70008095982F0E94FC36A30192010E9415385B
:104F80000E94C936CB01AA2797FDA095BA2FC80E5B
:104F9000D91EEA1EFB1EC092232ED092242EE09230
:104FA000252EF092262E6091F2297091F329C0905F
:104FB000022AD090032AE090042AF090052A88273C
:104FC00077FD8095982F0E94FC36A50194010E94E0
:104FD00015380E94C936CB01AA2797FDA095BA2F94
:104FE000C80ED91EEA1EFB1EC092022AD092032AC6
:104FF000E092042AF092052AFF90EF90DF90CF9084
:10500000BF90AF909F908F907F906F905F904F90E8
:1050100008954F925F926F927F928F929F92AF927C
:10502000BF92CF92DF92EF92FF920F931F93CF9395
:10503000DF934091312E5091322E6091332E70913A
:10504000342E8091AE249091AF24A091B024B091E1
:10505000B124481759076A077B07A9F44091702EBD
:105060005091712E6091722E7091732E80910B2E43
:1050700090910C2EA0910D2EB0910E2E481759072D
:105080006A077B0771F08091C8249091C924A09190
:10509000CA24B091CB2480932F2E9093302E10925F
:1050A00006208091AE249091AF24A091B024B091BD
:1050B000B1248093312E9093322EA093332EB0934F
:1050C000342E80910B2E90910C2EA0910D2EB0912C
:1050D0000E2E8093702E9093712EA093722EB0930B
:1050E000732E4091AE245091AF246091B024709102
:1050F000B1248091232E9091242EA091252EB09141
:10510000262E8A019B01081B190B2A0B3B0BC90198
:10511000B8010E94FC36C62ED72EE82EF92E4091FB
:105120000B2E50910C2E60910D2E70910E2E8091B1
:10513000022A9091032AA091042AB091052A8A019B
:105140009B01081B190B2A0B3B0BC901B8010E94DC
:10515000FC36062F172FD82FC92F2C2D3D2D4E2D65
:105160005F2D6C2D7D2D8E2D9F2D0E9415386B018E
:105170007C01202F312F4D2F5C2F602F712F8D2F11
:105180009C2F0E9415389B01AC01C701B6010E94FB
:1051900094350E9482380E94C9366093122E709313
:1051A000132E8093142E9093152E6091D32470911A
:1051B000D4248091D5249091D624C090122ED090E2
:1051C000132EE090142EF090152E2AE030E040E0EF
:1051D00050E00E942D392C153D054E055F050CF061
:1051E0003FC18091122E9091132EA091142EB09158
:1051F000152E8093692E90936A2EA0936B2EB093F8
:105200006C2E1092B4241092B5241092B6241092F1
:10521000B72410925C2E10925D2E109206204091C1
:10522000AE245091AF246091B0247091B12480914C
:10523000232E9091242EA091252EB091262E4090C1
:105240000B2E50900C2E60900D2E70900E2E809094
:10525000022A9090032AA090042AB090052A8A017D
:105260009B01081B190B2A0B3B0BC901B8010E94BB
:10527000FC366B017C01C301B201681979098A0906
:105280009B090E94FC36A70196010E9407366B011C
:105290007C016091CF287091D0288091D128909185
:1052A000D2280E94FC36A70196010E9415382BEDEA
:1052B0003FE049E450E40E9461360E94C9366093A1
:1052C000CC247093CD248093CE249093CF248091CE
:1052D0005E29811173C04091833250918432609174
:1052E0008532709186328091CC249091CD24A0910A
:1052F000CE24B091CF248A019B01081B190B2A0BE5
:105300003B0BC901B8010E94FC36062F172FD82F7E
:10531000C92F60917E2E70917F2E8091802E90916A
:10532000812E0E94FC369B01AC01602F712F8D2FC6
:105330009C2F0E940A381816ECF080917E2E9091D6
:105340007F2EA091802EB091812E9C01AD01662709
:105350007727CB01621B730B840B950B0E94FC36E5
:105360009B01AC01602F712F8D2F9C2F0E945A360C
:10537000882304F58FEF8093782E8091CC24909130
:10538000CD24A091CE24B091CF244091CF2850912C
:10539000D0286091D1287091D228841B950BA60B40
:1053A000B70B8093CC249093CD24A093CE24B093BC
:1053B000CF242EC081E08093782E2AC080915E2970
:1053C000813019F48093782E23C080915E29823039
:1053D000F9F48FEF8093782E8091CC249091CD2496
:1053E000A091CE24B091CF244091CF285091D028C5
:1053F0006091D1287091D228841B950BA60BB70B16
:105400008093CC249093CD24A093CE24B093CF242A
:105410008091CC249091CD24A091CE24B091CF2422
:10542000BB230CF053C04091CC245091CD2460910B
:10543000CE247091CF248091753290917632A091D4
:105440007732B0917832840F951FA61FB71F8093D3
:10545000CC249093CD24A093CE24B093CF2436C0F7
:1054600080915C2E90915D2E8C32914078F18091EC
:105470000620811103C081E08093062080910020E6
:1054800090910120A0910220B09103208F3F9F4F67
:10549000AF4FBF4FD9F08091002090910120A09193
:1054A0000220B09103208093CC249093CD24A0932C
:1054B000CE24B093CF248FEF9FEFDC0180930020A8
:1054C00090930120A0930220B0930320DF91CF910D
:1054D0001F910F91FF90EF90DF90CF90BF90AF9012
:1054E0009F908F907F906F905F904F9008954F9214
:1054F0005F926F927F928F929F92AF92BF92CF9264
:10550000DF92EF92FF920F931F93CF93DF93CDB76C
:10551000DEB72C97CDBFDEBFA091782E2091692EEB
:1055200030916A2E40916B2E50916C2EC090B42415
:10553000D090B524E090B624F090B724BB27A7FD07
:10554000B0950E945239DC01CB018C199D09AE093E
:10555000BF0980934C2E90934D2EA0934E2EB09366
:105560004F2E8091FE299091FF29A091002AB091A1
:10557000012A4091CB285091CC286091CD28709180
:10558000CE28841B950BA60BB70B8093F32D90931D
:10559000F42DA093F52DB093F62D4091022E50914D
:1055A000032E6091042E7091052E80914C2E9091C7
:1055B0004D2EA0914E2EB0914F2E840F951FA61FF9
:1055C000B71F8093022E9093032EA093042EB093C6
:1055D000052E8091022E9091032EA091042EB09161
:1055E000052E893C9105A105B1056CF088EC90E091
:1055F000A0E0B0E08093022E9093032EA093042E9F
:10560000B093052E19C08091022E9091032EA09187
:10561000042EB091052E88339F4FAF4FBF4F64F4D7
:1056200088E39FEFAFEFBFEF8093022E9093032E9E
:10563000A093042EB093052E60914C2E70914D2EA8
:1056400080914E2E90914F2E80906A2990906B29D8
:10565000A0906C29B0906D292091F32D3091F42DFC
:105660004091F52D5091F62D29833A834B835C832D
:105670004090BF285090C0286090C1287090C228E8
:10568000C090022ED090032EE090042EF090052EB4
:105690002091793230917A3240917B3250917C3234
:1056A0002D833E834F8358872091D3243091D42477
:1056B0004091D5245091D62429873A874B875C871F
:1056C00000917F32109180320E94FC36A501940136
:1056D0000E9415384B015C0169817A818B819C8124
:1056E0000E94FC36A30192010E9415389B01AC0177
:1056F000C501B4010E9494354B015C01C701B6019C
:105700000E94FC362D813E814F8158850E941538BC
:105710009B01AC01C501B4010E9494356B017C0171
:1057200069857A858B859C8595958795779567950D
:105730009801442737FD4095542F0E942D39CA0106
:10574000B9010E94FC369B01AC01C701B6010E9461
:1057500061360E94C9366093FE297093FF298093B9
:10576000002A9093012A40917F325091803280919B
:10577000FE299091FF29A091002AB091012A51950C
:1057800041955109662757FD6095762F8417950737
:10579000A607B7079CF480917F3290918032919553
:1057A00081959109AA2797FDA095BA2F8093FE298C
:1057B0009093FF29A093002AB093012A40917F3251
:1057C000509180328091FE299091FF29A091002A6A
:1057D000B091012A662757FD6095762F4817590723
:1057E0006A077B0784F480917F3290918032AA27E8
:1057F00097FDA095BA2F8093FE299093FF29A0933F
:10580000002AB093012A8091FE299091FF29A0914E
:10581000002AB091012ABB230CF053C04091CB2841
:105820005091CC286091CD287091CE288091FE298E
:105830009091FF29A091002AB091012A8417950721
:10584000A607B7070CF08DC04091FE295091FF29A3
:105850006091002A7091012A8091CB289091CC28E8
:10586000A091CD28B091CE282091D0243091D12480
:1058700055231CF451954195510999231CF4919598
:1058800081959109481B590B2417350708F069C009
:105890008091CB289091CC28A091CD28B091CE2892
:1058A0002091D0243091D124821B930BA109B109FE
:1058B0008093FE299093FF29A093002AB093012A98
:1058C00050C04091CB285091CC286091CD28709148
:1058D000CE288091FE299091FF29A091002AB091B5
:1058E000012A481759076A077B07DCF54091FE2912
:1058F0005091FF296091002A7091012A8091CB2854
:105900009091CC28A091CD28B091CE282091D02480
:105910003091D12455231CF4519541955109992377
:105920001CF4919581959109481B590B2417350753
:10593000C0F42091D0243091D1248091CB28909133
:10594000CC28A091CD28B091CE28820F931FA11D05
:10595000B11D8093FE299093FF29A093002AB09354
:10596000012A8091FE299091FF29A091002AB091EF
:10597000012A8093CB289093CC28A093CD28B09374
:10598000CE282C96CDBFDEBFDF91CF911F910F9116
:10599000FF90EF90DF90CF90BF90AF909F908F904F
:1059A0007F906F905F904F9008954F925F926F92AB
:1059B0007F928F929F92AF92BF92CF92DF92EF929F
:1059C000FF920F931F93CF93DF93CDB7DEB72C9742
:1059D000CDBFDEBF8091CC249091CD24A091CE2468
:1059E000B091CF24409183325091843260918532BE
:1059F00070918632841B950BA60BB70B8093742E87
:105A00009093752EA093762EB093772E8091742E5E
:105A10009091752EA091762EB091772E4091EE2D1B
:105A20005091EF2D6091F02D7091F12D841B950B0D
:105A3000A60BB70B80933B2E90933C2EA0933D2E4C
:105A4000B0933E2E8091742E9091752EA091762E5B
:105A5000B091772E8093EE2D9093EF2DA093F02DA3
:105A6000B093F12D4091CF285091D0286091D1284A
:105A70007091D2288091742E9091752EA091762EDF
:105A8000B091772E70956095509541955F4F6F4F0F
:105A90007F4F84179507A607B707ECF44091742E43
:105AA0005091752E6091762E7091772E809175327F
:105AB00090917632A0917732B0917832840F951F11
:105AC000A61FB71F8093742E9093752EA093762EE9
:105AD000B093772E31C04091742E5091752E609105
