:100000001FC1000043C1000041C100003FC100000A
:100010003DC100003BC1000039C1000037C10000F4
:1000200035C1000033C1000031C100002FC1000004
:100030002DC100002BC1000029C1000027C1000014
:1000400025C1000023C1000021C100001FC1000024
:100050001DC100001BC1000019C1000017C1000034
:1000600015C100000C94DD1A0C94CA230FC10000C6
:100070000DC100000BC1000009C1000007C1000054
:1000800005C1000003C100000C94FF23FFC0000065
:10009000FDC00000FBC00000F9C00000F7C0000078
:1000A000F5C00000F3C00000F1C00000EFC0000088
:1000B000EDC00000EBC00000E9C00000E7C0000098
:1000C000E5C00000E3C00000E1C00000DFC00000A8
:1000D000DDC00000B6C30000D9C00000D7C00000DA
:1000E000D5C00000D3C000009CC400000C94602365
:1000F000CDC000000C94140E0C949523C7C00000D2
:10010000C5C00000C3C00000C1C00000BFC00000E7
:10011000BDC00000BBC00000B9C00000B7C00000F7
:10012000B5C00000B3C00000B1C00000AFC0000007
:10013000ADC000000C940C23A9C00000A7C00000B3
:10014000A5C00000A3C00000A1C000000C9436238D
:100150009DC000009BC0000099C0000097C0000037
:1001600095C0000093C0000091C000008FC0000047
:100170008DC000008BC0000089C0000087C0000057
:1001800085C0000083C0000081C000007FC0000067
:100190007DC000007BC0000079C0000077C0000077
:1001A00075C0000073C0000071C000006FC0000087
:1001B0000C9400346BC000000C94E13367C0000065
:1001C00065C0000063C0000061C000005FC00000A7
:1001D0005DC000005BC0000059C0000057C00000B7
:1001E00055C0000053C0000051C000004FC00000C7
:1001F0004DC00000084AD73B3BCE016E84BCBFFD1A
:10020000C12F3D6C74319ABD56833DDA3D00C77FE6
:1002100011BED9E4BB4C3E916BAAAABE000000807F
:100220003F05A84CCDB2D44EB93836A9020C50B90E
:10023000918688083CA6AAAA2ABE000000803F003A
:1002400011241FBECFEFDFE3DEBFCDBF00E00CBF48
:1002500018BE19BE1ABE1BBE10E2A0E0B0E2E0EB71
:10026000F4E700E00BBF02C007900D92A031B10788
:10027000D9F71BBE22E3A0E1B0E201C01D92A5396F
:10028000B207E1F70E9419360C94563AB9CE462FC0
:1002900050E066230CF45F6F21E0FC01238324818E
:1002A0003581241B350B822F932F089521E0FC010B
:1002B00023838481861B0895FC01848191E09483CB
:1002C000AFEFB0E01197F1F700C00000848308950C
:1002D000CF93DF93EC018981897E806189838C8152
:1002E000887F81608C838A818F7C8A8388A1807ECD
:1002F000826088A319A2888181608883CE01DCDFB7
:1003000088A1806888A38BA180FFFDCF60E0CE012B
:100310008096CCDF98819E7F9883DF91CF9108955E
:100320008EBB1FBAEAECF1E082E080838EB31082CC
:100330000895CF93DF93EC01C11582E0D80741F413
:1003400080E2EEDF90E0E0E0F2E08487958705C090
:1003500084E2E6DF90E08C879D87DF91CF9108955E
:100360008EE19CE2A1E0B0E08093DB249093DC245A
:10037000A093DD24B093DE2485E696E3A0E0B0E010
:1003800080937D3290937E32A0937F32B0938032FF
:100390006091DB247091DC248091DD249091DE2437
:1003A00028EE33E040E050E00E940B3A2093082E04
:1003B0003093092E80917D3290917E32A0917F32D0
:1003C000B0918032B595A795979587958093D7285A
:1003D0009093D828A093D928B093DA2880917D32C1
:1003E00090917E32A0917F32B0918032B595A795E1
:1003F00097958795B595A795979587958093862E20
:100400009093872EA093882EB093892E80917D3271
:1004100090917E32A0917F32B0918032689412F830
:10042000B595A795979587951694D1F78093D02485
:100430009093D124A093D224B093D32481E08093CD
:10044000662984EF91E080938732909388328CE222
:1004500091E08093692E90936A2E20E233E02093FE
:10046000172E3093182E8091873290918832809386
:10047000BA249093BB248091D0249091D124A09150
:10048000D224B091D3248093372E9093382E20938A
:10049000662E3093672E089580E090E0A0ECB0E4E3
:1004A0008093722990937329A0937429B09375292E
:1004B0008DEC9CECACECBFE3809381329093823264
:1004C000A0938332B093843280E090E0A0EFB1E457
:1004D0008093C7289093C828A093C928B093CA28AE
:1004E00080E090E0A0EAB1E48093042E9093052E82
:1004F000A093062EB093072E809391329093923260
:10050000A0939332B09394324AE959E969E97FE3C1
:100510004093B0245093B1246093B2247093B324D9
:100520008093AA249093AB24A093AC24B093AD24E1
:1005300080936D2E90936E2EA0936F2EB093702E9D
:1005400080E090E0A0E8BEE38093DB289093DC2875
:10055000A093DD28B093DE281092C0241092C1240D
:100560001092C2241092C3241092582E1092592E29
:1005700010925A2E10925B2E82E090E08093D82445
:100580009093D9240895EF920F936894EE24E1F8A4
:1005900008E120E040E06FEF80E696E00E947D32C7
:1005A000E0E6F6E08FEF828386898064868BE0E860
:1005B000F1E08EE6808399E09087A0E4B9E081E0E5
:1005C0008C9328E613962C93139716962C911697D6
:1005D0002C7F216016962C932CE622839287E0E0F4
:1005E000F9E080838AE6838386818C7F81608683BD
:1005F0000F91EF900895CF93DF9380E092E099DE22
:1006000080E092E065DE8093622EC0E0D2E08981D6
:10061000897E846089838C81887F8C838A818F7CAA
:100620008A83A0E2B2E08C91807E81608C93E8E2C4
:10063000F2E08081807E8160808311961C9288E048
:1006400081838B818F7380648B83888181608883B1
:1006500080E092E031DE898188608983DF91CF91EB
:100660000895E0EAF0E08281846082838281826082
:100670008283828181608283828180688283789490
:10068000089582E080935000E0E5F0E0818181FFF1
:10069000FDCF88ED84BFE0E4F0E093E0918384BF78
:1006A00081E080830895FF920F931F93CF93DF9390
:1006B000C0E8D6E088818068888388818F7B8883C2
:1006C00041E060EB7AE083E190E20E948535E091C1
:1006D0001320F091142013E0158383818F7C8061B7
:1006E0008383A0EBBAE00F2EF5ECFF2EF02D1696CB
:1006F000FC9216970CEA17960C9384818061848390
:1007000084818860848388818860888388818B7FE6
:10071000888341E060EA7AE081E293E20E948535D5
:10072000E0912123F0912223158383818F7C8061C6
:100730008383A0EABAE01696FC92169717960C935C
:10074000848180618483848188608483E0E4F6E02E
:1007500080818870808380818B6F808341E060EA34
:1007600078E08AE991E20E948535E0919A21F09142
:100770009B21158383818F7C80618383A0EAB8E00D
:100780008BE616968C93169780EB17968C93848144
:1007900080618483848188608483DF91CF911F91FD
:1007A0000F91FF9008958FE290E0E0E4FAE086A3D5
:1007B00097A362E080E49AE00E949C3266E080E4C5
:1007C0009AE00C94963282E08093900B8091662E92
:1007D0009091672EE0E4FBE086A397A385E38183F5
:1007E00081E0808380E3E0EAF6E081830895EF9280
:1007F0000F93CF93CFEFE0E2F6E0C2836894EE244C
:10080000E1F808E120E040E06FEF80E296E00E942E
:100810007D3241E061E080E296E00E947632E0E4E1
:10082000F6E0C183E0EEF6E0C183C68386E6858309
:10083000E0EAF6E08FE081838683CF910F91EF901D
:1008400008951F920F920FB60F92112408B60F92BF
:1008500018BE09B60F9219BE0BB60F921BBE2F938E
:100860003F934F935F936F937F938F939F93AF9338
:10087000BF93EF93FF9380916C2990916D2901961E
:1008800080936C2990936D298091642E9091652EB0
:1008900001968093642E9093652E8091CC24909144
:1008A000CD2401968093CC249093CD248091602E0A
:1008B0008F5F8093602E8091012E8F5F8093012E39
:1008C000809167298F5F809367290E944D2F8091C7
:1008D00010208F5F80931020809104208F5F809381
:1008E0000420809105208F5F8093052080913D2E0C
:1008F00090913E2E892B49F080913D2E90913E2E75
:10090000019780933D2E90933E2E8091032E882355
:1009100089F08091032E8F5F8093032E8091032EA8
:10092000853640F01092632E109265291092472E62
:100930001092032E9091602E80917A32891708F0E0
:1009400059C08091612E8F3708F054C080918A324F
:10095000823091F5E091612EF0E08091022A909131
:10096000032AA091042AB091052A0196A11DB11D68
:10097000DC018D919D910D90BC91A02DEE0FFF1F7C
:10098000E25FF54D80839183E091612EF0E08091EC
:10099000022A9091032AA091042AB091052ADC0131
:1009A0008D919D910D90BC91A02DEE0FFF1FE25FE8
:1009B000F54D8083918317C0E091612EF0E0809126
:1009C000022A9091032AA091042AB091052ADC0101
:1009D0008D919D910D90BC91A02DEE0FFF1FE25FB8
:1009E000F54D808391838091612E8F5F8093612E7E
:1009F0001092602EFF91EF91BF91AF919F918F91D7
:100A00007F916F915F914F913F912F910F900BBE0E
:100A10000F9009BE0F9008BE0F900FBE0F901F9051
:100A200018951F920F920FB60F92112408B60F92CD
:100A300018BE09B60F9219BE0AB60F921ABE0BB6AF
:100A40000F921BBE4F925F926F927F928F929F92F6
:100A5000AF92BF92CF92DF92EF92FF920F931F93CC
:100A60002F933F934F935F936F937F938F939F93B6
:100A7000AF93BF93EF93FF93CF93DF93CDB7DEB7E1
:100A80002897CDBFDEBF81E293E20E94D4358091EA
:100A9000632E082F10E081E293E20E94C635F80130
:100AA000EA58F64D80838091632E8F5F8093632E8A
:100AB0008091632E882319F081E08093032E80912A
:100AC0007629813009F0B0C08091632E813011F019
:100AD0000C94E80D1092032E809176298093E528DE
:100AE00060912B2E70912C2E80912D2E90912E2E78
:100AF0002091082E3091092E40E050E00E940B3AE0
:100B0000BB2757FDBA95A52F942F832F8093E628F6
:100B100060912B2E70912C2E80912D2E90912E2E47
:100B20002091082E3091092E40E050E00E940B3AAF
:100B30002093E72860910A2A70910B2A80910C2A51
:100B400090910D2A2091082E3091092E40E050E01E
:100B50000E940B3ABB2757FDBA95A52F942F832FE0
:100B60008093E82860910A2A70910B2A80910C2AC0
:100B700090910D2A2091082E3091092E40E050E0EE
:100B80000E940B3A2093E92820918B3230918C32CD
:100B900040918D3250918E32C0907D32D0907E3215
:100BA000E0907F32F0908032A8E6B1E00E94263AD1
:100BB000A70196010E940B3ABB2757FDBA95A52FB6
:100BC000942F832F8093EA2820918B3230918C329E
:100BD00040918D3250918E32C0907D32D0907E32D5
:100BE000E0907F32F0908032A8E6B1E00E94263A91
:100BF000A70196010E940B3A2093EB2800E010E039
:100C0000F801EB51F74D608181E293E20E94A73534
:100C1000882311F00F5F1F4F0F3011058CF31092D6
:100C2000632E1092632ED4C780917629823009F00A
:100C3000BFC08091632E853008F4CAC71092032E7E
:100C40001092FC291092FA2D109289321092B6243B
:100C50001092B7241092B8241092B92420917729C9
:100C60004091B6245091B7246091B8247091B92472
:100C7000922F80E0AA2797FDA095BA2F842B952B61
:100C8000A62BB72B8093B6249093B724A093B824B7
:100C9000B093B924209178298091B6249091B724FB
:100CA000A091B824B091B924822B8093B62490935C
:100CB000B724A093B824B093B924A091082EB09182
:100CC000092E2091B6243091B7244091B824509138
:100CD000B9240E94263A6093B6247093B724809377
:100CE000B8249093B9241092132E1092142E1092BF
:100CF000152E1092162E209179294091132E509185
:100D0000142E6091152E7091162E922F80E0AA2736
:100D100097FDA095BA2F842B952BA62BB72B8093EC
:100D2000132E9093142EA093152EB093162E20916F
:100D30007A298091132E9091142EA091152EB091A6
:100D4000162E822B8093132E9093142EA093152E83
:100D5000B093162EA091082EB091092E2091132E3B
:100D60003091142E4091152E5091162E0E94263A45
:100D70006093132E7093142E8093152E9093162E3D
:100D8000809176298093E52800E010E0F801EB518E
:100D9000F74D608181E293E20E94A735882311F02C
:100DA0000F5F1F4F101611068CF71092632E10C79D
:100DB00080917629833009F0E3C18091632E8B30D6
:100DC00008F406C71092032E809177298F3F29F4EB
:100DD000809178298F3F09F453C01092FC2910921A
:100DE000FA2D109289321092B6241092B7241092E4
:100DF000B8241092B924209177294091B6245091BB
:100E0000B7246091B8247091B924922F80E0AA276A
:100E100097FDA095BA2F842B952BA62BB72B8093EB
:100E2000B6249093B724A093B824B093B92420910A
:100E300078298091B6249091B724A091B824B091DC
:100E4000B924822B8093B6249093B724A093B8241E
:100E5000B093B924A091082EB091092E2091B62408
:100E60003091B7244091B8245091B9240E94263A79
:100E70006093B6247093B7248093B8249093B924D8
:100E8000809179298F3F29F480917A298F3F09F445
:100E900053C01092FC291092FA2D109289321092B0
:100EA000132E1092142E1092152E1092162E2091A1
:100EB00079294091132E5091142E6091152E709126
:100EC000162E922F80E0AA2797FDA095BA2F842B8B
:100ED000952BA62BB72B8093132E9093142EA093B3
:100EE000152EB093162E20917A298091132E909171
:100EF000142EA091152EB091162E822B8093132EB6
:100F00009093142EA093152EB093162EA091082E18
:100F1000B091092E2091132E3091142E4091152E50
:100F20005091162E0E94263A6093132E7093142E21
:100F30008093152E9093162E80917B298F3F29F454
:100F400080917C298F3F09F458C0109200201092A4
:100F50000120109202201092032020917B294091C1
:100F60000020509101206091022070910320922F67
:100F700080E0AA2797FDA095BA2F842B952BA62B4E
:100F8000B72B8093002090930120A0930220B09370
:100F9000032020917C298091002090910120A09134
:100FA0000220B0910320822B809300209093012097
:100FB000A0930220B09303202091002030910120C3
:100FC000409102205091032060917D3270917E32D9
:100FD00080917F32909180320E94C73928E631E0BB
:100FE00040E050E00E940B3A209300203093012013
:100FF000409302205093032078C080917D298F3F39
:1010000029F480917E298F3F09F464C0109200205A
:1010100010920120109202201092032020917D292D
:101020004091002050910120609102207091032096
:10103000922F80E0AA2797FDA095BA2F842B952B9D
:10104000A62BB72B8093002090930120A093022021
:10105000B093032020917E2980910020909101205F
:10106000A0910220B0910320822B809300209093C6
:101070000120A0930220B093032020910020309102
:101080000120409102205091032060917D327091A7
:101090007E3280917F3290918032C0908B32D0909E
:1010A0008C32E0908D32F0908E320E94C73928E663
:1010B00031E040E050E00E940B3AC20ED31EE41E25
:1010C000F51EC0920020D0920120E0920220F09202
:1010D00003200BC08FEF9FEFDC01809300209093E3
:1010E0000120A0930220B093032080917F298F3F9D
:1010F000C9F080917F2990E09C01220F331F820F5D
:10110000931F809387329093883280918732909199
:10111000883299230CF40196959587958093692ED2
:1011200090936A2E809180298F3F21F080918029B1
:10113000809366291092602E1092612E1092012EDB
:101140001092022E109267291092CE248091762957
:101150008093E52800E010E0F801EB51F74D608145
:1011600081E293E20E94A735882311F00F5F1F4FA1
:10117000101611068CF71092632E1092632E28C55C
:1011800080917629843009F095C18091632E853055
:1011900008F41EC51092032E1092FC291092FA2D0D
:1011A000109289321092CD281092CE281092CF281A
:1011B0001092D028209177294091CD285091CE28A7
:1011C0006091CF287091D028922F80E0AA2797FDB8
:1011D000A095BA2F842B952BA62BB72B8093CD28C7
:1011E0009093CE28A093CF28B093D028209178292F
:1011F0008091CD289091CE28A091CF28B091D02871
:10120000822B8093CD289093CE28A093CF28B093A3
:10121000D028A091082EB091092E2091CD28309190
:10122000CE284091CF285091D0280E94263A609332
:10123000CD287093CE288093CF289093D0281092F9
:101240001E2E10921F2E1092202E1092212E2091D1
:10125000792940911E2E50911F2E6091202E709161
:10126000212E922F80E0AA2797FDA095BA2F842BDC
:10127000952BA62BB72B80931E2E90931F2EA093F9
:10128000202EB093212E20917A2980911E2E9091AC
:101290001F2EA091202EB091212E822B80931E2EE6
:1012A00090931F2EA093202EB093212E20911E2EBE
:1012B00030911F2E4091202E5091212E60917D3231
:1012C00070917E3280917F32909180320E94C73936
:1012D00028E631E040E050E00E940B3A20931E2EB9
:1012E00030931F2E4093202E5093212E40918B320D
:1012F00050918C3260918D3270918E3280911E2E81
:1013000090911F2EA091202EB091212EC090D72811
:10131000D090D828E090D928F090DA2840908B32ED
:1013200050908C3260908D3270908E3200911E2ED3
:1013300010911F2E2091202E3091212E09831A8387
:101340002B833C838090D7289090D828A090D928D0
:10135000B090DA288A019B01080F191F2A1F3B1F32
:10136000C901B8010E94DA376D837E838F83988725
:10137000C701B6010E94DA379B01AC016D817E8105
:101380008F8198850E943F372BED3FE049E450E480
:101390000E94F3380E943C376B017C0169817A819D
:1013A0008B819C81640D751D861D971D0E94DA3707
:1013B0002B013C01C501B4010E94DA379B01AC014D
:1013C000C301B2010E943F372BED3FE049E450E4F6
:1013D0000E94F3380E9456394B015C016091CD2880
:1013E0007091CE288091CF289091D0284090CD2820
:1013F0005090CE286090CF287090D02820912B2E2E
:1014000030912C2E40912D2E50912E2E29833A83EF
:101410004B835C830E94DA37A70196010E94F33860
:101420000E94A73709811A812B813C81060F171F63
:10143000281F391F0093B6241093B7242093B82493
:101440003093B924C0900A2AD0900B2AE0900C2A3D
:10145000F0900D2AC301B2010E94DA37A501940170
:101460000E94F3380E94A737C60ED71EE81EF91E49
:10147000C092132ED092142EE092152EF092162EBA
:10148000809176298093E52800E010E0F801EB5187
:10149000F74D608181E293E20E94A735882311F025
:1014A0000F5F1F4F101611068CF71092632E1092CB
:1014B000632E8EC380917629853009F06EC08091AD
:1014C000632E833008F484C31092032E81E080934E
:1014D00089328091772988238CF48091772990E054
:1014E0009C01220F331F220F331F820F931F80583E
:1014F00092408093832E9093842E10C08091772900
:1015000090E09C01220F331F220F331F820F931F85
:10151000805892408093832E9093842E80917829D6
:1015200088238CF48091782990E09C01220F331F4E
:10153000220F331F820F931F805892408093812E79
:101540009093822E10C08091782990E09C01220F08
:10155000331F220F331F820F931F805892408093B6
:10156000812E9093822E809176298093E52800E049
:1015700010E0F801EB51F74D608181E293E20E94A7
:10158000A735882311F00F5F1F4F101611068CF737
:101590001092632E1092632E1BC3809176298630A1
:1015A00009F056C08091632E873008F411C3109261
:1015B000032EE0E4F6E0948147E759E2DA018C91EA
:1015C00068E779E2DB012C918223892B8483948163
:1015D000DA018C91DB012C91822780958923848309
:1015E0008091792990E088589F4FE0E0FBE080A748
:1015F00091A780917A2990E088589F4F82A793A75E
:1016000080917B2990E088589F4F84A795A780916F
:101610007C2990E088589F4F86A797A780917629CC
:101620008093E52800E010E0F801EB51F74D608170
:1016300081E293E20E94A735882311F00F5F1F4FCC
:10164000101611068CF71092632E1092632EC0C2F2
:1016500080917629873009F07DC18091632E873093
:1016600008F4B6C21092032E809177298F3F29F497
:10167000809178298F3F09F46DC010922B2E109223
:101680002C2E10922D2E10922E2E209177294091E3
:101690002B2E50912C2E60912D2E70912E2E922F4C
:1016A00080E0AA2797FDA095BA2F842B952BA62B17
:1016B000B72B80932B2E90932C2EA0932D2EB0938E
:1016C0002E2E2091782980912B2E90912C2EA09156
:1016D0002D2EB0912E2E822B80932B2E90932C2E7C
:1016E000A0932D2EB0932E2EA091082EB091092EEE
:1016F00020912B2E30912C2E40912D2E50912E2E5C
:101700000E94263A60932B2E70932C2E80932D2EC0
:1017100090932E2E80912B2E90912C2EA0912D2ED9
:10172000B0912E2E8093B6249093B724A093B82422
:10173000B093B92480912B2E90912C2EA0912D2E18
:10174000B0912E2E8093392E90933A2EA0933B2E5B
:10175000B0933C2E809179298F3F29F480917A298A
:101760008F3F09F46DC010920A2A10920B2A109232
:101770000C2A10920D2A2091792940910A2A509121
:101780000B2A60910C2A70910D2A922F80E0AA27D3
:1017900097FDA095BA2F842B952BA62BB72B809362
:1017A0000A2A90930B2AA0930C2AB0930D2A209119
:1017B0007A2980910A2A90910B2AA0910C2AB09143
:1017C0000D2A822B80930A2A90930B2AA0930C2A2D
:1017D000B0930D2AA091082EB091092E20910A2ACB
:1017E00030910B2A40910C2A50910D2A0E94263AE2
:1017F00060930A2A70930B2A80930C2A90930D2AE7
:1018000080910A2A90910B2AA0910C2AB0910D2A5E
:101810008093132E9093142EA093152EB093162E12
:1018200080910A2A90910B2AA0910C2AB0910D2A3E
:101830008093782E9093792EA0937A2EB0937B2E5E
:1018400080917B298F3F29F480917C298F3F09F477
:1018500067C010928B3210928C3210928D3210929F
:101860008E3220917B2940918B3250918C32609145
:101870008D3270918E32922F80E0AA2797FDA0952D
:10188000BA2F842B952BA62BB72B80938B3290935A
:101890008C32A0938D32B0938E3220917C2980912E
:1018A0008B3290918C32A0918D32B0918E32822BFE
:1018B00080938B3290938C32A0938D32B0938E3282
:1018C00020918B3230918C3240918D3250918E32FA
:1018D00060917D3270917E3280917F329091803222
:1018E0000E94C73928E631E040E050E00E940B3A00
:1018F00020938B3230938C3240938D3250938E32C2
:1019000080918B3290918C32A0918D32B0918E3239
:101910008093D4249093D524A093D624B093D72435
:10192000809176298093E52800E010E0F801EB51E2
:10193000F74D608181E293E20E94A735882311F080
:101940000F5F1F4F101611068CF71092632E109226
:10195000632E3EC1809176298830D9F58091632E1F
:10196000833008F435C11092032E8091772981309D
:1019700039F48093FA2D1092832E1092842E02C097
:101980001092FA2D80917829813039F48093FC29C6
:101990001092812E1092822E02C01092FC2980910A
:1019A00076298093E52800E010E0F801EB51F74D2F
:1019B000608181E293E20E94A735882311F00F5FD6
:1019C0001F4F101611068CF71092632E1092632E83
:1019D000FFC080917629853609F04BC08091632E37
:1019E000813009F0F5C01092032E80917629809302
:1019F000E52860912B2E70912C2E80912D2E9091A8
:101A00002E2E2091082E3091092E40E050E00E94A9
:101A10000B3ABB2757FDBA95A52F942F832F8093A0
:101A2000E62860912B2E70912C2E80912D2E909176
:101A30002E2E2091082E3091092E40E050E00E9479
:101A40000B3A2093E72800E010E0F801EB51F74D46
:101A5000608181E293E20E94A735882311F00F5F35
:101A60001F4F033011058CF31092632E1092632EDA
:101A7000AFC080917629863609F04BC08091632EE5
:101A8000813009F0A5C01092032E809176298093B1
:101A9000E52860910A2A70910B2A80910C2A909176
:101AA0000D2A2091082E3091092E40E050E00E942E
:101AB0000B3ABB2757FDBA95A52F942F832F809300
:101AC000E62860910A2A70910B2A80910C2A909145
:101AD0000D2A2091082E3091092E40E050E00E94FE
:101AE0000B3A2093E72800E010E0F801EB51F74DA6
:101AF000608181E293E20E94A735882311F00F5F95
:101B00001F4F033011058CF31092632E1092632E39
:101B10005FC080917629873609F05AC08091632E84
:101B2000813009F055C01092032E80917629809360
:101B3000E52820918B3230918C3240918D3250913A
:101B40008E32C0907D32D0907E32E0907F32F09025
:101B50008032A8E6B1E00E94263AA70196010E94D1
:101B60000B3ABB2757FDBA95A52F942F832F80934F
:101B7000E62820918B3230918C3240918D325091F9
:101B80008E32C0907D32D0907E32E0907F32F090E5
:101B90008032A8E6B1E00E94263AA70196010E9491
:101BA0000B3A2093E72800E010E0F801EB51F74DE5
:101BB000608181E293E20E94A735882311F00F5FD4
:101BC0001F4F033011058CF31092632E1092632E79
:101BD0002896CDBFDEBFDF91CF91FF91EF91BF91EE
:101BE000AF919F918F917F916F915F914F913F91B5
:101BF0002F911F910F91FF90EF90DF90CF90BF90AA
:101C0000AF909F908F907F906F905F904F900F90CC
:101C10000BBE0F900ABE0F9009BE0F9008BE0F902A
:101C20000FBE0F901F9018951F920F920FB60F9234
:101C3000112408B60F9218BE09B60F9219BE0AB643
:101C40000F921ABE0BB60F921BBE4F925F926F920D
:101C50007F928F929F92AF92BF92CF92DF92EF923C
:101C6000FF920F931F932F933F934F935F936F9325
:101C70007F938F939F93AF93BF93EF93FF93CF93F4
:101C8000DF93CDB7DEB72897CDBFDEBF83E190E20B
:101C90000E94D43580916529082F10E083E190E2FD
:101CA0000E94C635F801EA58F64D80838091652977
:101CB0008F5F8093652980916529882319F081E0E1
:101CC0008093032E80917629813009F000C18091A4
:101CD0006529813011F00C94B11A1092032E809175
:101CE00076298093E52860912B2E70912C2E80917F
:101CF0002D2E90912E2E2091082E3091092E40E00D
:101D000050E00E940B3ABB2757FDBA95A52F942FA0
:101D1000832F8093E62860912B2E70912C2E80913A
:101D20002D2E90912E2E2091082E3091092E40E0DC
:101D300050E00E940B3A2093E72860910A2A7091A4
:101D40000B2A80910C2A90910D2A2091082E309117
:101D5000092E40E050E00E940B3ABB2757FDBA9590
:101D6000A52F942F832F8093E82860910A2A7091E1
:101D70000B2A80910C2A90910D2A2091082E3091E7
:101D8000092E40E050E00E940B3A2093E928209170
:101D90008B3230918C3240918D3250918E32C09086
:101DA0007D32D0907E32E0907F32F0908032A8E693
:101DB000B1E00E94263AA70196010E940B3ABB2788
:101DC00057FDBA95A52F942F832F8093EA28209151
:101DD0008B3230918C3240918D3250918E32C09046
:101DE0007D32D0907E32E0907F32F0908032A8E653
:101DF000B1E00E94263AA70196010E940B3A209377
:101E0000EB2860911A2E70911B2E80911C2E9091C0
:101E10001D2E2091082E3091092E40E050E00E94A6
:101E20000B3ABB2757FDBA95A52F942F832F80938C
:101E3000EC2860911A2E70911B2E80911C2E90918F
:101E40001D2E2091082E3091092E40E050E00E9476
:101E50000B3A2093ED28809106208093EE28809104
:101E6000A8249091A9248093EF288091C824909170
:101E7000C9248093F0286091622E80E292E00E9453
:101E800047018093F1286091622E88E292E00E94DF
:101E900047018093F228E0E2F6E080858093F32802
:101EA00000E010E0F801EB51F74D608183E190E232
:101EB0000E94A735882311F00F5F1F4F0F301105C7
:101EC0008CF310926529109265290C94B11A8091B7
:101ED0007629823009F0C1C080916529853010F4DF
:101EE0000C94B11A1092032E1092FC291092FA2D24
:101EF000109289321092B6241092B7241092B8240E
:101F00001092B924209177294091B6245091B7249A
:101F10006091B8247091B924922F80E0AA2797FD90
:101F2000A095BA2F842B952BA62BB72B8093B62484
:101F30009093B724A093B824B093B9242091782922
:101F40008091B6249091B724A091B824B091B9247F
:101F5000822B8093B6249093B724A093B824B09397
:101F6000B924A091082EB091092E2091B624309169
:101F7000B7244091B8245091B9240E94263A609326
:101F8000B6247093B7248093B8249093B924109208
:101F9000132E1092142E1092152E1092162E2091A0
:101FA00079294091132E5091142E6091152E709125
:101FB000162E922F80E0AA2797FDA095BA2F842B8A
:101FC000952BA62BB72B8093132E9093142EA093B2
:101FD000152EB093162E20917A298091132E909170
:101FE000142EA091152EB091162E822B8093132EB5
:101FF0009093142EA093152EB093162EA091082E18
:10200000B091092E2091132E3091142E4091152E4F
:102010005091162E0E94263A6093132E7093142E20
:102020008093152E9093162E809176298093E52823
:1020300000E010E0F801EB51F74D608183E190E2A0
:102040000E94A735882311F00F5F1F4F101611064D
:102050008CF7109265290C94B11A809176298330FF
:1020600009F0E5C1809165298B3010F40C94B11A08
:102070001092032E809177298F3F29F4809178293F
:102080008F3F09F453C01092FC291092FA2D109240
:1020900089321092B6241092B7241092B82410926C
:1020A000B924209177294091B6245091B7246091AA
:1020B000B8247091B924922F80E0AA2797FDA095AB
:1020C000BA2F842B952BA62BB72B8093B6249093F5
:1020D000B724A093B824B093B92420917829809193
:1020E000B6249091B724A091B824B091B924822B42
:1020F0008093B6249093B724A093B824B093B924C6
:10210000A091082EB091092E2091B6243091B724C9
:102110004091B8245091B9240E94263A6093B62485
:102120007093B7248093B8249093B924809179292F
:102130008F3F29F480917A298F3F09F453C0109280
:10214000FC291092FA2D109289321092132E1092BF
:10215000142E1092152E1092162E2091792940914E
:10216000132E5091142E6091152E7091162E922FD1
:1021700080E0AA2797FDA095BA2F842B952BA62B3C
:10218000B72B8093132E9093142EA093152EB093FB
:10219000162E20917A298091132E9091142EA091C1
:1021A000152EB091162E822B8093132E9093142E01
:1021B000A093152EB093162EA091082EB091092E43
:1021C0002091132E3091142E4091152E5091162EE1
:1021D0000E94263A6093132E7093142E8093152E2E
:1021E0009093162E80917B298F3F29F480917C2932
:1021F0008F3F09F458C010920020109201201092D5
:1022000002201092032020917B29409100205091C0
:1022100001206091022070910320922F80E0AA2774
:1022200097FDA095BA2F842B952BA62BB72B8093C7
:10223000002090930120A0930220B09303202091CE
:102240007C298091002090910120A0910220B091E2
:102250000320822B8093002090930120A0930220E2
:10226000B093032020910020309101204091022062
:102270005091032060917D3270917E3280917F3247
:10228000909180320E94C73928E631E040E050E06A
:102290000E940B3A209300203093012040930220AB
:1022A0005093032078C080917D298F3F29F480913D
:1022B0007E298F3F09F464C0109200201092012003
:1022C000109202201092032020917D29409100203D
:1022D000509101206091022070910320922F80E0A4
:1022E000AA2797FDA095BA2F842B952BA62BB72B49
:1022F0008093002090930120A0930220B0930320AC
:1023000020917E298091002090910120A0910220AF
:10231000B0910320822B8093002090930120A09302
:102320000220B093032020910020309101204091A1
:1023300002205091032060917D3270917E32809115
:102340007F3290918032C0908B32D0908C32E0906E
:102350008D32F0908E320E94C73928E631E040E09D
:1023600050E00E940B3AC20ED31EE41EF51EC0922E
:102370000020D0920120E0920220F09203200BC0B6
:102380008FEF9FEFDC018093002090930120A093BA
:102390000220B093032080917F298F3FC9F0809164
:1023A0007F2990E09C01220F331F820F931F80939F
:1023B0008732909388328091873290918832992326
:1023C0000CF40196959587958093692E90936A2ECB
:1023D000809180298F3F21F0809180298093662908
:1023E0001092602E1092612E1092012E1092022EE9
:1023F000109267291092CE24809176298093E52847
:1024000000E010E0F801EB51F74D608183E190E2CC
:102410000E94A735882311F00F5F1F4F1016110679
:102420008CF710926529109265290C94B11A80914D
:102430007629843009F096C180916529853010F4A1
:102440000C94B11A1092032E1092FC291092FA2DBE
:10245000109289321092CD281092CE281092CF2857
:102460001092D028209177294091CD285091CE28E4
:102470006091CF287091D028922F80E0AA2797FDF5
:10248000A095BA2F842B952BA62BB72B8093CD2804
:102490009093CE28A093CF28B093D028209178296C
:1024A0008091CD289091CE28A091CF28B091D028AE
:1024B000822B8093CD289093CE28A093CF28B093E1
:1024C000D028A091082EB091092E2091CD283091CE
:1024D000CE284091CF285091D0280E94263A609370
:1024E000CD287093CE288093CF289093D028109237
:1024F0001E2E10921F2E1092202E1092212E20910F
:10250000792940911E2E50911F2E6091202E70919E
:10251000212E922F80E0AA2797FDA095BA2F842B19
:10252000952BA62BB72B80931E2E90931F2EA09336
:10253000202EB093212E20917A2980911E2E9091E9
:102540001F2EA091202EB091212E822B80931E2E23
:1025500090931F2EA093202EB093212E20911E2EFB
:1025600030911F2E4091202E5091212E60917D326E
:1025700070917E3280917F32909180320E94C73973
:1025800028E631E040E050E00E940B3A20931E2EF6
:1025900030931F2E4093202E5093212E40918B324A
:1025A00050918C3260918D3270918E3280911E2EBE
:1025B00090911F2EA091202EB091212EC090D7284F
:1025C000D090D828E090D928F090DA2840908B322B
:1025D00050908C3260908D3270908E3200911E2E11
:1025E00010911F2E2091202E3091212E09831A83C5
:1025F0002B833C838090D7289090D828A090D9280E
:10260000B090DA288A019B01080F191F2A1F3B1F6F
:10261000C901B8010E94DA376D837E838F83988762
:10262000C701B6010E94DA379B01AC016D817E8142
:102630008F8198850E943F372BED3FE049E450E4BD
:102640000E94F3380E943C376B017C0169817A81DA
:102650008B819C81640D751D861D971D0E94DA3744
:102660002B013C01C501B4010E94DA379B01AC018A
:10267000C301B2010E943F372BED3FE049E450E433
:102680000E94F3380E9456394B015C016091CD28BD
:102690007091CE288091CF289091D0284090CD285D
:1026A0005090CE286090CF287090D02820912B2E6B
:1026B00030912C2E40912D2E50912E2E29833A832D
:1026C0004B835C830E94DA37A70196010E94F3389E
:1026D0000E94A73709811A812B813C81060F171FA1
:1026E000281F391F0093B6241093B7242093B824D1
:1026F0003093B924C0900A2AD0900B2AE0900C2A7B
:10270000F0900D2AC301B2010E94DA37A5019401AD
:102710000E94F3380E94A737C60ED71EE81EF91E86
:10272000C092132ED092142EE092152EF092162EF7
:10273000809176298093E52800E010E0F801EB51C4
:10274000F74D608183E190E20E94A735882311F064
:102750000F5F1F4F101611068CF71092652910920B
:102760006529FFC680917629853009F06EC0809179
:102770006529833008F4F5C61092032E81E080931A
:1027800089328091772988238CF48091772990E091
:102790009C01220F331F220F331F820F931F80587B
:1027A00092408093832E9093842E10C0809177293D
:1027B00090E09C01220F331F220F331F820F931FC3
:1027C000805892408093832E9093842E8091782914
:1027D00088238CF48091782990E09C01220F331F8C
:1027E000220F331F820F931F805892408093812EB7
:1027F0009093822E10C08091782990E09C01220F46
:10280000331F220F331F820F931F805892408093F3
:10281000812E9093822E809176298093E52800E086
:1028200010E0F801EB51F74D608183E190E20E94E6
:10283000A735882311F00F5F1F4F101611068CF774
:1028400010926529109265298CC680917629863070
:1028500009F056C080916529873008F482C610922D
:10286000032EE0E4F6E0948147E759E2DA018C9127
:1028700068E779E2DB012C918223892B84839481A0
:10288000DA018C91DB012C91822780958923848346
:102890008091792990E088589F4FE0E0FBE080A785
:1028A00091A780917A2990E088589F4F82A793A79B
:1028B00080917B2990E088589F4F84A795A78091AD
:1028C0007C2990E088589F4F86A797A7809176290A
:1028D0008093E52800E010E0F801EB51F74D6081AE
:1028E00083E190E20E94A735882311F00F5F1F4F0C
:1028F000101611068CF7109265291092652931C6C1
:1029000080917629873009F07DC1809165298730D3
:1029100008F427C61092032E809177298F3F29F45F
:10292000809178298F3F09F46DC010922B2E109260
:102930002C2E10922D2E10922E2E20917729409120
:102940002B2E50912C2E60912D2E70912E2E922F89
:1029500080E0AA2797FDA095BA2F842B952BA62B54
:10296000B72B80932B2E90932C2EA0932D2EB093CB
:102970002E2E2091782980912B2E90912C2EA09193
:102980002D2EB0912E2E822B80932B2E90932C2EB9
:10299000A0932D2EB0932E2EA091082EB091092E2B
:1029A00020912B2E30912C2E40912D2E50912E2E99
:1029B0000E94263A60932B2E70932C2E80932D2EFE
:1029C00090932E2E80912B2E90912C2EA0912D2E17
:1029D000B0912E2E8093B6249093B724A093B82460
:1029E000B093B92480912B2E90912C2EA0912D2E56
:1029F000B0912E2E8093392E90933A2EA0933B2E99
:102A0000B0933C2E809179298F3F29F480917A29C7
:102A10008F3F09F46DC010920A2A10920B2A10926F
:102A20000C2A10920D2A2091792940910A2A50915E
:102A30000B2A60910C2A70910D2A922F80E0AA2710
:102A400097FDA095BA2F842B952BA62BB72B80939F
:102A50000A2A90930B2AA0930C2AB0930D2A209156
:102A60007A2980910A2A90910B2AA0910C2AB09180
:102A70000D2A822B80930A2A90930B2AA0930C2A6A
:102A8000B0930D2AA091082EB091092E2091132EFB
:102A90003091142E4091152E5091162E0E94263AF8
:102AA00060930A2A70930B2A80930C2A90930D2A24
:102AB00080910A2A90910B2AA0910C2AB0910D2A9C
:102AC0008093132E9093142EA093152EB093162E50
:102AD00080910A2A90910B2AA0910C2AB0910D2A7C
:102AE0008093782E9093792EA0937A2EB0937B2E9C
:102AF00080917B298F3F29F480917C298F3F09F4B5
:102B000067C010928B3210928C3210928D321092DC
:102B10008E3220917B2940918B3250918C32609182
:102B20008D3270918E32922F80E0AA2797FDA0956A
:102B3000BA2F842B952BA62BB72B80938B32909397
:102B40008C32A0938D32B0938E3220917C2980916B
:102B50008B3290918C32A0918D32B0918E32822B3B
:102B600080938B3290938C32A0938D32B0938E32BF
:102B700020918B3230918C3240918D3250918E3237
:102B800060917D3270917E3280917F32909180325F
:102B90000E94C73928E631E040E050E00E940B3A3D
:102BA00020938B3230938C3240938D3250938E32FF
:102BB00080918B3290918C32A0918D32B0918E3277
:102BC0008093D4249093D524A093D624B093D72473
:102BD000809176298093E52800E010E0F801EB5120
:102BE000F74D608183E190E20E94A735882311F0C0
:102BF0000F5F1F4F101611068CF710926529109267
:102C00006529AFC4809176298830D9F580916529EE
:102C1000833008F4A6C41092032E80917729813066
:102C200039F48093FA2D1092832E1092842E02C0D4
:102C30001092FA2D80917829813039F48093FC2903
:102C40001092812E1092822E02C01092FC29809147
:102C500076298093E52800E010E0F801EB51F74D6C
:102C6000608183E190E20E94A735882311F00F5F15
:102C70001F4F101611068CF71092652910926529C6
:102C800070C480917629893009F003C1809165294B
:102C9000863008F466C41092032E10926E291092AA
:102CA0006F291092702910927129209178298091B2
:102CB0006E2990916F29A0917029B0917129B22B42
:102CC00080936E2990936F29A0937029B0937129F6
:102CD0002091792980916E2990916F29A091702976
:102CE000B0917129A22B80936E2990936F29A093A4
:102CF0007029B093712920917A2980916E29909141
:102D00006F29A0917029B0917129922B80936E291F
:102D100090936F29A0937029B093712920917B29FA
:102D200080916E2990916F29A0917029B09171299D
:102D3000822B80936E2990936F29A0937029B09372
:102D40007129809177298130B1F480916E29909119
:102D50006F29A0917029B0917129FC018081918126
:102D6000A281B3818093E9281092E8281092E72885
:102D70001092E62874C080917729823031F58091D5
:102D80006E2990916F29A0917029B0917129FC0151
:102D900080819181A281B3818093E92880916E29FD
:102DA00090916F29A0917029B09171290196A11D70
:102DB000B11DFC0180819181A281B3818093E828BB
:102DC0001092E7281092E6284AC080917729843033
:102DD00009F045C080916E2990916F29A0917029CA
:102DE000B0917129FC0180819181A281B38180938E
:102DF000E92880916E2990916F29A0917029B09156
:102E000071290196A11DB11DFC0180819181A281D2
:102E1000B3818093E82880916E2990916F29A091C9
:102E20007029B09171290296A11DB11DFC0180810C
:102E30009181A281B3818093E72880916E2990913E
:102E40006F29A0917029B09171290396A11DB11D20
:102E5000FC0180819181A281B3818093E6288091D9
:102E600076298093E52800E010E0F801EB51F74D5A
:102E7000608183E190E20E94A735882311F00F5F03
:102E80001F4F053011058CF31092652910926529AA
:102E900068C3809176298A3009F08EC180916529B6
:102EA0008A3008F45EC31092032E10926E2910929D
:102EB0006F291092702910927129209178298091A0
:102EC0006E2990916F29A0917029B0917129B22B30
:102ED00080936E2990936F29A0937029B0937129E4
:102EE0002091792980916E2990916F29A091702964
:102EF000B0917129A22B80936E2990936F29A09392
:102F00007029B093712920917A2980916E2990912E
:102F10006F29A0917029B0917129922B80936E290D
:102F200090936F29A0937029B093712920917B29E8
:102F300080916E2990916F29A0917029B09171298B
:102F4000822B80936E2990936F29A0937029B09360
:102F5000712980917729843009F097C080916E297A
:102F600090916F29A0917029B0917129FC018091F5
:102F70007F2990E0A0E0B0E080839183A283B383B7
:102F800080916E2990916F29A0917029B09171293B
:102F90000196A11DB11DFC0180917E2990E0A0E069
:102FA000B0E080839183A283B38380916E29909156
:102FB0006F29A0917029B09171290296A11DB11DB0
:102FC000FC0180917D2990E0A0E0B0E080839183B6
:102FD000A283B38380916E2990916F29A09170296B
:102FE000B09171290396A11DB11DFC0180917C292E
:102FF00090E0A0E0B0E080839183A283B3838091CE
:103000006E2990916F29A0917029B0917129039632
:10301000A11DB11DFC0180819181A281B3818093AA
:10302000E62880916E2990916F29A0917029B09126
:1030300071290296A11DB11DFC0180819181A2819F
:10304000B3818093E72880916E2990916F29A09198
:103050007029B09171290196A11DB11DFC018081DB
:103060009181A281B3818093E82880916E2990910B
:103070006F29A0917029B0917129FC018081918103
:10308000A281B3818093E9287DC080917729823025
:1030900009F04DC080916E2990916F29A0917029FF
:1030A000B0917129FC0180917F2990E0A0E0B0E00F
:1030B00080839183A283B38380916E2990916F293D
:1030C000A0917029B09171290196A11DB11DFC013B
:1030D00080917E2990E0A0E0B0E080839183A2837C
:1030E000B3831092E6281092E72880916E29909180
:1030F0006F29A0917029B09171290196A11DB11D70
:10310000FC0180819181A281B3818093E828809124
:103110006E2990916F29A0917029B0917129FC01BD
:1031200080819181A281B3818093E9282BC0809115
:103130007729813039F580916E2990916F29A0917E
:103140007029B0917129FC0180917F2990E0A0E065
:10315000B0E080839183A283B3831092E62810921B
:10316000E7281092E82880916E2990916F29A0910C
:103170007029B0917129FC0180819181A281B38174
:103180008093E928809176298093E52800E010E07B
:10319000F801EB51F74D608183E190E20E94A73581
:1031A000882311F00F5F1F4F053011058CF310922B
:1031B000652910926529D5C1809176298B3009F057
:1031C00044C180916529873008F4CBC11092032E49
:1031D00080917729813009F05CC0809178298093B3
:1031E0007A328091792980938A321092022A109241
:1031F000032A1092042A1092052A20917A2980919C
:10320000022A9091032AA091042AB091052AB22B98
:103210008093022A9093032AA093042AB093052A4C
:1032200020917B298091022A9091032AA091042A5F
:10323000B091052AA22B8093022A9093032AA0938F
:10324000042AB093052A20917C298091022A90912A
:10325000032AA091042AB091052A922B8093022A76
:103260009093032AA093042AB093052A20917D29E4
:103270008091022A9091032AA091042AB091052AF4
:10328000822B8093022A9093032AA093042AB0935E
:10329000052A80917729823009F05CC080917829D5
:1032A0008093852E809179298093682E1092C42472
:1032B0001092C5241092C6241092C72420917A2916
:1032C0008091C4249091C524A091C624B091C724B4
:1032D000B22B8093C4249093C524A093C624B093AA
:1032E000C72420917B298091C4249091C524A0916A
:1032F000C624B091C724A22B8093C4249093C524E4
:10330000A093C624B093C72420917C298091C42423
:103310009091C524A091C624B091C724922B80938C
:10332000C4249093C524A093C624B093C7242091AD
:103330007D298091C4249091C524A091C624B09188
:10334000C724822B8093C4249093C524A093C624C1
:10335000B093C72480917729833009F05CC08091B5
:1033600078298093192E809179298093DA241092FC
:10337000482E1092492E10924A2E10924B2E2091D8
:103380007A298091482E9091492EA0914A2EB09191
:103390004B2EB22B8093482E9093492EA0934A2E09
:1033A000B0934B2E20917B298091482E9091492EED
:1033B000A0914A2EB0914B2EA22B8093482E909331
:1033C000492EA0934A2EB0934B2E20917C298091B8
:1033D000482E9091492EA0914A2EB0914B2E922BBF
:1033E0008093482E9093492EA0934A2EB0934B2E53
:1033F00020917D298091482E9091492EA0914A2EAE
:10340000B0914B2E822B8093482E9093492EA093FF
:103410004A2EB0934B2E809176298093E52800E0C8
:1034200010E0F801EB51F74D608183E190E20E94DA
:10343000A735882311F00F5F1F4F101611068CF768
:1034400010926529109265298CC0809176298C3064
:1034500009F087C080916529823008F482C01092FB
:10346000032E809177298130F9F420E030E080E06C
:1034700090E0FC01EE0FFF1FE25FF54D40815181AE
:10348000452F550F550BD901AB51B74D4C9340818A
:103490005181F901EA51F74D40832E5F3F4F01966C
:1034A0008F37910531F75AC0809177298230F9F42E
:1034B00020E030E080E090E0FC01EE0FFF1FEE56D0
:1034C000F14D40815181452F550F550BD901AB511D
:1034D000B74D4C9340815181F901EA51F74D40833A
:1034E0002E5F3F4F01968F37910531F737C080919E
:1034F0007729833099F520E030E080E090E0FC010E
:10350000EE0FFF1FE152FB4D40815181452F550FBA
:10351000550BD901AB51B74D4C9340815181F90105
:10352000EA51F74D40832E5F3F4F01968F3791054B
:1035300031F714C0F801EB51F74D608183E190E25F
:103540000E94A735882311F00F5F1F4F0E3F110512
:103550008CF3109265291092652903C000E010E0F9
:10356000E9CF2896CDBFDEBFDF91CF91FF91EF91DC
:10357000BF91AF919F918F917F916F915F914F918B
:103580003F912F911F910F91FF90EF90DF90CF907F
:10359000BF90AF909F908F907F906F905F904F9073
:1035A0000F900BBE0F900ABE0F9009BE0F9008BE81
:1035B0000F900FBE0F901F9018951F920F920FB68D
:1035C0000F92112408B60F9218BE09B60F9219BEB9
:1035D0000AB60F921ABE0BB60F921BBE4F925F92A5
:1035E0006F927F928F929F92AF92BF92CF92DF9213
:1035F000EF92FF920F931F932F933F934F935F93FD
:103600006F937F938F939F93AF93BF93EF93FF93AA
:10361000CF93DF9300D01F92CDB7DEB78AE991E256
:103620000E94D4358091472E082F10E08AE991E25C
:103630000E94C635F801EA58F64D80838091472EE6
:103640008F5F8093472E8091472E882319F081E069
:103650008093032E80917629813009F0FEC08091FD
:10366000472E813009F0ACC71092032E8091762945
:103670008093E52860912B2E70912C2E80912D2E19
:1036800090912E2E2091082E3091092E40E050E08E
:103690000E940B3ABB2757FDBA95A52F942F832F75
:1036A0008093E62860912B2E70912C2E80912D2EE8
:1036B00090912E2E2091082E3091092E40E050E05E
:1036C0000E940B3A2093E72860910A2A70910B2AF6
:1036D00080910C2A90910D2A2091082E3091092E6C
:1036E00040E050E00E940B3ABB2757FDBA95A52F4A
:1036F000942F832F8093E82860910A2A70910B2AD7
:1037000080910C2A90910D2A2091082E3091092E3B
:1037100040E050E00E940B3A2093E92820918B3240
:1037200030918C3240918D3250918E32C0907D32EA
:10373000D0907E32E0907F32F0908032A8E6B1E007
:103740000E94263AA70196010E940B3ABB2757FD1B
:10375000BA95A52F942F832F8093EA2820918B323E
:1037600030918C3240918D3250918E32C0907D32AA
:10377000D0907E32E0907F32F0908032A8E6B1E0C7
:103780000E94263AA70196010E940B3A2093EB284B
:1037900060911A2E70911B2E80911C2E90911D2EDF
:1037A0002091082E3091092E40E050E00E940B3A03
:1037B000BB2757FDBA95A52F942F832F8093EC2814
:1037C00060911A2E70911B2E80911C2E90911D2EAF
:1037D0002091082E3091092E40E050E00E940B3AD3
:1037E0002093ED28809106208093EE288091A824D4
:1037F0009091A9248093EF288091C8249091C924A6
:103800008093F0286091622E80E292E00E9447014E
:103810008093F1286091622E88E292E00E94470135
:103820008093F228E0E2F6E080858093F32800E0C0
:1038300010E0F801EB51F74D60818AE991E20E94B6
:10384000A735882311F00F5F1F4F0F3011058CF340
:103850001092472E1092472EB3C68091762982305F
:1038600009F0BFC08091472E853008F4A9C6109298
:10387000032E1092FC291092FA2D10928932109288
:10388000B6241092B7241092B8241092B924209133
:1038900077294091B6245091B7246091B824709153
:1038A000B924922F80E0AA2797FDA095BA2F842BE8
:1038B000952BA62BB72B8093B6249093B724A09377
:1038C000B824B093B924209178298091B62490919E
:1038D000B724A091B824B091B924822B8093B62448
:1038E0009093B724A093B824B093B924A091082E44
:1038F000B091092E2091B6243091B7244091B8247C
:103900005091B9240E94263A6093B6247093B7244C
:103910008093B8249093B9241092132E1092142EF1
:103920001092152E1092162E209179294091132E67
:103930005091142E6091152E7091162E922F80E0CA
:10394000AA2797FDA095BA2F842B952BA62BB72BD2
:103950008093132E9093142EA093152EB093162EB1
:1039600020917A298091132E9091142EA091152EDA
:10397000B091162E822B8093132E9093142EA09329
:10398000152EB093162EA091082EB091092E2091DD
:10399000132E3091142E4091152E5091162E0E9408
:1039A000263A6093132E7093142E8093152E9093C5
:1039B000162E809176298093E52800E010E0F8012A
:1039C000EB51F74D60818AE991E20E94A735882387
:1039D00011F00F5F1F4F101611068CF71092472E33
:1039E000EFC580917629833009F0E3C18091472E9D
:1039F0008B3008F4E5C51092032E809177298F3F14
:103A000029F4809178298F3F09F453C01092FC2942
:103A10001092FA2D109289321092B6241092B72487
:103A20001092B8241092B924209177294091B6249D
:103A30005091B7246091B8247091B924922F80E0FE
:103A4000AA2797FDA095BA2F842B952BA62BB72BD1
:103A50008093B6249093B724A093B824B093B9244C
:103A6000209178298091B6249091B724A091B82410
:103A7000B091B924822B8093B6249093B724A0935D
:103A8000B824B093B924A091082EB091092E2091AA
:103A9000B6243091B7244091B8245091B9240E94A3
:103AA000263A6093B6247093B7248093B8249093F9
:103AB000B924809179298F3F29F480917A298F3F09
:103AC00009F453C01092FC291092FA2D10928932F9
:103AD0001092132E1092142E1092152E1092162E54
:103AE000209179294091132E5091142E6091152E1A
:103AF0007091162E922F80E0AA2797FDA095BA2FDD
:103B0000842B952BA62BB72B8093132E9093142EDA
:103B1000A093152EB093162E20917A298091132E02
:103B20009091142EA091152EB091162E822B809379
:103B3000132E9093142EA093152EB093162EA091B1
:103B4000082EB091092E2091132E3091142E409101
:103B5000152E5091162E0E94263A6093132E7093C4
:103B6000142E8093152E9093162E80917B298F3FD3
:103B700029F480917C298F3F09F458C010920020CD
:103B800010920120109202201092032020917B2994
:103B900040910020509101206091022070910320FB
:103BA000922F80E0AA2797FDA095BA2F842B952B02
:103BB000A62BB72B8093002090930120A093022086
:103BC000B093032020917C298091002090910120C6
:103BD000A0910220B0910320822B8093002090932B
:103BE0000120A0930220B093032020910020309167
:103BF0000120409102205091032060917D3270910C
:103C00007E3280917F32909180320E94C73928E6BF
:103C100031E040E050E00E940B3A209300203093C6
:103C20000120409302205093032078C080917D2989
:103C30008F3F29F480917E298F3F09F464C0109250
:103C40000020109201201092022010920320209157
:103C50007D294091002050910120609102207091B7
:103C60000320922F80E0AA2797FDA095BA2F842BDE
:103C7000952BA62BB72B8093002090930120A09327
:103C80000220B093032020917E2980910020909102
:103C90000120A0910220B0910320822B809300206C
:103CA00090930120A0930220B09303202091002044
:103CB00030910120409102205091032060917D328B
:103CC00070917E3280917F3290918032C0908B32A1
:103CD000D0908C32E0908D32F0908E320E94C739B5
:103CE00028E631E040E050E00E940B3AC20ED31EBD
:103CF000E41EF51EC0920020D0920120E092022026
:103D0000F09203200BC08FEF9FEFDC018093002027
:103D100090930120A0930220B093032080917F29EB
:103D20008F3FC9F080917F2990E09C01220F331FC3
:103D3000820F931F809387329093883280918732CD
:103D40009091883299230CF40196959587958093EC
:103D5000692E90936A2E809180298F3F21F0809167
:103D60008029809366291092602E1092612E109205
:103D7000012E1092022E109267291092CE2480916B
:103D800076298093E52800E010E0F801EB51F74D2B
:103D900060818AE991E20E94A735882311F00F5FC4
:103DA0001F4F101611068CF71092472E1092472EB7
:103DB00007C480917629843009F075C18091472E1F
:103DC000853008F4FDC31092032E1092FC29109246
:103DD000FA2D109289321092CD281092CE2810928E
:103DE000CF281092D028209177294091CD2850914A
:103DF000CE286091CF287091D028922F80E0AA27FA
:103E000097FDA095BA2F842B952BA62BB72B8093CB
:103E1000CD289093CE28A093CF28B093D02820917E
:103E200078298091CD289091CE28A091CF28B0916B
:103E3000D028822B8093CD289093CE28A093CF2892
:103E4000B093D028A091082EB091092E2091CD28B2
:103E50003091CE284091CF285091D0280E94263A08
:103E60006093CD287093CE288093CF289093D0284C
:103E700010921E2E10921F2E1092202E1092212E84
:103E80002091792940911E2E50911F2E6091202E55
:103E90007091212E922F80E0AA2797FDA095BA2F2E
:103EA000842B952BA62BB72B80931E2E90931F2E21
:103EB000A093202EB093212E20917A2980911E2E3E
:103EC00090911F2EA091202EB091212E822B8093B5
:103ED0001E2E90931F2EA093202EB093212E209162
:103EE0001E2E30911F2E4091202E5091212E609138
:103EF0007D3270917E3280917F32909180320E942B
:103F0000C73928E631E040E050E00E940B3A2093A8
:103F10001E2E30931F2E4093202E5093212EC090A2
:103F20008B32D0908C32E0908D32F0908E32809136
:103F30001E2E90911F2EA091202EB091212E209107
:103F4000D7283091D8284091D9285091DA28BC013F
:103F5000CD016C0D7D1D8E1D9F1D0E940B3ACA0167
:103F6000B9010E94DA372BED3FE049E450E40E94AA
:103F7000F3380E943C3769837A838B839C83C0909B
:103F80008B32D0908C32E0908D32F0908E328091D6
:103F90001E2E90911F2EA091202EB091212E2091A7
:103FA000D7283091D8284091D9285091DA28BC01DF
:103FB000CD016C0D7D1D8E1D9F1D0E940B3ACA0107
:103FC000B9010E94DA372BED3FE049E450E40E944A
:103FD000F3380E9456394B015C016091CD287091F5
:103FE000CE288091CF289091D0284090CD28509015
:103FF000CE286090CF287090D028C0902B2ED090E3
:104000002C2EE0902D2EF0902E2E0E94DA37298152
:104010003A814B815C810E94F3380E94A737C60E1B
:10402000D71EE81EF91EC092B624D092B724E092A3
:10403000B824F092B924C0900A2AD0900B2AE090BC
:104040000C2AF0900D2AC301B2010E94DA37A501B3
:1040500094010E94F3380E94A737C60ED71EE81EAF
:10406000F91EC092132ED092142EE092152EF092CB
:10407000162E809176298093E52800E010E0F80163
:10408000EB51F74D60818AE991E20E94A7358823C0
:1040900011F00F5F1F4F101611068CF71092472E6C
:1040A0001092472E8DC280917629853009F06EC01E
:1040B0008091472E833008F483C21092032E81E052
:1040C000809389328091772988238CF48091772995
:1040D00090E09C01220F331F220F331F820F931F8A
:1040E000805892408093832E9093842E10C08091AC
:1040F000772990E09C01220F331F220F331F820F7C
:10410000931F805892408093832E9093842E8091A9
:10411000782988238CF48091782990E09C01220FE3
:10412000331F220F331F820F931F805892408093BA
:10413000812E9093822E10C08091782990E09C016E
:10414000220F331F220F331F820F931F805892407C
:104150008093812E9093822E809176298093E528FA
:1041600000E010E0F801EB51F74D60818AE991E23F
:104170000E94A735882311F00F5F1F4F10161106FC
:104180008CF71092472E1092472E1AC280917629F2
:10419000863009F056C08091472E873008F410C24F
:1041A0001092032EE0E4F6E0948147E759E2DA0149
:1041B0008C9168E779E2DB012C918223892B84833F
:1041C0009481DA018C91DB012C91822780958923DF
:1041D00084838091792990E088589F4FE0E0FBE04C
:1041E00080A791A780917A2990E088589F4F82A755
:1041F00093A780917B2990E088589F4F84A795A72B
:1042000080917C2990E088589F4F86A797A780913E
:1042100076298093E52800E010E0F801EB51F74D96
:1042200060818AE991E20E94A735882311F00F5F2F
:104230001F4F101611068CF71092472E1092472E22
:10424000BFC180917629873009F07DC18091472ECA
:10425000873008F4B5C11092032E809177298F3FE3
:1042600029F4809178298F3F09F46DC010922B2E8C
:1042700010922C2E10922D2E10922E2E20917729F6
:1042800040912B2E50912C2E60912D2E70912E2E20
:10429000922F80E0AA2797FDA095BA2F842B952B0B
:1042A000A62BB72B80932B2E90932C2EA0932D2EE4
:1042B000B0932E2E2091782980912B2E90912C2E28
:1042C000A0912D2EB0912E2E822B80932B2E909389
:1042D0002C2EA0932D2EB0932E2EA091082EB091AF
:1042E000092E20912B2E30912C2E40912D2E509165
:1042F0002E2E0E94263A60932B2E70932C2E8093A4
:104300002D2E90932E2E80912B2E90912C2EA091BD
:104310002D2EB0912E2E8093B6249093B724A09387
:10432000B824B093B92480912B2E90912C2EA0917B
:104330002D2EB0912E2E8093392E90933A2EA0934D
:104340003B2EB0933C2E809179298F3F29F48091A8
:104350007A298F3F09F46DC010920A2A10920B2A15
:1043600010920C2A10920D2A2091792940910A2A44
:1043700050910B2A60910C2A70910D2A922F80E0A7
:10438000AA2797FDA095BA2F842B952BA62BB72B88
:1043900080930A2A90930B2AA0930C2AB0930D2A9B
:1043A00020917A2980910A2A90910B2AA0910C2AB7
:1043B000B0910D2A822B80930A2A90930B2AA09306
:1043C0000C2AB0930D2AA091082EB091092E2091AD
:1043D000132E3091142E4091152E5091162E0E94BE
:1043E000263A60930A2A70930B2A80930C2A9093A2
:1043F0000D2A80910A2A90910B2AA0910C2AB09143
:104400000D2A8093132E9093142EA093152EB09303
:10441000162E80910A2A90910B2AA0910C2AB09115
:104420000D2A8093782E9093792EA0937A2EB093B4
:104430007B2E80917B298F3F29F480917C298F3FAF
:1044400009F467C010928B3210928C3210928D3228
:1044500010928E3220917B2940918B3250918C3278
:1044600060918D3270918E32922F80E0AA2797FD55
:10447000A095BA2F842B952BA62BB72B80938B322C
:1044800090938C32A0938D32B0938E3220917C2900
:1044900080918B3290918C32A0918D32B0918E327E
:1044A000822B80938B3290938C32A0938D32B09379
:1044B0008E3220918B3230918C3240918D325091DE
:1044C0008E3260917D3270917E3280917F329091F8
:1044D00080320E94C73928E631E040E050E00E9477
:1044E0000B3A20938B3230938C3240938D32509321
:1044F0008E3280918B3290918C32A0918D32B0911E
:104500008E328093D4249093D524A093D624B09354
:10451000D724809176298093E52800E010E0F80107
:10452000EB51F74D60818AE991E20E94A73588231B
:1045300011F00F5F1F4F101611068CF71092472EC7
:104540001092472E3DC0809176298830C9F5809120
:10455000472E8330A8F11092032E80917729813065
:1045600039F48093FA2D1092832E1092842E02C07B
:104570001092FA2D80917829813039F48093FC29AA
:104580001092812E1092822E02C01092FC298091EE
:1045900076298093E52800E010E0F801EB51F74D13
:1045A00060818AE991E20E94A735882311F00F5FAC
:1045B0001F4F101611068CF71092472E1092472E9F
:1045C0002496CDBFDEBFDF91CF91FF91EF91BF91D8
:1045D000AF919F918F917F916F915F914F913F919B
:1045E0002F911F910F91FF90EF90DF90CF90BF9090
:1045F000AF909F908F907F906F905F904F900F90B3
:104600000BBE0F900ABE0F9009BE0F9008BE0F9010
:104610000FBE0F901F9018951F920F920FB60F921A
:10462000112408B60F9218BE0BB60F921BBE8F93C3
:10463000EF93FF93E0E0F9E0818580FD03C081E026
:104640008093FF2DE0E0F9E0818580FF03C082E0E8
:104650008093FF2DFF91EF918F910F900BBE0F90E4
:1046600008BE0F900FBE0F901F9018951F920F92CB
:104670000FB60F92112408B60F9218BE0BB60F9208
:104680001BBE8F93EF93FF93E0E4F9E0818580FDFB
:1046900003C081E080932A2EE0E4F9E0818580FF69
:1046A00003C082E080932A2EFF91EF918F910F90AB
:1046B0000BBE0F9008BE0F900FBE0F901F90189565
:1046C0001F920F920FB60F92112408B60F9218BEC8
:1046D00009B60F9219BE0BB60F921BBE2F933F93D4
:1046E0004F935F936F937F938F939F93AF93BF93FA
:1046F000EF93FF9381E293E20E94F235FF91EF91F5
:10470000BF91AF919F918F917F916F915F914F91E9
:104710003F912F910F900BBE0F9009BE0F9008BED6
:104720000F900FBE0F901F9018951F920F920FB60B
:104730000F92112408B60F9218BE09B60F9219BE37
:104740000BB60F921BBE2F933F934F935F936F93C4
:104750007F938F939F93AF93BF93EF93FF9383E1E7
:1047600090E20E94F235FF91EF91BF91AF919F913E
:104770008F917F916F915F914F913F912F910F900A
:104780000BBE0F9009BE0F9008BE0F900FBE0F908A
:104790001F9018951F920F920FB60F92112408B612
:1047A0000F9218BE09B60F9219BE0BB60F921BBE20
:1047B0002F933F934F935F936F937F938F939F9329
:1047C000AF93BF93EF93FF938AE991E20E94F23592
:1047D000FF91EF91BF91AF919F918F917F916F91D9
:1047E0005F914F913F912F910F900BBE0F9009BE9B
:1047F0000F9008BE0F900FBE0F901F9018951F923C
:104800000F920FB60F92112408B60F9218BE09B678
:104810000F9219BE0BB60F921BBE2F933F934F936F
:104820005F936F937F938F939F93AF93BF93EF9318
:10483000FF938FEFE0E4F6E087838091522E909112
:10484000532E8093102E9093112E8091102E9091C4
:10485000112E1816190634F46BE283E190E20E94DF
:10486000A73511C08091102E9091112E992334F408
:104870006DE283E190E20E94A73505C060E283E12A
:1048800090E20E94A7358091102E9091112E9923CD
:104890005CF48091102E9091112E91958195910943
:1048A0008093102E9093112E8091102E9091112EA6
:1048B0002AE030E0B9010E94D639806380934C2E03
:1048C00090934D2E8091102E9091112EB9010E943F
:1048D000D6396093102E7093112E8091102E9091E6
:1048E000112EB9010E94D639806380937B32909358
:1048F0007C328091102E9091112EB9010E94D639F0
:104900006093102E7093112E8091102E9091112E85
:10491000B9010E94D639806380933F2E9093402E38
:104920008091102E9091112EB9010E94D63960937A
:10493000102E7093112E8091102E9091112EB9018E
:104940000E94D63980638093DF289093E02880917D
:10495000102E9091112EB9010E94D6396093102E1D
:104960007093112E8091102E9091112EB9010E94FA
:10497000D63980638093CB289093CC286091CB2844
:104980007091CC2883E190E20E94A7356091DF28E6
:104990007091E02883E190E20E94A73560913F2E5C
:1049A0007091402E83E190E20E94A73560917B32A6
:1049B00070917C3283E190E20E94A73560914C2E89
:1049C00070914D2E83E190E20E94A73560E283E171
:1049D00090E20E94A7356AE383E190E20E94A73546
:1049E00060E283E190E20E94A73580916B2E909166
:1049F0006C2E8093102E9093112E8091102E9091FA
:104A0000112E1816190634F46BE283E190E20E942D
:104A1000A73511C08091102E9091112E992334F456
:104A20006DE283E190E20E94A73505C060E283E178
:104A300090E20E94A7358091102E9091112E99231B
:104A40005CF48091102E9091112E91958195910991
:104A50008093102E9093112E8091102E9091112EF4
:104A60002AE030E0B9010E94D639806380934C2E51
:104A700090934D2E8091102E9091112EB9010E948D
:104A8000D6396093102E7093112E8091102E909134
:104A9000112EB9010E94D639806380937B329093A6
:104AA0007C328091102E9091112EB9010E94D6393E
:104AB0006093102E7093112E8091102E9091112ED4
:104AC000B9010E94D639806380933F2E9093402E87
:104AD0008091102E9091112EB9010E94D6396093C9
:104AE000102E7093112E8091102E9091112EB901DD
:104AF0000E94D63980638093DF289093E0288091CC
:104B0000102E9091112EB9010E94D6396093102E6B
:104B10007093112E8091102E9091112EB9010E9448
:104B2000D63980638093CB289093CC286091CB2892
:104B30007091CC2883E190E20E94A7356091DF2834
:104B40007091E02883E190E20E94A73560913F2EAA
:104B50007091402E83E190E20E94A73560917B32F4
:104B600070917C3283E190E20E94A73560914C2ED7
:104B700070914D2E83E190E20E94A7356DE083E1B4
:104B800090E20E94A735FF91EF91BF91AF919F9165
:104B90008F917F916F915F914F913F912F910F90E6
:104BA0000BBE0F9009BE0F9008BE0F900FBE0F9066
:104BB0001F9018954F925F926F927F928F929F9263
:104BC000AF92BF92CF92DF92EF92FF92E0E4F9E0D2
:104BD00080A191A18093853290938632E0E0F9E044
:104BE00080A191A1A0E0B0E08093262E9093272E83
:104BF000A093282EB093292E8091FF2D811117C0EC
:104C00004091262E5091272E6091282E7091292EAA
:104C10008091F6299091F729A091F829B091F9296E
:104C2000481B590B4093C8245093C9243BC0809122
:104C3000FF2D8130C9F44091F6295091F7296091F8
:104C4000F8297091F9298091262E9091272EA09114
:104C5000282EB091292E40955095840F951F809352
:104C6000C8249093C9241CC08091FF2D8230C1F4C8
:104C70004091262E5091272E6091282E7091292E3A
:104C80008091F6299091F729A091F829B091F929FE
:104C90004F5F5F4F481B590B4093C8245093C92462
:104CA0001092FF2D80912A2E81110FC080918532A4
:104CB000909186322091352E3091362E821B930BA7
:104CC0008093A8249093A9242AC080912A2E813011
:104CD00089F48091352E9091362E20918532309135
:104CE000863280959095820F931F8093A82490938D
:104CF000A92413C080912A2E823079F480918532C4
:104D0000909186322091352E3091362E0196821B5D
:104D1000930B8093A8249093A92410922A2E80911B
:104D2000262E9091272EA091282EB091292E809387
:104D3000F6299093F729A093F829B093F929809147
:104D40008532909186328093352E9093362E209125
:104D5000C8243091C9248091A8249091A924820F5D
:104D6000931F8093FA299093FB298091C8249091F6
:104D7000C9242091A8243091A924821B930B8093ED
:104D80008F329093903280918F32909190324091F7
:104D90008B3250918C3260918D3270918E32AA2775
:104DA00097FDA095BA2F840F951FA61FB71F80935C
:104DB0008B3290938C32A0938D32B0938E3280914F
:104DC000FA299091FB294091BC245091BD24609117
:104DD000BE247091BF24AA2797FDA095BA2F840FF7
:104DE000951FA61FB71F8093BC249093BD24A0934A
:104DF000BE24B093BF2440918B3250918C3260918D
:104E00008D3270918E3280917D3290917E32A09160
:104E10007F32B0918032481759076A077B07E4F068
:104E200080918B3290918C32A0918D32B0918E32E4
:104E300040917D3250917E3260917F32709180320C
:104E4000841B950BA60BB70B80938B3290938C32FF
:104E5000A0938D32B0938E3280918B3290918C32B0
:104E6000A0918D32B0918E32BB23E4F440918B320D
:104E700050918C3260918D3270918E3280917D3262
:104E800090917E32A0917F32B0918032840F951F35
:104E9000A61FB71F80938B3290938C32A0938D32D4
:104EA000B0938E3260918B3270918C3280918D32C2
:104EB00090918E32C090D728D090D828E090D928F1
:104EC000F090DA280E94DA374B015C01C701B60185
:104ED0000E94DA379B01AC01C501B4010E943F3743
:104EE0002BED3FE049E450E40E94F3380E943C3748
:104EF0002B013C0160918B3270918C3280918D320C
:104F000090918E32C090D728D090D828E090D928A0
:104F1000F090DA280E94DA374B015C01C701B60134
:104F20000E94DA379B01AC01C501B4010E943F37F2
:104F30002BED3FE049E450E40E94F3380E945639DB
:104F40004B015C016091FA297091FB29C0902B2ED6
:104F5000D0902C2EE0902D2EF0902E2E882777FDCD
:104F60008095982F0E94DA37A30192010E94F338AE
:104F70000E94A737CB01AA2797FDA095BA2FC80E8C
:104F8000D91EEA1EFB1EC0922B2ED0922C2EE09230
:104F90002D2EF0922E2E6091FA297091FB29C0904F
:104FA0000A2AD0900B2AE0900C2AF0900D2A88272C
:104FB00077FD8095982F0E94DA37A50194010E9411
:104FC000F3380E94A737CB01AA2797FDA095BA2FE7
:104FD000C80ED91EEA1EFB1EC0920A2AD0920B2AC6
:104FE000E0920C2AF0920D2AFF90EF90DF90CF9084
:104FF000BF90AF909F908F907F906F905F904F90F9
:1050000008954F925F926F927F928F929F92AF928C
:10501000BF92CF92DF92EF92FF920F931F93CF93A5
:10502000DF934091392E50913A2E60913B2E709132
:105030003C2E8091B6249091B724A091B824B091D1
:10504000B924481759076A077B07A9F44091782EBD
:105050005091792E60917A2E70917B2E8091132E33
:105060009091142EA091152EB091162E4817590725
:105070006A077B0771F08091D0249091D124A09190
:10508000D224B091D3248093372E9093382E10924F
:1050900006208091B6249091B724A091B824B091B5
:1050A000B9248093392E90933A2EA0933B2EB0933F
:1050B0003C2E8091132E9091142EA091152EB0911C
:1050C000162E8093782E9093792EA0937A2EB093FB
:1050D0007B2E4091B6245091B7246091B8247091F2
:1050E000B92480912B2E90912C2EA0912D2EB09131
:1050F0002E2E8A019B01081B190B2A0B3B0BC901A1
:10510000B8010E94DA37C62ED72EE82EF92E40912C
:10511000132E5091142E6091152E7091162E8091A1
:105120000A2A90910B2AA0910C2AB0910D2A8A018B
:105130009B01081B190B2A0B3B0BC901B8010E94EC
:10514000DA37062F172FD82FC92F2C2D3D2D4E2D96
:105150005F2D6C2D7D2D8E2D9F2D0E94F3386B01C0
:105160007C01202F312F4D2F5C2F602F712F8D2F21
:105170009C2F0E94F3389B01AC01C701B6010E942D
:1051800072360E9460390E94A73760931A2E70937E
:105190001B2E80931C2E90931D2E6091DB2470910A
:1051A000DC248091DD249091DE24C0901A2ED090D2
:1051B0001B2EE0901C2EF0901D2E2AE030E040E0E7
:1051C00050E00E940B3A2C153D054E055F050CF092
:1051D0003FC180911A2E90911B2EA0911C2EB09150
:1051E0001D2E8093712E9093722EA093732EB093E8
:1051F000742E1092BC241092BD241092BE241092E2
:10520000BF241092642E1092652E109206204091B9
:10521000B6245091B7246091B8247091B92480913C
:105220002B2E90912C2EA0912D2EB0912E2E4090B1
:10523000132E5090142E6090152E7090162E809084
:105240000A2A90900B2AA0900C2AB0900D2A8A016D
:105250009B01081B190B2A0B3B0BC901B8010E94CB
:10526000DA376B017C01C301B201681979098A0937
:105270009B090E94DA37A70196010E94E5366B016F
:105280007C016091D7287091D8288091D92890917D
:10529000DA280E94DA37A70196010E94F3382BED35
:1052A0003FE049E450E40E943F370E94A7376093F3
:1052B000D4247093D5248093D6249093D7248091BE
:1052C0006629811173C040918B3250918C3260916C
:1052D0008D3270918E328091D4249091D524A091FA
:1052E000D624B091D7248A019B01081B190B2A0BE5
:1052F0003B0BC901B8010E94DA37062F172FD82FB0
:10530000C92F6091862E7091872E8091882E909162
:10531000892E0E94DA379B01AC01602F712F8D2FEF
:105320009C2F0E94E8381816ECF08091862E909100
:10533000872EA091882EB091892E9C01AD01662701
:105340007727CB01621B730B840B950B0E94DA3716
:105350009B01AC01602F712F8D2F9C2F0E9438373D
:10536000882304F58FEF8093802E8091D424909130
:10537000D524A091D624B091D7244091D72850911C
:10538000D8286091D9287091DA28841B950BA60B38
:10539000B70B8093D4249093D524A093D624B093B4
:1053A000D7242EC081E08093802E2AC08091662968
:1053B000813019F48093802E23C080916629823039
:1053C000F9F48FEF8093802E8091D4249091D5248E
:1053D000A091D624B091D7244091D7285091D828B5
:1053E0006091D9287091DA28841B950BA60BB70B16
:1053F0008093D4249093D524A093D624B093D7241B
:105400008091D4249091D524A091D624B091D72412
:10541000BB230CF053C04091D4245091D52460910B
:10542000D6247091D72480917D3290917E32A091C4
:105430007F32B0918032840F951FA61FB71F8093D3
:10544000D4249093D524A093D624B093D72436C0E7
:105450008091642E9091652E8C32914078F18091EC
:105460000620811103C081E08093062080910020F6
:1054700090910120A0910220B09103208F3F9F4F77
:10548000AF4FBF4FD9F08091002090910120A091A3
:105490000220B09103208093D4249093D524A0932C
:1054A000D624B093D7248FEF9FEFDC0180930020A8
:1054B00090930120A0930220B0930320DF91CF911D
:1054C0001F910F91FF90EF90DF90CF90BF90AF9022
:1054D0009F908F907F906F905F904F9008954F9224
:1054E0005F926F927F928F929F92AF92BF92CF9274
:1054F000DF92EF92FF920F931F93CF93DF93CDB77D
:10550000DEB72C97CDBFDEBFA091802E2091712EEB
:105510003091722E4091732E5091742EC090BC2405
:10552000D090BD24E090BE24F090BF24BB27A7FDFF
:10553000B0950E94303ADC01CB018C199D09AE096F
:10554000BF098093542E9093552EA093562EB0935E
:10555000572E8091062A9091072AA091082AB0918F
:10556000092A4091D3285091D4286091D528709170
:10557000D628841B950BA60BB70B8093FB2D90931D
:10558000FC2DA093FD2DB093FE2D40910A2E50913D
:105590000B2E60910C2E70910D2E8091542E9091B7
:1055A000552EA091562EB091572E840F951FA61FF1
:1055B000B71F80930A2E90930B2EA0930C2EB093BE
:1055C0000D2E80910A2E90910B2EA0910C2EB09151
:1055D0000D2E893C9105A105B1056CF088EC90E099
:1055E000A0E0B0E080930A2E90930B2EA0930C2E97
:1055F000B0930D2E19C080910A2E90910B2EA09180
:105600000C2EB0910D2E88339F4FAF4FBF4F64F4D7
:1056100088E39FEFAFEFBFEF80930A2E90930B2E9E
:10562000A0930C2EB0930D2E6091542E7091552E98
:105630008091562E9091572E8090722990907329C8
:10564000A0907429B09075292091FB2D3091FC2DEC
:105650004091FD2D5091FE2D29833A834B835C832D
:105660004090C7285090C8286090C9287090CA28D8
:10567000C0900A2ED0900B2EE0900C2EF0900D2EA4
:105680002091813230918232409183325091843224
:105690002D833E834F8358872091DB243091DC2477
:1056A0004091DD245091DE2429873A874B875C871F
:1056B00000918732109188320E94DA37A501940157
:1056C0000E94F3384B015C0169817A818B819C8156
:1056D0000E94DA37A30192010E94F3389B01AC01CA
:1056E000C501B4010E9472364B015C01C701B601CD
:1056F0000E94DA372D813E814F8158850E94F33810
:105700009B01AC01C501B4010E9472366B017C01A2
:1057100069857A858B859C8595958795779567951D
:105720009801442737FD4095542F0E940B3ACA0137
:10573000B9010E94DA379B01AC01C701B6010E9492
:105740003F370E94A7376093062A7093072A8093F9
:10575000082A9093092A409187325091883280918B
:10576000062A9091072AA091082AB091092A5195FA
:1057700041955109662757FD6095762F8417950747
:10578000A607B7079CF48091873290918832919553
:1057900081959109AA2797FDA095BA2F8093062A93
:1057A0009093072AA093082AB093092A4091873240
:1057B000509188328091062A9091072AA091082A58
:1057C000B091092A662757FD6095762F481759072B
:1057D0006A077B0784F48091873290918832AA27E8
:1057E00097FDA095BA2F8093062A9093072AA0933D
:1057F000082AB093092A8091062A9091072AA0913D
:10580000082AB091092ABB230CF053C04091D32839
:105810005091D4286091D5287091D6288091062A7D
:105820009091072AA091082AB091092A8417950718
:10583000A607B7070CF08DC04091062A5091072AA1
:105840006091082A7091092A8091D3289091D428D8
:10585000A091D528B091D6282091D8243091D92470
:1058600055231CF451954195510999231CF49195A8
:1058700081959109481B590B2417350708F069C019
:105880008091D3289091D428A091D528B091D62882
:105890002091D8243091D924821B930BA109B109FE
:1058A0008093062A9093072AA093082AB093092A86
:1058B00050C04091D3285091D4286091D528709140
:1058C000D6288091062A9091072AA091082AB091A3
:1058D000092A481759076A077B07DCF54091062A11
:1058E0005091072A6091082A7091092A8091D32843
:1058F0009091D428A091D528B091D6282091D82471
:105900003091D92455231CF451954195510999237F
:105910001CF4919581959109481B590B2417350763
:10592000C0F42091D8243091D9248091D32890912B
:10593000D428A091D528B091D628820F931FA11DFD
:10594000B11D8093062A9093072AA093082AB0934A
:10595000092A8091062A9091072AA091082AB091DD
:10596000092A8093D3289093D428A093D528B09364
:10597000D6282C96CDBFDEBFDF91CF911F910F911E
:10598000FF90EF90DF90CF90BF90AF909F908F905F
:105990007F906F905F904F9008954F925F926F92BB
:1059A0007F928F929F92AF92BF92CF92DF92EF92AF
:1059B000FF920F931F93CF93DF93CDB7DEB72C9752
:1059C000CDBFDEBF8091D4249091D524A091D62460
:1059D000B091D72440918B3250918C3260918D32AE
:1059E00070918E32841B950BA60BB70B80937C2E87
:1059F00090937D2EA0937E2EB0937F2E80917C2E4F
:105A000090917D2EA0917E2EB0917F2E4091F62D0B
:105A10005091F72D6091F82D7091F92D841B950B05
:105A2000A60BB70B8093432E9093442EA093452E44
:105A3000B093462E80917C2E90917D2EA0917E2E4B
:105A4000B0917F2E8093F62D9093F72DA093F82D93
:105A5000B093F92D4091D7285091D8286091D9283A
:105A60007091DA2880917C2E90917D2EA0917E2ECF
:105A7000B0917F2E70956095509541955F4F6F4F17
:105A80007F4F84179507A607B707ECF440917C2E4B
:105A900050917D2E60917E2E70917F2E80917D326F
:105AA00090917E32A0917F32B0918032840F951F09
:105AB000A61FB71F80937C2E90937D2EA0937E2EE1
:105AC000B0937F2E31C040917C2E50917D2E6091FD
:105AD0007E2E70917F2E8091D7289091D828A0910A
